:1000000038C1000067C1000065C1000063C1000085
:1000100061C100005FC100005DC100005BC1000064
:1000200059C100000C943C0D0C943C0D0C943C0DFB
:1000300051C100004FC100004DC100004BC1000084
:1000400049C100000C94C51045C1000043C1000027
:1000500041C100003FC100003DC100000C94C41329
:1000600039C100000C94130D0C94EA0C33C100004C
:1000700031C100002FC100002DC100002BC10000C4
:100080000C94981027C1000025C1000023C1000076
:100090000C94C10C0C94980C1DC100000C94620EC1
:1000A00019C1000017C100000C946B1013C10000AF
:1000B00011C100000FC100000DC100000C943E10E2
:1000C00009C1000007C1000005C100000C946F0CBD
:1000D0000C94460CFFC000000C941D0C0C94F40B07
:1000E000F9C00000ED02F202F70201030B038403E2
:1000F00015031D0325032F033903430352035C0338
:100100008403660370037A039A079708F506970835
:1001100051079708D3067D06970897089708970810
:10012000B2076E05970828069708BD060D11101135
:10013000FF10031109114711141118111E1122117A
:1001400026112C113011341147113A113E11421170
:1001500000002100240027002A002D003000330079
:1001600001010000040107010A010000220025002E
:1001700028002B002E003100340002010000050190
:1001800008010B01000020002300260029002C009C
:100190002F003200000100000301060109010505DE
:1001A0000505070508080808020202020A0A0808ED
:1001B000040404040101010101010101030303031B
:1001C00003030303040707070C0C0C0C0C0C0C0CAA
:1001D0000202020206060606060606060B0B0B0BBB
:1001E0000B0B0B0B010210202008081020401020E0
:1001F00040800201020108040201010204081020EB
:1002000040808040201008040201800402018040E8
:100210002010080402010804020101020408102051
:100220004080010204081020408000000A0B0209EF
:100230000C0D0E0807030401000000000000000080
:1002400000000000000000000000000000000000AE
:10025000000000000000121110000000000000006B
:10026000000000000000000000000000000000008E
:100270001B1B11241FBECFEFD1E2DEBFCDBF00E0BC
:100280000CBF13E0A0E0B2E0E2E1FDE300E00BBF51
:1002900002C007900D92A630B107D9F72AE0A6E078
:1002A000B3E001C01D92A230B207E1F711E0C9E34B
:1002B000D1E000E006C021970109802FFE010E94D5
:1002C0004B1DC833D10780E00807A9F70E945314DB
:1002D0000C94871E95CE893028F4E82FF0E0EA5E72
:1002E000FC4F60830895803100F5409137035091B1
:1002F000380321E030E0672B61F4B90102C0660FDA
:10030000771F8A95E2F7CB018095909584239523FA
:1003100008C002C0220F331F8A95E2F7CA01822B60
:10032000932B909338038093370308950F931F9373
:10033000CF93DF93893008F077C0382F330F330F16
:10034000330F385F373408F036E4C82FCC0FCC0FAA
:10035000CC0F2C2FD0E041E0DB01BB27231708F5A1
:100360008EEF820F8434D0F4822F90E0FC01E75CA2
:10037000FC4F5081523090F4D42B880F991FFC0110
:10038000ED55FC4F842F90E08A239B2301E010E081
:10039000892B11F400E010E011830083440F2F5FDC
:1003A000DDCF8B01D0FF04C061708C2F0E94F21250
:1003B000D1FF06C0602F627081E08C0F0E94F212A4
:1003C000D2FF06C0602F647082E08C0F0E94F21290
:1003D000D3FF06C0602F687083E08C0F0E94F2127A
:1003E000D4FF06C0602F607184E08C0F0E94F2126F
:1003F000D5FF06C0602F607285E08C0F0E94F2125C
:10040000D6FF06C0602F607486E08C0F0E94F21247
:10041000D7FF0AC0602F607887E08C0FDF91CF9103
:100420001F910F910C94F212DF91CF911F910F91B8
:1004300008958F929F92AF92BF92CF92DF92EF92E8
:10044000FF920F931F93CF93DF93EB01863408F055
:1004500067C1082F10E0F801E75CFC4F90819330F2
:1004600009F48FC0943009F05BC18250803308F0EA
:1004700050C1780182E0E81AF1086701CC0CDD1C5C
:10048000603282E078070CF042C077FD05C0653B22
:10049000710524F4DB0104C0A0E001C0A4EBB0E0CE
:1004A000F601EE0DFF1DEB59F64F818128E830E093
:1004B0004901881A910887FD9394880C991C880C2F
:1004C000991C092C000CAA08BB08828128E532E09F
:1004D000281B310987FD3395220F331F220F331F4D
:1004E000A901330F660B770B9A01AB012819390963
:1004F0004A095B090E94081D24EB30E040E050E00F
:100500000E94E21C820E931EA41EB51E01C04B0168
:10051000F601EE0DFF1DEB59F64F2081203308F058
:10052000F8C0318188E890E0831B910937FD9395ED
:10053000880F991F880F991F8816990684F0828169
:1005400048E552E0481B510987FD5395440F551F5C
:10055000440F551FC401481559050CF4CA010297F0
:10056000880F991F4FB7F89430E0F901EE0FFF1F85
:100570002E0F3F1FF901EC52F74F928381834FBF3B
:10058000C8C0F82E8EEF800F8C3028F084ED800FDD
:10059000833008F0BEC061E08F2D0E9420132097A9
:1005A00011F460E004C0CF3FD10529F461E08F2D44
:1005B0000E94F212AEC0F801E65DFD4FE4918E2F6D
:1005C00090E0FC013197E231F10508F09DC08827E9
:1005D000EE58FF4F8F4F0C944B1D84B5806884BD3F
:1005E000C7BD97C084B5806284BDC8BD92C08091EC
:1005F0008000806880938000D0938900C093880039
:1006000088C080918000806280938000D0938B00AE
:10061000C0938A007EC080918000886080938000B3
:10062000D0938D00C0938C0074C08091B00080681E
:100630008093B000C093B3006CC08091B000806222
:100640008093B000C093B40064C080919000806833
:1006500080939000D0939900C09398005AC08091E5
:100660009000806280939000D0939B00C0939A008A
:1006700050C080919000886080939000D0939D003E
:10068000C0939C0046C08091A00080688093A00029
:100690008091A0008F7B8093A000D093A900C0938D
:1006A000A80037C08091A00080628093A000D09302
:1006B000AB00C093AA002DC08091A00088608093F9
:1006C000A000D093AD00C093AC0023C08091200166
:1006D000806880932001D0932901C093280119C01C
:1006E00080912001806280932001D0932B01C093E0
:1006F0002A010FC080912001886080932001D0934F
:100700002D01C0932C0105C0C038D1050CF04ECF8F
:1007100048CF000F111FF801ED55FC4FD183C08366
:10072000DF91CF911F910F91FF90EF90DF90CF90CD
:10073000BF90AF909F908F900895BF92CF92DF921D
:10074000EF92FF920F931F93CF93DF93C82F8B01EC
:10075000C82ED12CC601875C9C4F7C01FC01808196
:10076000863061F480913104882341F06630710550
:1007700029F0109231048FEF80930002DEEFDC0F3E
:10078000D033C8F404301105B1F0C6010297FC0162
:10079000EE0FFF1F8E0F9F1FFC01EB59F64FE081FC
:1007A000F0E0CF01880F991FE80FF91FEC52F74FC7
:1007B000808186FDC7C07AECB72EBC0EFFE0FB152A
:1007C00048F061E070E00230110511F060E070E087
:1007D0008B2D89DDD434C8F4EC2FE695E695E695AB
:1007E0002C2F2770F0E0EB50FB4F81E090E001C030
:1007F000880F2A95EAF70115110519F49081892BC4
:1008000003C08095908189238083F601EE0FFF1F3E
:10081000ED55FC4F118210820230110591F03CF42D
:1008200001151105F1F00130110549F17EC00430C8
:10083000110509F446C084F10630110509F46EC0B3
:1008400074C08FE08B1508F480C0D43440F460E0AD
:100850008C2F0E94201360E08C2F0E94F21282E005
:1008600061C0D43408F071C060E08C2F0E94201366
:1008700060E08C2F0E94F212F701108266C0D4341F
:1008800008F063C060E08C2F0E94F21261E08C2FB0
:100890000E94201381E046C0DC3028F084ED8C0FEC
:1008A000833008F052C061E08C2F0E94201361E079
:1008B0008C2F0E94201360E08C2F0E94F21283E0A4
:1008C00031C0D03308F041C084E0F7018083C60115
:1008D00002979C01220F331F820F931F8B59964F53
:1008E000FC01208130E0F901EE0FFF1F2E0F3F1FAA
:1008F000F901EC52F74F208126FD27C020E639E0B0
:1009000040E252E0B601DF91CF911F910F91FF902D
:10091000EF90DF90CF90BF900C94930FC451C230F2
:10092000A0F486E0F701808310C085E792E0DF91B4
:10093000CF911F910F91FF90EF90DF90CF90BF90DC
:100940000C94D8118F7B808336CFDF91CF911F918C
:100950000F91FF90EF90DF90CF90BF900895EF92AE
:10096000FF920F931F93CF93DF93D82F8B01C42F48
:100970006F3F8FEF7807A9F081E08093C804D09390
:10098000EA041092C9041092EB0488EC98E0FED5BA
:100990000E940D1280912F04909130040E945C13EC
:1009A00002C000E010E08091C7048111FCCF9C2FB1
:1009B000C13208F090E281E08093C7048093C604BE
:1009C0002FEF2093C5041092C404290F2093C30471
:1009D0008093A2048091A2042D2F220F822B80935A
:1009E000A2048091A104813061F41092A10480914D
:1009F000A2048093BB008091BC0083FDF8CF85ECFE
:100A000001C085EE8093BC008091C7048130E1F382
:100A10008091C404891710F49091C404E3EAF4E0CF
:100A2000A2E3B4E080E0891721F021912D938F5F3C
:100A3000FACF1092530480935204EC2EF12C90E0E4
:100A4000E816F906A1F4D09383030093840303E826
:100A500013E0C801835893408E159F0594F488ECE9
:100A600098E04CD5F80182830F5F1F4FF2CF8E15AF
:100A70009F051CF486E892E002C08EEA92E00E9494
:100A8000D811CE5F6C2F70E043E853E087E7DF9129
:100A9000CF911F910F91FF90EF900C948C118F923A
:100AA0009F92AF92BF92EF92FF920F931F93CF93BB
:100AB000DF9300D01F921F92CDB7DEB790E0FC010C
:100AC000E956F109E231F10508F031C37A01162F38
:100AD0008827EC57FF4F8F4F0C944B1DDA0111966E
:100AE0008C91382F387185FF03C085ED92E055C099
:100AF000FA018081383059F168F4311118C391E05E
:100B00009093C8048093EA041092C9041092EB04F5
:100B100002E006C03031D9F0383109F452C007C3C1
:100B2000011770F4F701E00FF11D618167956627E9
:100B300067958081680F88EC98E028D50E5FF0CF2C
:100B40000E940D1283E191E00197F1F7F0C2D70105
:100B500013969C91139712966C91129797959927DB
:100B60009795163061F4690F15969C911597979596
:100B70009927979514962C91492F420F03C0492F1E
:100B8000460F6FEF383019F470E0E9DED0C2E09123
:100B90000002E7302CF085EF92E00E94D811C7C226
:100BA000EF5FE09300020E2E000CFF0B9F01220F5F
:100BB000331FE20FF31FE15EFC4F808361834283AA
:100BC000B6C230910002131634F420E0632F032ED6
:100BD000000C770B10C08FEF80930002A8C2FA01BF
:100BE000EE0FFF1F4E0F5F1FFA01E15EFC4F908179
:100BF000891729F12F5F422F50E0641775077CF7A2
:100C000020E01DC02830D0F4DC011196AD01440F66
:100C1000551FA40FB51FA15EBC4F4C91FC01EE0FF8
:100C2000FF1F8E0F9F1FFC01E15EFC4F408311965A
:100C30008C911197818312968C9182832F5F822FE2
:100C400090E068177907F4F63150309300026FC2D4
:100C5000FA012181808190E0F0E82F9F800D911DA5
:100C60001124009721F09093300480932F048091F9
:100C7000310481115CC210E08CEE810F823020F4CF
:100C800066E070E0812F59DD1F5F1634A9F781E01F
:100C90008093310410925304109252041092C904AC
:100CA0001092EB041092C7048093C6041092A10422
:100CB00061E084E10E94F21261E085E10E94F2129B
:100CC0008091B9008E7F8093B9008091B9008D7FAB
:100CD0008093B90088E48093B80085E48093BC00D9
:100CE0008CE69AE090935504809354048DE69AE044
:100CF00090935704809356041AC2653008F417C2C3
:100D0000DA011C918EEF810F803308F010C211962A
:100D10004C9111971296AC91F70123815481612F68
:100D200070E0CB010297FC01EE0FFF1F8E0F9F1F9B
:100D30008B59964FFC013081E32FF0E07F01EE0CE0
:100D4000FF1CEE0DFF1DEC52F74F308136FF02C045
:100D50003F7B308330E0F0E85F9F200D311D112490
:100D600050E0B0E8AB9F400D511D11240E94930F3D
:100D700064E070E0812FE1DCDAC1623008F4D7C1B1
:100D8000FA012181808190E0F0E82F9F800D911D74
:100D900011248A30910514F48AE090E090930202C5
:100DA00080930102C4C1623008F4C1C1DA01119616
:100DB0006C91119770E01230A1F012968C91B0E80E
:100DC0008B9FC0011124682B792B133051F0FA014D
:100DD000838190E090E4899F902D88271124682BCF
:100DE000792BD7018C9125DBA2C180EF90E00E9486
:100DF00048118CE690E00E9448111EEF8CEC810FA8
:100E0000803148F482E090E00E9448118AE090E04E
:100E10000E94481102C01C3020F086ED810F833003
:100E200040F483E090E00E94481188E090E00E9446
:100E30004811103340F484E090E00E9448118EE0A5
:100E400090E00E9448118EEE810F823040F486E0DF
:100E500090E00E94481181E090E00E9448118FE7E5
:100E600090E00E9448111F5F143471F1143430F681
:100E700060E085ED96E018D281E090E00E94481194
:100E800061E085ED96E010D281E090E00E9448118B
:100E900065E785ED96E008D281E090E00E94481178
:100EA000ADCF662309F443C1FA01008180EF90E0E1
:100EB0000E9448118EE690E00E944811602F85ED57
:100EC00096E0F2D1063428F087EF90E00E944811B6
:100ED0002EC110E0F801E75CFC4F608185ED96E0E3
:100EE000E3D1000F111FF801ED55FC4F0081118176
:100EF000C8018F7799270E944811C8018078892BF3
:100F000049F0C801880F892F881F990B8F7799277F
:100F10000E944811C8018827907C892BA9F2C8013A
:100F2000990F880B990F982F881F8F7799270E9408
:100F30004811CACF80EF90E00E9448118AE690E005
:100F40000E9448110AEC1FEF003110F4C80102C0E2
:100F50008FE790E00E9448110F5F1F4F003111058D
:100F600099F7B2CFDA0113969C91139712968C9150
:100F700090FB87F990E0A0E0B0E0782F6627552736
:100F80004427F7018581948180FB97F9892F90E0B0
:100F9000A0E0B0E0DC0199278827840F951FA61FE9
:100FA000B71F3185208530FB27F9820F911DA11DC8
:100FB000B11D2781868020FB87F8912CA12CB12CB4
:100FC000BA2CA92C982C8824880E991EAA1EBB1E08
:100FD000818161E08130C1F480810E94201360E052
:100FE000D7018C910E94F21283E090E00197F1F713
:100FF00061E0F70180810E94F212C4010E945C133B
:1010000060E0D7018C9113C0F70180810E94F21239
:1010100083E090E00197F1F760E0D7018C910E94A6
:10102000F212C4010E945C1361E0F70180810E940A
:10103000F212D7011B968C911B971A968C901A97D7
:1010400080FB87F8912CA12CB12CB82CAA249924D0
:1010500088241D968C911D971C969C9180FB97F976
:10106000892F90E0A0E0B0E0DC0199278827880E66
:10107000991EAA1EBB1EF7019189808990FB87F9F2
:10108000A5019401280F311D411D511DDA01C9012F
:101090002785868420FB87F8912CA12CB12CBA2CB3
:1010A000A92C982C8824880E991EAA1EBB1E60E0CD
:1010B00080810E942013D7018C9190E0FC01EC51BB
:1010C000FE4F6491FC01E256FE4FE49111968C9123
:1010D000882311F0462F01C040E0F0E0EE0FFF1F23
:1010E000EC57FE4F85919491950184013F700E94C9
:1010F0000E14611571058105910539F0DC01CB01F4
:101100000196A11DB11DBF7003C080E090E0DC011D
:10111000F70120812983BA83AB839C838D83AE0141
:101120004F5F5F4F65E070E085E70E948C110F9084
:101130000F900F900F900F90DF91CF911F910F9113
:10114000FF90EF90BF90AF909F908F900895CF92B7
:10115000DF92EF92FF920F931F93CF93DF936C0177
:101160007A018B01C0E0D0E0CE15DF0581F0D80117
:101170006D918D01D601ED91FC910190F081E02DF2
:10118000C6011995892B11F02196EECF7E01C7017A
:10119000DF91CF911F910F91FF90EF90DF90CF9053
:1011A0000895FC01538D448D252F30E0842F90E06D
:1011B000821B930B541710F0CF9608950197089552
:1011C000FC01918D828D981761F0828DDF01A80F4F
:1011D000B11D5D968C91928D9F5F9F73928F90E071
:1011E00008958FEF9FEF0895FC01918D828D9817E0
:1011F00031F0828DE80FF11D858D90E008958FEF1D
:101200009FEF0895FC01918D228D892F90E0805CE5
:101210009F4F821B91098F73992708958EEF94E059
:10122000F1DF21E0892B09F420E0822F08958BE97A
:1012300095E0E8DF21E0892B09F420E0822F089572
:1012400088E396E0DFDF21E0892B09F420E0822F9C
:10125000089585ED96E0D6DF21E0892B09F420E0A2
:10126000822F0895FC01848DDF01A80FB11DA35AC0
:10127000BF4F2C91848D90E001968F739927848FB6
:10128000A689B7892C93A089B1898C9183708064D9
:101290008C93938D848D981306C00288F389E02D7A
:1012A00080818F7D80830895EF92FF920F931F932B
:1012B000CF93DF93EC0181E0888F9B8D8C8D981309
:1012C00005C0E889F989808185FD25C0F62E0B8D42
:1012D00010E00F5F1F4F0F731127E02E8C8DE81267
:1012E0000BC00FB607FCFACFE889F989808185FF2A
:1012F000F5CFCE01B7DFF2CF8B8DFE01E80FF11DE8
:10130000E35AFF4FF0829FB7F8940B8FEA89FB896D
:10131000808180620AC09FB7F894EE89FF8960835C
:10132000E889F98980818370806480839FBF81E030
:1013300090E0DF91CF911F910F91FF90EF90089572
:10134000CF93DF93EC01888D8823C1F0EA89FB8974
:10135000808185FD05C0A889B9898C9186FD0EC064
:101360000FB607FCF5CF808185FFF2CFA889B98938
:101370008C9185FFEDCFCE0175DFE8CFDF91CF9166
:10138000089580E090E0892B19F063DF811116C089
:1013900080E090E0892B19F053DF811112C080E0CA
:1013A00090E0892B19F043DF81110EC080E090E0BE
:1013B000892B79F033DF81110AC008950E94000063
:1013C000E7CF0E940000EBCF0E940000EFCF0C940B
:1013D00000000895E0911403F0911503309709F08F
:1013E00019940895862F642FE0911203F09113034E
:1013F000309711F0A901199408950895862FE0916E
:101400000A03F0910B03309711F0BA011994089573
:10141000862FE0910C03F0910D03309711F0BA0183
:1014200019940895862FE0910603F09107033097F1
:1014300011F0BA0119940895862FE0910803F091F4
:101440000903309711F0BA0119940895862FE0919D
:101450000E03F0910F03309711F0BA01199408951B
:10146000862FE0911003F0911103309711F0BA012B
:101470001994089585ED8093BC008091BC0084FD93
:10148000FCCF1092C704089540917C04262F30E0D1
:10149000240F311D21323105DCF42091C7042430A2
:1014A000C9F4FC0180E090E0861758F430917C0488
:1014B0002191DC01A45ABB4FA30FB11D2C930196BF
:1014C000F3CF80917C04680F60937C0480E00895E2
:1014D00081E0089582E00895089508950895E091C7
:1014E000530480915204E81730F4F0E0EE5CFB4FB7
:1014F000808190E008958FEF9FEF089590915304BD
:1015000080915204981750F4E92FF0E0EE5CFB4F05
:10151000208130E09F5F9093530402C02FEF3FEF94
:10152000C90108958091520490E020915304821BD8
:1015300091090895CF92DF92EF92FF920F931F933C
:10154000CF93DF937C01CB018A012091C804222331
:1015500089F0EB016B01C40ED51ECC15DD0561F0E1
:101560006991D701ED91FC910190F081E02DC701C7
:101570001995F3CF642F88DFC801DF91CF911F91B8
:101580000F91FF90EF90DF90CF900895CF93DF936E
:101590001F92CDB7DEB769832091C8042223D1F012
:1015A0002091EB04203240F021E030E0FC01338355
:1015B000228380E090E014C08091C904E82FF0E01D
:1015C000E653FB4F998190838F5F8093C90480938A
:1015D000EB0404C061E0CE01019656DF81E090E0AB
:1015E0000F90DF91CF910895089580E090E00895E5
:1015F0000E94741E009719F0805C9F4FE4C6089506
:10160000CF92DF92EF92FF920F931F93CF93DF93CE
:101610006C018B017A01EC01C85ADB4F888187FF8E
:1016200004C0FB011182108224C02CE02C9DC0015B
:101630002D9D900D11242881AC01420F511D27FDD5
:101640005A952091640930E04217530794F4288199
:10165000AC01420F511D27FD5A959A01FA01EE0F78
:10166000FF1F2E0F3F1FF901EC52F74F208126FD7F
:1016700019C088818F5F88832CE02C9DC0012D9D2F
:10168000900D11242881AC01420F511D27FD5A9560
:101690002091640930E042175307B4F428812C30BC
:1016A0003CF112C02881820F911D27FD9A95FC0103
:1016B000EE0FFF1F8E0F9F1FFC01EC52F74F808132
:1016C00060E08F738FD7D5CFF80180819181049628
:1016D00080349C4918F480E49CE904C0F8018081BE
:1016E00091810496F701918380838FEF888344C0B2
:1016F000F801408151812881BC01620F711D27FDD5
:101700007A959B01FB01EE0FFF1F2E0F3F1FF90182
:10171000EC52F74F21813281240F351FF7013183BD
:1017200020832881AC01420F511D27FD5A959A0153
:10173000FA01EE0FFF1F2E0F3F1FF901EC52F74F7A
:10174000208126FF19C02881820F911D27FD9A95BF
:10175000FC01EE0FFF1F8E0F9F1FFC01EC52F74F95
:10176000808161E08F73DF91CF911F910F91FF9086
:10177000EF90DF90CF9036C7DF91CF911F910F91FF
:10178000FF90EF90DF90CF900895CF93DF938091FB
:101790003104882329F0109231048FEF80930002E6
:1017A000E6E1F3E0C5EFD4E0ACEEB4E011921992BB
:1017B0001D9283E0EF31F807C9F7C0E08AEC8C0F87
:1017C000803118F462E070E002C061E070E08C2FBC
:1017D0000E949D03CF5FC63489F7109238031092A0
:1017E0003703DF91CF9108951F920F920FB60F929A
:1017F00011240BB60F922F933F934F935F936F93E8
:101800007F938F939F93AF93BF93EF93FF938EEF4D
:1018100094E028DDFF91EF91BF91AF919F918F915F
:101820007F916F915F914F913F912F910F900BBEE0
:101830000F900FBE0F901F9018951F920F920FB62A
:101840000F9211240BB60F922F933F934F935F93F8
:101850006F937F938F939F93AF93BF93EF93FF9378
:101860008EEF94E07ED6FF91EF91BF91AF919F9163
:101870008F917F916F915F914F913F912F910F9039
:101880000BBE0F900FBE0F901F9018951F920F92D6
:101890000FB60F9211240BB60F922F933F934F93D5
:1018A0005F936F937F938F939F93AF93BF93EF93C8
:1018B000FF938BE995E0D6DCFF91EF91BF91AF915B
:1018C0009F918F917F916F915F914F913F912F9158
:1018D0000F900BBE0F900FBE0F901F9018951F9288
:1018E0000F920FB60F9211240BB60F922F933F93C6
:1018F0004F935F936F937F938F939F93AF93BF9318
:10190000EF93FF938BE995E02CD6FF91EF91BF9178
:10191000AF919F918F917F916F915F914F913F9187
:101920002F910F900BBE0F900FBE0F901F90189528
:101930001F920F920FB60F9211240BB60F922F9396
:101940003F934F935F936F937F938F939F93AF9347
:10195000BF93EF93FF9388E396E084DCFF91EF91D0
:10196000BF91AF919F918F917F916F915F914F91B7
:101970003F912F910F900BBE0F900FBE0F901F90B5
:1019800018951F920F920FB60F9211240BB60F925B
:101990002F933F934F935F936F937F938F939F9377
:1019A000AF93BF93EF93FF9388E396E0DAD5FF916F
:1019B000EF91BF91AF919F918F917F916F915F91C7
:1019C0004F913F912F910F900BBE0F900FBE0F9034
:1019D0001F9018951F920F920FB60F9211240BB6FD
:1019E0000F922F933F934F935F936F937F938F93B8
:1019F0009F93AF93BF93EF93FF9385ED96E032DC17
:101A0000FF91EF91BF91AF919F918F917F916F91D6
:101A10005F914F913F912F910F900BBE0F900FBE92
:101A20000F901F9018951F920F920FB60F921124CE
:101A30000BB60F922F933F934F935F936F937F93C8
:101A40008F939F93AF93BF93EF93FF9385ED96E0B2
:101A500088D5FF91EF91BF91AF919F918F917F9129
:101A60006F915F914F913F912F910F900BBE0F900F
:101A70000FBE0F901F9018951F920F920FB60F92E6
:101A800011240F900FBE0F901F9018953F924F9208
:101A90005F926F927F928F929F92AF92BF92CF92FE
:101AA000DF92EF92FF920F931F93CF93DF935C012E
:101AB0006901DA013C90232B19F4CC24CA94DC2C64
:101AC0007A012A01460E571EC0E0D0E000E010E087
:101AD00087E0682E712CE414F50409F443C00C155A
:101AE0001D0508F067C04701F50180819181D7018C
:101AF0006D917D010C2E01C0660F0A94EAF76329EF
:101B00006F77DC01ED91FC910190F081E02D19954A
:101B10000F5F1F4FF401608170E0C3018C1B9D0BB0
:101B200002C0759567958A95E2F7362E2196C730E3
:101B3000D10588F2C016D10699F0D5018D919C91FE
:101B4000632D6F77DC01ED91FC910190F081E02D28
:101B500019950F5F1F4F331C3324331C2797E7CF92
:101B60008601B9CF209731F10C151D0518F5F50147
:101B70008081918161E070E001C0660FCA95EAF74B
:101B800061506321DC01ED91FC910190F081E02D29
:101B9000DF91CF911F910F91FF90EF90DF90CF9049
:101BA000BF90AF909F908F907F906F905F904F907D
:101BB0003F901994DF91CF911F910F91FF90EF907B
:101BC000DF90CF90BF90AF909F908F907F906F905D
:101BD0005F904F903F900895DF92EF92FF920F93A6
:101BE0001F93CF93DF93FC01E058FF4FD080DD209F
:101BF00009F45CC0EC01C05CDF4FA881B98110978B
:101C000009F454C0FC01EF57FF4F00811181F80126
:101C1000F180E080ED91FC9111970190F081E02D31
:101C200060EFCD01199588819981DC01ED91FC91DE
:101C30000190F081E02D69E7199588819981DC0197
:101C4000ED91FC910190F081E02D6E2D1995888128
:101C50009981DC01ED91FC910190F081E02D6F2DD7
:101C600019957801B2E0EB0EF11C0D0D111DE01677
:101C7000F10659F020E030E0A70161E070E0CE010C
:101C800005DFEFEFEE1AFE0AF2CF88819981DC01C1
:101C9000ED91FC910190F081E02D67EFDF91CF9104
:101CA0001F910F91FF90EF90DF901994DF91CF91EA
:101CB0001F910F91FF90EF90DF900895009709F02A
:101CC0008BCF08951F920F920FB60F9211240BB66F
:101CD0000F922F933F934F935F936F937F938F93C5
:101CE0009F93AF93BF93EF93FF938091B900887F49
:101CF000803609F49CC068F5883209F45BC090F422
:101D0000803109F454C038F4882309F4F6C08830CF
:101D100009F44DC0F5C0883109F44CC0803209F493
:101D20005DC0EEC0803409F468C048F4803309F423
:101D300055C0883309F0E4C08093C504D8C080350D
:101D400009F44FC0883509F45DC0883409F0D8C063
:101D5000D6C0883909F4C7C0A8F4883709F467C029
:101D600038F4883609F463C0803709F460C0C8C00D
:101D7000883809F4B8C0803909F45FC0803809F0A8
:101D8000BFC05BC0803B09F486C038F4803A09F4D8
:101D900066C0883A09F47FC0B3C0803C09F4A7C08C
:101DA000883C09F4A4C0883B09F48AC0A9C080918A
:101DB000A20410C09091C4048091C304981770F5D8
:101DC000E091C40481E08E0F8093C404F0E0ED55EF
:101DD000FB4F80818093BB0085EC86C08093C50457
:101DE0008EC0E091C40481E08E0F8093C404809182
:101DF000BB00F0E0ED55FB4F80839091C4048091CF
:101E0000C3046EC0E091C40481E08E0F8093C404CB
:101E10008091BB00F0E0ED55FB4F80838091C604BC
:101E200081116DC081E08093A10484EA61C083E0E8
:101E30008093C70410929E04CFCF80919E0480327D
:101E400008F051C0E0919E0481E08E0F80939E04C3
:101E50008091BB00F0E0E258FB4F8083BDCF85EC62
:101E60008093BC001092C70480919E04803230F4AD
:101E7000E0919E04F0E0E258FB4F108260919E04D6
:101E800070E0E0915604F09157048EE794E01995C4
:101E900010929E0435C084E08093C70410927D04A4
:101EA00010927C04E0915404F091550419958091AE
:101EB0007C04811105C081E080937C0410925C0455
:101EC000E0917D0481E08E0F80937D04F0E0E45A80
:101ED000FB4F80818093BB0090917D0480917C04B6
:101EE000981708F479CF85E88093BC0009C085EC89
:101EF0008093BC001092C70403C01092C504BADAE4
:101F0000FF91EF91BF91AF919F918F917F916F91D1
:101F10005F914F913F912F910F900BBE0F900FBE8D
:101F20000F901F901895DF92EF92FF920F931F93DF
:101F3000CF93DF93EC01D62E7A018901888180331B
:101F400008F067C061E08D2D7BD38881E82FF0E039
:101F50009F01220F331FE20FF31FEC52F74F9D2D0D
:101F60009F732081207CD22ED92AD08220E232E0B9
:101F70002E193F0937FF02C02D5F3F4F359527953A
:101F800035952795298320E639E0201B310B37FF53
:101F900002C02D5F3F4F35952795359527952A83AC
:101FA0006CE00E943F1D9CE0899FB001112440E03D
:101FB00050E09B01240F351FF901EE0FFF1F2E0F7C
:101FC0003F1FF901EC52F74F908196FD16C04F5F0D
:101FD0005F4F4C30510569F7813021F51092800038
:101FE00082E0809381001092850010928400B19A63
:101FF00080916F00826080936F00E881F0E0CF01F4
:10200000880F991FE80FF91FEC52F74F8081806409
:1020100080838881DF91CF911F910F91FF90EF9086
:10202000DF900895823061F41092900080939100C7
:10203000109295001092940088BB80937100DDCFC0
:10204000833069F41092A00082E08093A100109286
:10205000A5001092A40089BB80937200CECF81119D
:10206000CCCF1092200182E08093210110922501B3
:10207000109224018ABB80937300BFCF1F920F92EE
:102080000FB60F9211240BB60F922F933F934F93DD
:102090005F936F937F938F939F93AF93BF93EF93D0
:1020A000FF9348E251E064E271E080E090E0A8DA5A
:1020B000FF91EF91BF91AF919F918F917F916F9120
:1020C0005F914F913F912F910F900BBE0F900FBEDC
:1020D0000F901F9018951F920F920FB60F92112418
:1020E0000BB60F922F933F934F935F936F937F9312
:1020F0008F939F93AF93BF93EF93FF9348EA50E082
:1021000064EA70E083E090E07BDAFF91EF91BF91A9
:10211000AF919F918F917F916F915F914F913F917F
:102120002F910F900BBE0F900FBE0F901F90189520
:102130001F920F920FB60F9211240BB60F922F938E
:102140003F934F935F936F937F938F939F93AF933F
:10215000BF93EF93FF9348E950E064E970E082E0B9
:1021600090E04EDAFF91EF91BF91AF919F918F91E7
:102170007F916F915F914F913F912F910F900BBE87
:102180000F900FBE0F901F9018951F920F920FB6D1
:102190000F9211240BB60F922F933F934F935F939F
:1021A0006F937F938F939F93AF93BF93EF93FF931F
:1021B00048E850E064E870E081E090E021DAFF91C7
:1021C000EF91BF91AF919F918F917F916F915F91AF
:1021D0004F913F912F910F900BBE0F900FBE0F901C
:1021E0001F90189590E0FC013197E231F10508F05D
:1021F0004EC08827EA56FF4F8F4F0C944B1D80919D
:1022000080008F7703C0809180008F7D8093800055
:10221000089580918000877FF9CF84B58F7702C0C1
:1022200084B58F7D84BD08958091B0008F7703C001
:102230008091B0008F7D8093B000089580919000D0
:102240008F7707C0809190008F7D03C080919000B0
:10225000877F8093900008958091A0008F7707C0BA
:102260008091A0008F7D03C08091A000877F809324
:10227000A0000895809120018F7707C080912001F0
:102280008F7D03C080912001877F80932001089576
:10229000682F85ED96E008C8FF920F931F93CF93A8
:1022A000DF931F921F92CDB7DEB7082F10E0F80121
:1022B000EB50FB4F9081F62EF92204511B4FF80191
:1022C0009081F91609F12F2D30E03A832983A091EE
:1022D000B207B091B3071097A9F0682F6F706069CB
:1022E000ED91FC9111970190F081E02DCD011995B0
:1022F00022E030E0AE014F5F5F4F62E070E082EBC2
:1023000097E0C4DBF801F0820F900F90DF91CF913E
:102310001F910F91FF900895EF92FF920F931F93DB
:10232000CF93DF93C82F8091B2079091B3070097A6
:10233000C1F17A018B01DC01ED91FC910190F081FA
:10234000E02D60EF19958091B2079091B307DC0101
:10235000ED91FC910190F081E02D6C2F1995E70132
:102360000E0D1F1DC017D10751F020E030E0AE0167
:1023700061E070E082EB97E089DB2196F3CF8091FA
:10238000B2079091B307DC01ED91FC910190F081CF
:10239000E02D67EFDF91CF911F910F91FF90EF90AC
:1023A0001994DF91CF911F910F91FF90EF900895B5
:1023B000FC0101900020E9F73197BF01681B790B00
:1023C000AC0181E7A9CFCF93DF93FC01A081B1815C
:1023D000109701F1EC01ED91FC9111970190F081C2
:1023E000E02D69EFCD01199588819981DC01ED918E
:1023F000FC910190F081E02D62E01995888199812E
:10240000DC01ED91FC910190F081E02D65E0DF9120
:10241000CF911994DF91CF9108953091EB0431322F
:1024200008F04BC08091C7048111FCCF9091EA0461
:1024300022E02093C70421E02093C6042FEF2093CD
:10244000C5041092C4043093C304EAECF4E0A3EA98
:10245000B4E020E0321721F041914D932F5FFACF85
:102460001092A2042091A204990F922B9093A2049F
:102470009091A104913061F41092A1049091A20472
:102480009093BB009091BC0093FDF8CF95EC01C0F8
:1024900095EE9093BC009091C7049230E1F3909137
:1024A000C5049F3F79F08091C504803241F080914E
:1024B000C504803331F084E005C081E003C082E0D0
:1024C00001C083E01092C9041092EB041092C8047A
:1024D00008951F93CF93DF93182FEB018091B707D7
:1024E0009091B80768177907A8F0E091E407F09198
:1024F000E50781E03097C1F08093B4078091D00761
:102500009091D10719958091B7079091B807C81796
:10251000D90748F48091B5079091B607C80FD91F25
:10252000188380E001C081E0DF91CF911F91089571
:10253000AC01FB0180E090E09C01220F331F2417C7
:10254000350770F4DB012C91208311963C9137956F
:1025500033273795232B219301966E5F7F4FECCF66
:102560000895FC01A089B1898C91A689B78982FD63
:102570000FC09C91818D8F5F8F73228D821749F0E0
:10258000218DDF01A20FB11D5D969C93818F08956F
:102590008C910895CF93DF93282F30E0F901E65D09
:1025A000FD4F8491F901EC51FE4FD491F901E256AF
:1025B000FE4FC491CC2389F0811114DEEC2FF0E0A2
:1025C000EE0FFF1FEC57FE4FA591B491EC91ED2358
:1025D00081E090E021F480E002C080E090E0DF91B3
:1025E000CF9108951F93CF93DF93282F30E0F90107
:1025F000E65DFD4F8491F901EC51FE4FD491F90154
:10260000E256FE4FC491CC23B9F0162F8111EADDBA
:10261000EC2FF0E0EE0FFF1FE659FE4FA591B491AD
:102620009FB7F894111104C08C91D095D82302C0A3
:10263000EC91DE2BDC939FBFDF91CF911F9108952A
:10264000CF93DF9390E0FC01EC51FE4F2491FC010D
:10265000E256FE4F8491882361F190E0880F991F24
:10266000FC01E05BFE4FC591D491FC01E659FE4FA1
:10267000A591B491611109C09FB7F8948881209504
:1026800082238883EC912E230BC0623061F49FB7C4
:10269000F8948881322F309583238883EC912E2BF8
:1026A0002C939FBF06C08FB7F894E8812E2B288308
:1026B0008FBFDF91CF9108958230910538F0880F58
:1026C000991F880F991F05970197F1F708958F9229
:1026D0009F92AF92BF92CF92DF92EF92FF926B01E7
:1026E0007C012DD04B015C01C114D104E104F10443
:1026F000E9F025D0DC01CB0188199909AA09BB09A9
:10270000883E9340A105B10578F321E0C21AD108B3
:10271000E108F10888EE880E83E0981EA11CB11C28
:10272000C114D104E104F10421F7DECFFF90EF9052
:10273000DF90CF90BF90AF909F908F9008953FB75C
:10274000F8948091FA099091FB09A091FC09B0914D
:10275000FD0926B5A89B05C02F3F19F00196A11DC4
:10276000B11D3FBFBA2FA92F982F8827820F911D27
:10277000A11DB11DBC01CD0142E0660F771F881F6E
:10278000991F4A95D1F708951F920F920FB60F9295
:1027900011242F933F938F939F93AF93BF93809177
:1027A000F5099091F609A091F709B091F8093091D7
:1027B000F90923E0230F2D3720F40196A11DB11D47
:1027C00005C026E8230F0296A11DB11D2093F9092B
:1027D0008093F5099093F609A093F709B093F8094F
:1027E0008091FA099091FB09A091FC09B091FD0933
:1027F0000196A11DB11D8093FA099093FB09A09346
:10280000FC09B093FD09BF91AF919F918F913F91CA
:102810002F910F900FBE0F901F901895CF92DF92BF
:10282000EF92FF920F931F93E82FF92F05C00150ED
:1028300011092109310961F1908196239417B9F3A7
:1028400005C0015011092109310911F19081962328
:102850009413F7CFC12CD12CE12CF12C0AC08FEFAF
:10286000C81AD80AE80AF80A0C151D052E053F05F6
:1028700079F080818623841791F36C2D7D2D8E2D28
:102880009F2D1F910F91FF90EF90DF90CF900895B3
:1028900060E070E080E090E01F910F91FF90EF907A
:1028A000DF90CF900895CF93DF931F921F92CDB703
:1028B000DEB7789484B5826084BD84B5816084BDC0
:1028C00085B5826085BD85B5816085BD80916E00CE
:1028D000816080936E0010928100809181008260FF
:1028E000809381008091810081608093810080913C
:1028F00080008160809380008091B100846080932B
:10290000B1008091B00081608093B000809191000F
:10291000826080939100809191008160809391000A
:10292000809190008160809390008091A1008260EE
:102930008093A1008091A10081608093A10080918B
:10294000A00081608093A00080912101826080932B
:1029500021018091210181608093210180912001DA
:1029600081608093200180917A00846080937A0056
:1029700080917A00826080937A0080917A008160F1
:1029800080937A0080917A00806880937A00109218
:10299000C10083E18093F2078091F3079091F407DF
:1029A0000E94EB1D0091F20710E0C80101960E9401
:1029B000531D9093F4078093F307FC01E00FF11F80
:1029C000108262E0F62EDC01FC9225E011962C9339
:1029D000A8014250510963E672E002960E94781EF7
:1029E00089E192E0909311038093100386E991E0CE
:1029F00090930F0380930E0383E791E090930D0370
:102A000080930C038BE691E090930B0380930A0371
:102A10008DE993E090930903809308038FE495E098
:102A2000909313038093120385EC9BE0909315031E
:102A300080931403E091E506F091E606F082E091C0
:102A4000E106F091E2061082E091E306F091E406DF
:102A500080E180831092ED06E091E906F091EA06AC
:102A600086E08083E091E706F091E806808180614E
:102A70008083E091E706F091E8068081886080839A
:102A8000E091E706F091E806808180688083E0911C
:102A9000E706F091E80680818F7D80838091C708EA
:102AA000811135C061E08DE0CBDD10E062ED70E0BA
:102AB00080E090E00CDE61E08DE094DD68E270E0A3
:102AC00080E090E004DE60E08DE08CDD1F5F12307E
:102AD00069F76AEF70E080E090E0F9DD10E062ED08
:102AE00070E080E090E0F3DD61E08DE07BDD68E2A6
:102AF00070E080E090E0EBDD60E08DE073DD1F5F73
:102B0000153069F76DE770E080E090E0E0DD85ED7D
:102B100096E09093F1078093F0079093B30780932A
:102B2000B20782EB97E04FDC82E797E055D80E942E
:102B3000C50B01E042E0E42EF12CCC24C394D12C4F
:102B400080911603882381F1B090F504B2FEEBC4A6
:102B500082E020DD892B09F4E6C414E0B3FE05C051
:102B600083E018DD892B09F0E0C4B4FE05C084E0E1
:102B700011DD892B09F0DBC4B5FE05C085E00ADD57
:102B8000892B09F0D6C4B6FE05C086E003DD892B8B
:102B900009F0D1C4B7FE05C087E0FCDC892B09F041
:102BA000CCC4612F80E078DB80911703882309F47F
:102BB0003EC0B090F604B0FEC2C488E0EBDC892BC6
:102BC00009F4BDC411E0B1FE05C089E0E3DC892B46
:102BD00009F0B7C4B2FE05C08AE0DCDC892B09F03D
:102BE000B2C4B3FE05C08BE0D5DC892B09F0ADC4BF
:102BF000B4FE05C08CE0CEDC892B09F0A8C4B5FE7C
:102C000005C08DE0C7DC892B09F0A3C4B6FE05C062
:102C10008EE0C0DC892B09F09EC4B7FE05C08FE0B2
:102C2000B9DC892B09F099C4612F81E035DB8091F3
:102C30001803882309F43EC0B090F704B0FE8FC497
:102C400080E1A8DC892B09F48AC411E0B1FE05C03B
:102C500081E1A0DC892B09F084C4B2FE05C082E1C9
:102C600099DC892B09F07FC4B3FE05C083E192DCB7
:102C7000892B09F07AC4B4FE05C084E18BDC892B72
:102C800009F075C4B5FE05C085E184DC892B09F027
:102C900070C4B6FE05C086E17DDC892B09F06BC4EB
:102CA000B7FE05C087E176DC892B09F066C4612F89
:102CB00082E0F2DA80911903882309F43EC0B090D3
:102CC000F804B0FE5CC488E165DC892B09F457C4C4
:102CD00011E0B1FE05C089E15DDC892B09F051C42A
:102CE000B2FE05C08AE156DC892B09F04CC4B3FE64
:102CF00005C08BE14FDC892B09F047C4B4FE05C049
:102D00008CE148DC892B09F042C4B5FE05C08DE199
:102D100041DC892B09F03DC4B6FE05C08EE13ADCEA
:102D2000892B09F038C4B7FE05C08FE133DC892B4D
:102D300009F033C4612F83E0AFDA80911A0388234E
:102D400009F43EC0B090F904B0FE29C480E222DC50
:102D5000892B09F424C411E0B1FE05C081E21ADC1C
:102D6000892B09F01EC4B2FE05C082E213DC892B58
:102D700009F019C4B3FE05C083E20CDC892B09F00D
:102D800014C4B4FE05C084E205DC892B09F00FC42D
:102D9000B5FE05C085E2FEDB892B09F00AC4B6FE4C
:102DA00005C086E2F7DB892B09F005C4B7FE05C034
:102DB00087E2F0DB892B09F000C4612F84E06CDA34
:102DC00080911B03882309F43EC0B090FA04B0FE42
:102DD000F6C388E2DFDB892B09F4F1C311E0B1FE11
:102DE00005C089E2D7DB892B09F0EBC3B2FE05C031
:102DF0008AE2D0DB892B09F0E6C3B3FE05C08BE283
:102E0000C9DB892B09F0E1C3B4FE05C08CE2C2DB4B
:102E1000892B09F0DCC3B5FE05C08DE2BBDB892B35
:102E200009F0D7C3B6FE05C08EE2B4DB892B09F0EA
:102E3000D2C3B7FE05C08FE2ADDB892B09F0CDC34D
:102E4000612F85E029DA80911C03882309F43EC0B4
:102E5000B090FB04B0FEC3C380E39CDB892B09F474
:102E6000BEC311E0B1FE05C081E394DB892B09F0FC
:102E7000B8C3B2FE05C082E38DDB892B09F0B3C372
:102E8000B3FE05C083E386DB892B09F0AEC3B4FE35
:102E900005C084E37FDB892B09F0A9C3B5FE05C01B
:102EA00085E378DB892B09F0A4C3B6FE05C086E371
:102EB00071DB892B09F09FC3B7FE05C087E36ADB8E
:102EC000892B09F09AC3612F86E0E6D980911D0312
:102ED000882309F43EC0B090FC04B0FE90C388E3A0
:102EE00059DB892B09F48BC311E0B1FE05C089E3DE
:102EF00051DB892B09F085C3B2FE05C08AE34ADBAA
:102F0000892B09F080C3B3FE05C08BE343DB892B1B
:102F100009F07BC3B4FE05C08CE33CDB892B09F0D0
:102F200076C3B5FE05C08DE335DB892B09F071C38F
:102F3000B6FE05C08EE32EDB892B09F06CC3B7FE0D
:102F400005C08FE327DB892B09F067C3612F87E07A
:102F5000A3D980911E03882381F1B090FD04B0FEB7
:102F60005EC380E417DB892B09F459C311E0B1FE7D
:102F700005C081E40FDB892B09F053C3B2FE05C005
:102F800082E408DB892B09F04EC3B3FE05C083E45D
:102F900001DB892B09F049C3B4FE05C084E4FADAE9
:102FA000892B09F044C3B5FE05C085E4F3DA892B0B
:102FB00009F03FC3612F88E06FD98091F0079091AD
:102FC000F107DC01ED91FC910084F185E02D19956C
:102FD000892B09F4C8C18091F0079091F107DC01B9
:102FE000ED91FC910284F385E02D19959C018F3FB2
:102FF000BFEF9B0711F3982F8091BD07882309F439
:103000008DC0973F09F07AC01092BD07A091B50717
:10301000B091B6076C916137B1F1693709F058C0CA
:10302000E091EA07F091EB07309739F28091BE0703
:103030009091BF078330910538F420E030E040E004
:1030400050E060E070E019C0BD016D5F7F4F0397F5
:103050006FDABC016D5F7F4F80E03BDAE091B5072E
:10306000F091B6079F012D5F3F4F428150E0618193
:1030700070E0E091EA07F091EB078091CC07909126
:10308000CD0719959ACF8091E6079091E707892B94
:1030900009F493CFBD016F5F7F4F8091BE07909180
:1030A000BF07019745DABC016F5F7F4F80E011DAFF
:1030B0006091B5077091B6076F5F7F4FE091E607AB
:1030C000F091E7078091D2079091D307199575CFBA
:1030D000E091E807F091E907309709F46ECF9D0180
:1030E0002F5F3F4F4091BE075091BF07415051099C
:1030F0008091D4079091D50719955FCF6091BE0755
:103100007091BF07822FE5D98091BE079091BF07CC
:1031100001969093BF078093BE074FCF6091BB0786
:103120007091BC076115710509F4AEC027FDACC0F4
:10313000615071097093BC076093BB07822FC9D996
:103140008091BB079091BC07892B09F036CF809105
:10315000B907882309F431CF803D09F47FC030F4EA
:10316000803939F1803C09F466C08BC0843FE1F1BD
:10317000853F09F44DC0803E09F083C0E091D80737
:10318000F091D907309709F47CC0A091B507B091B0
:10319000B6078C9111964C9150E090E8899F400DB4
:1031A000511D11246091BA078091C0079091C10709
:1031B00067C0E091DA07F091DB07309709F461C04E
:1031C000A091B507B091B6078C9111964C9150E043
:1031D000A0E88A9F400D511D11246091BA0780918B
:1031E000C2079091C3074CC0E091E007F091E1075E
:1031F000309709F446C0A091B507B091B6074C913D
:1032000050E011966C918091C8079091C90738C021
:10321000E091E207F091E307309799F1A091B507AB
:10322000B091B6074C9150E011966C918091CA070D
:103230009091CB0725C0E091DC07F091DD07309736
:1032400001F1A091B507B091B6074C9150E06091A3
:10325000BA078091C4079091C50712C0E091DE07BC
:10326000F091DF07309769F0A091B507B091B607EC
:103270004C9150E06091BA078091C6079091C707C2
:1032800019951092B90799CE903F30F4822F8F7024
:103290008093BA07922F907F903F79F158F4903C39
:1032A00029F118F49039E9F088CE903DF9F0903E7C
:1032B000C1F083CE993F09F449C028F48CE0890F0E
:1032C000823078F07ACE9F3F09F077CE1092BC071B
:1032D0001092BB071092B9071092BA0780E090E0F5
:1032E00013C0F092BC07E092BB0704C0D092BC07A9
:1032F000C092BB079093B90760CE0093BD071092B0
:10330000BF071092BE0759CE2091B7073091B8077A
:103310008217930748F4E091B507F091B607E80FDC
:10332000F91F10820196F0CF1092BD071092BF07CF
:103330001092BE07E091EE07F091EF07309709F485
:103340003CCE8091D6079091D7070BC0E091EC0757
:10335000F091ED07309709F430CE8091CE0790912F
:10336000CF0719952ACE8FB7F8944091F50950915F
:10337000F6096091F7097091F8098FBF80907F037B
:1033800090908003A0908103B0908203209101026D
:1033900030910202C901330FAA0BBB0B481959091E
:1033A0006A097B0984179507A607B70708F0B8C014
:1033B000880D991DAA1DBB1D80937F0390938003E8
:1033C000A0938103B093820339E3A32E33E0B32E9D
:1033D0001AEC103108F07FC0F5018081823009F0CD
:1033E0007AC08091370390913803012E02C09595E1
:1033F00087950A94E2F780FF6EC080917B00877FFB
:10340000912F987F892B80937B00812F8770806418
:1034100080937C0080917A00806480937A00809110
:103420007A0086FDFCCF209178008091790030E011
:10343000382B3A8329838091B2079091B307009784
:1034400009F449C0DC01ED91FC910190F081E02D7F
:103450002115304478F4612F606E199522E030E038
:10346000AE014F5F5F4F62E070E082EB97E00E9439
:10347000460D31C060EF19958091B2079091B30766
:10348000DC01ED91FC910190F081E02D6FE6199542
:103490008091B2079091B307DC01ED91FC9101900E
:1034A000F081E02D612F199522E030E0AE014F5FF1
:1034B0005F4F62E070E082EB97E00E94460D8091E2
:1034C000B2079091B307DC01ED91FC910190F0817E
:1034D000E02D67EF19951F5FBFEFAB1ABB0A1031E4
:1034E00009F077CF8091000287FD1AC010E0E12F2C
:1034F000F0E080910002082E000C990B8E179F07B8
:103500007CF0CF01880F991FE80FF91FE15EFC4F97
:10351000618170E0428180810E94AF041F5FE7CF2C
:103520000E94C1090DCB10E019CB18601ECB1061B1
:1035300023CB106228CB10642DCB106832CB10E067
:1035400042CB126047CB14604CCB186051CB10615A
:1035500056CB10625BCB106460CB106865CB10E07B
:1035600075CB12607ACB14607FCB186084CB10616E
:1035700089CB10628ECB106493CB106898CB10E08F
:10358000A8CB1260ADCB1460B2CB1860B7CB106182
:10359000BCCB1062C1CB1064C6CB1068CBCB10E0A3
:1035A000DBCB1260E0CB1460E5CB1860EACB106196
:1035B000EFCB1062F4CB1064F9CB1068FECB10E0B7
:1035C0000ECC126013CC146018CC18601DCC1061A6
:1035D00022CC106227CC10642CCC106831CC10E0C7
:1035E00041CC126046CC14604BCC186050CC1061BA
:1035F00055CC10625ACC10645FCC106864CC10E0DB
:1036000074CC126079CC14607ECC186083CC1061CD
:1036100088CC10628DCC106492CC106897CC10E0EE
:10362000A6CC1260ABCC1460B0CC1860B5CC1061E5
:10363000BACC1062BFCC109201051092000588EE42
:1036400093E0A0E0B0E08093020590930305A0937F
:103650000405B09305052DE032E03093FF0420937C
:10366000FE0445E351E050930B0540930A0544E303
:1036700051E050930D0540930C0540E351E0509309
:103680000F0540930E0541E351E05093110540931F
:10369000100542E351E0509313054093120546E3B1
:1036A00051E05093150540931405109217051092A0
:1036B00018051092190510921A0510929E05109285
:1036C0009D0580939F059093A005A093A105B093BD
:1036D000A20530939C0520939B0545ED50E0509347
:1036E000A8054093A70544ED50E05093AA054093E8
:1036F000A90540ED50E05093AC054093AB0541ED7A
:1037000050E05093AE054093AD0542ED50E050932C
:10371000B0054093AF0546ED50E05093B20540939D
:10372000B1051092B4051092B5051092B60510922D
:10373000B70510923B0610923A0680933C06909390
:103740003D06A0933E06B0933F0630933906209382
:1037500038064DEC50E050934506409344064CEC3F
:1037600050E0509347064093460648EC50E0509393
:1037700049064093480649EC50E050934B0640936D
:103780004A064AEC50E050934D0640934C064EECEE
:1037900050E050934F0640934E06109251061092FF
:1037A000520610925306109254061092D8061092A8
:1037B000D7068093D9069093DA06A093DB06B093E0
:1037C000DC063093D6062093D50625EC30E0309306
:1037D000E2062093E10624EC30E03093E4062093E7
:1037E000E30620EC30E03093E6062093E50621EC7A
:1037F00030E03093E8062093E70622EC30E0309387
:10380000EA062093E90626EC30E03093EC0620939C
:10381000EB061092EE061092EF061092F006109250
:10382000F10622E737E01092B3071092B207309307
:10383000B6072093B50740E450E05093B807409393
:10384000B7071092B9071092BA071092BC071092EE
:10385000BB071092BD071092BF071092BE071092CF
:10386000C1071092C0071092C3071092C2071092AE
:10387000C5071092C4071092C7071092C60710928E
:10388000C9071092C8071092CB071092CA0710926E
:10389000D1071092D0071092D3071092D20710923E
:1038A000D5071092D4071092D7071092D60710921E
:1038B000E5071092E4071092B4071092F2071092F5
:1038C000F4071092F3071092C70840E35AE05093B0
:1038D000D9074093D80746E25AE05093DB0740935C
:1038E000DA0748E05AE05093DD074093DC074EEFDB
:1038F00059E05093DF074093DE074CE15AE05093C4
:10390000E1074093E00742E15AE05093E307409318
:10391000E2074DEF59E05093E7074093E60742EF87
:1039200059E05093E9074093E8074EE55EE0509375
:10393000EB074093EA073093CD072093CC074AEF7B
:103940005AE05093ED074093EC073093CF07209354
:10395000CE072AEE39E03093EF072093EE0710925E
:10396000CB081092CA088093CC089093CD08A093FE
:10397000CE08B093CF088FE192E09093C90880936E
:10398000C80880916409A5E6B9E09FEF48EB5BE0C9
:10399000803378F48C93282F30E0F901EE0FFF1F6D
:1039A0002E0F3F1FF901EC52F74F528341838F5F77
:1039B00001C09C93139629E0A53FB20749F7809375
:1039C00064090895052E97FB16F400940FD057FD57
:1039D00005D024D007FC02D046F408C0509540958D
:1039E000309521953F4F4F4F5F4F089590958095AB
:1039F000709561957F4F8F4F9F4F089531D0A59F50
:103A0000900DB49F900DA49F800D911D11240895D9
:103A1000B7FFF4CFF3DF821B930B0895A1E21A2EB8
:103A2000AA1BBB1BFD010DC0AA1FBB1FEE1FFF1F62
:103A3000A217B307E407F50720F0A21BB30BE40BB2
:103A4000F50B661F771F881F991F1A9469F76095F9
:103A50007095809590959B01AC01BD01CF010895B3
:103A6000A29FB001B39FC001A39F700D811D1124BF
:103A7000911DB29F700D811D1124911D0895991BF8
:103A800079E004C0991F961708F0961B881F7A9555
:103A9000C9F780950895EE0FFF1F881F8BBF079011
:103AA000F691E02D19940F931F93CF93DF938230FB
:103AB000910510F482E090E0E091000AF091010A93
:103AC00020E030E0A0E0B0E0309719F14081518172
:103AD0000281138148175907C8F08417950769F4C4
:103AE000109731F012960C93129713961C9327C0DF
:103AF0000093000A1093010A22C02115310519F024
:103B00004217530718F49A01BD01EF01DF01F801D4
:103B1000DBCF21153105F9F0281B390B2430310595
:103B200080F48A819B816115710521F0FB019383EB
:103B3000828304C09093010A8093000AFE013296AA
:103B400044C0FE01E20FF31F81939193225031098B
:103B5000398328833AC02091FE093091FF09232B35
:103B600041F420910502309106023093FF09209321
:103B7000FE0920910302309104022115310541F420
:103B80002DB73EB74091070250910802241B350B18
:103B9000E091FE09F091FF09E217F307A0F42E1B54
:103BA0003F0B2817390778F0AC014E5F5F4F2417A1
:103BB000350748F04E0F5F1F5093FF094093FE09F1
:103BC0008193919302C0E0E0F0E0CF01DF91CF91CB
:103BD0001F910F910895CF93DF93009709F481C04F
:103BE000FC01329713821282A091000AB091010A5F
:103BF000109781F420813181820F931F2091FE095B
:103C00003091FF092817390751F5F093FF09E09328
:103C1000FE0967C0ED0120E030E0CE17DF0740F479
:103C20004A815B819E0141155105F1F0EA01F5CF12
:103C3000D383C28340815181840F951FC817D90750
:103C400059F488819981840F951F0296918380830E
:103C50008A819B81938382832115310529F4F09316
:103C6000010AE093000A3DC0E901FB83EA83499120
:103C70005991C40FD51FEC17FD0761F48081918124
:103C8000840F951F0296E90199838883828193812D
:103C90009B838A83E0E0F0E012968D919C911397CC
:103CA000009719F0FD01DC01F7CF8D919C911197E0
:103CB0009D012E5F3F4F820F931F2091FE0930918F
:103CC000FF092817390769F4309729F41092010A7F
:103CD0001092000A02C013821282B093FF09A093CF
:103CE000FE09DF91CF91089581E090E0F8940FC034
:103CF000FB01DC014150504048F001900D92002042
:103D0000C9F701C01D9241505040E0F70895F89462
:023D1000FFCFE3
:103D1200FF13000000020A8000000000005409A7FF
:103D220008D108A0090209E008F40800000000C652
:103D32000A9A0AF50A6E0A920A7E0A6F0A443A5CE5
:103D42004B697474656E626C6F636B5C65787465E5
:103D52006E73696F6E735C73336578742D61726410
:103D620075696E6F5C6B626C6F636B6669726D61B5
:103D720074615C6B626C6F636B6669726D617461B6
:103D82002E696E6F00556E6B6E6F776E2070696E66
:103D9200206D6F646500493243205265616420459D
:103DA20072726F723A20546F6F206D616E79206269
:103DB200797465732072656365697665640049325A
:103DC200432052656164204572726F723A20546FCB
:103DD2006F2066657720627974657320726563650A
:103DE200697665640031302D6269742061646472A1
:103DF200657373696E67206E6F7420737570706F70
:103E02007274656400746F6F206D616E79207175D4
:063E120065726965730092
:00000001FF
