:100000000C9474000C949C000C949C000C94D80CE0
:100010000C94D80C0C94D80C0C949C000C949C0060
:100020000C949C000C949C000C949C000C94AE0FBF
:100030000C949C000C949C000C949C000C949C00D0
:100040000C947B080C949C000C94EB080C94C50851
:100050000C949C000C949C000C949C000C949C00B0
:100060000C94000E0C949C0073067007C405700776
:1000700028067007A1054A0570077007700770070A
:100080008B0638047007F40470078B05000000002D
:1000900023002600290000000000240027002A0079
:1000A00000000000250028002B00040404040404C0
:1000B0000404020202020202030303030303010217
:1000C00004081020408001020408102001020408E6
:1000D00010200000000800020100000304070000D7
:1000E000000000000000C11411241FBECFEFD8E0B3
:1000F000DEBFCDBF12E0A0E0B1E0E0E0FFE202C071
:1001000005900D92A630B107D9F725E0A6E0B2E040
:1001100001C01D92A231B207E1F710E0C4E7D0E0C0
:1001200004C02197FE010E944316C337D107C9F7C7
:100130000E94B4100C947E170C940000833028F4B5
:10014000E82FF0E0E05AFD4F60830895863000F517
:1001500040917B0250917C0221E030E0672B61F4FA
:10016000B90102C0660F771F8A95E2F7CB0180952F
:1001700090958423952308C002C0220F331F8A95CF
:10018000E2F7CA01822B932B90937C0280937B022F
:1001900008950F931F93CF93DF93833008F067C0C8
:1001A000582F550F550F550F585F553108F054E132
:1001B000482F440F440F440F90E0A1E0EB01DD27EE
:1001C000451708F52EEF240F2231D0F4242F30E00C
:1001D000F901E358FD4FE081E23090F49A2B220FB1
:1001E000331FF901EA5DFD4F2A2F30E02C233D2318
:1001F00001E010E0232B11F400E010E011830083F4
:10020000AA0F4F5FDDCF811108C0F8948BB168272A
:100210006C7F962398279BB929C08130D1F4292F70
:100220002623F89435B1892F8F7380958323322F3D
:100230003F73832B85B988B1929596959695937067
:1002400090959823622F6295669566956370692BE9
:100250000CC09F70F89428B1892F880F880F809563
:1002600082236923660F660F682B68B97894DF9143
:10027000CF911F910F9108958F929F92AF92BF924D
:10028000CF92DF92EF92FF920F931F93CF93DF9362
:10029000EB01843108F009C1082F10E0F801E358A0
:1002A000FD4F9081933009F495C0943009F0FDC062
:1002B00082508C3008F086C0780182E0E81AF1089C
:1002C0006701CC0CDD1C603282E078070CF042C084
:1002D00077FD05C0653B710524F4DB0104C0A0E097
:1002E00001C0A4EBB0E0F601EE0DFF1DE358FB4F9B
:1002F000818128E830E04901881A910887FD9394AC
:10030000880C991C880C991C092C000CAA08BB08A5
:10031000828128E532E0281B310987FD3395220FC1
:10032000331F220F331FA901330F660B770B9A017E
:10033000AB01281939094A095B090E94FE1524EB13
:1003400030E040E050E00E94D415820E931EA41EBF
:10035000B51E01C04B01F601EE0DFF1DE358FB4F2A
:1003600020812C3078F5318188E890E0831B910959
:1003700037FD9395880F991F880F991F8816990646
:1003800084F0828148E552E0481B510987FD53956E
:10039000440F551F440F551FC401481559050CF44F
:1003A000CA010297880F991F4FB7F89430E0F901FE
:1003B000EE0FFF1F2E0F3F1FF901E85AFB4F9283EC
:1003C00081834FBF000F111FF801EA5DFD4FD183FC
:1003D000C0836BC07B01D82F833049F08BEF800F37
:1003E000823028F087EF800F833008F057C061E03B
:1003F0008D2F0E94D60AE114F10411F460E005C0CB
:100400008FEFE816F10429F461E08D2F0E94890A2C
:1004100045C0F801EE52FF4FE491E330F9F048F4A3
:10042000E130B9F0E230A1F584B5806284BDE8BC6A
:1004300035C0E730E9F0E83019F1E43049F5809152
:100440008000806280938000F0928B00E0928A00AE
:1004500025C084B5806884BDE7BC20C08091800041
:10046000806880938000F0928900E092880016C036
:100470008091B00080688093B000E092B3000EC01D
:100480008091B00080628093B000E092B40006C01A
:1004900080E8E816F1040CF0B7CFB0CF000F111FC1
:1004A000F801EA5DFD4FF182E082DF91CF911F916B
:1004B0000F91FF90EF90DF90CF90BF90AF909F9003
:1004C0008F900895BF92CF92DF92EF92FF920F9399
:1004D0001F93CF93DF93C82F8B01C82ED12CC60159
:1004E00083589D4F7C01FC018081863061F48091AE
:1004F000A104882341F06630710529F01092A1040F
:100500008FEF80930001DEEFDC0FDC30C8F40430A5
:100510001105B1F0C6010297FC01EE0FFF1F8E0F0F
:100520009F1FFC01E358FB4FE081F0E0CF01880FF3
:10053000991FE80FF91FE85AFB4F808186FDCCC058
:1005400072EFB72EBC0EF5E0FB1550F061E070E0E5
:100550000230110511F060E070E08B2D0E94A600C2
:10056000D231C8F4EC2FE695E695E6952C2F27704E
:10057000F0E0E451FD4F81E090E001C0880F2A9542
:10058000EAF70115110519F49081892B03C08095B4
:10059000908189238083F601EE0FFF1FEA5DFD4FF6
:1005A000118210820230110591F03CF40115110501
:1005B000F1F00130110549F182C00430110509F450
:1005C0004AC084F10630110509F472C078C085E094
:1005D0008B1508F484C0D23140F460E08C2F0E9467
:1005E000D60A60E08C2F0E94890A82E065C0D23171
:1005F00008F075C060E08C2F0E94D60A60E08C2F56
:100600000E94890AF70110826AC0D23108F067C0DF
:1006100060E08C2F0E94890A61E08C2F0E94D60A2C
:1006200081E04AC0C33049F08BEF8C0F823028F054
:1006300087EF8C0F833008F052C061E08C2F0E944E
:10064000D60A61E08C2F0E94D60A60E08C2F0E94AF
:10065000890A83E031C0DC3008F041C084E0F70152
:100660008083C60102979C01220F331F820F931FC4
:1006700083589B4FFC01208130E0F901EE0FFF1FF2
:100680002E0F3F1FF901E85AFB4F208126FD27C09E
:1006900020E639E040E252E0B601DF91CF911F91B0
:1006A0000F91FF90EF90DF90CF90BF900C942E0FA2
:1006B000C251C230A0F486E0F701808310C08DE201
:1006C00091E0DF91CF911F910F91FF90EF90DF901C
:1006D000CF90BF900C94AF098F7B808331CFDF9197
:1006E000CF911F910F91FF90EF90DF90CF90BF902F
:1006F0000895EF92FF920F931F93CF93DF93D82F1C
:100700008B01C42F6F3F8FEF7807B1F081E08093AA
:10071000C502D093E7021092C6021092E8028CE460
:1007200094E00E944A0C0E94E50980914E0290914B
:100730004F020E94120B02C000E010E08091C40240
:100740008111FCCF9C2FC13208F090E281E08093B0
:10075000C4028093C3022FEF2093C2021092C10201
:10076000290F2093C00280939F0280919F022D2F1A
:10077000220F822B80939F0280919E02813061F430
:1007800010929E0280919F028093BB008091BC00DA
:1007900083FDF8CF85EC01C085EE8093BC0080918D
:1007A000C4028130E1F38091C102891710F4909165
:1007B000C102E0EAF2E0A2EAB4E080E0891721F0A9
:1007C00021912D938F5FFACF1092C3048093C204BE
:1007D000EC2EF12C90E0E816F906A9F4D09306026D
:1007E0000093070206E012E0C801865092408E1581
:1007F0009F059CF48CE494E00E94010CF801828334
:100800000F5F1F4FF1CF8E159F051CF48EE391E013
:1008100002C086E691E00E94AF09CE5F6C2F70E0C7
:1008200046E052E087E7DF91CF911F910F91FF9053
:10083000EF900C9462098F929F92AF92BF92EF92C9
:10084000FF920F931F93CF93DF9300D000D01F929E
:10085000CDB7DEB790E0FC01E956F109E231F105D0
:1008600008F03EC37A01162FEC5CFF4F0C94431640
:10087000DA0111968C91382F387185FF03C08DE80D
:1008800091E057C0FA018081383061F168F431118C
:1008900027C391E09093C5028093E7021092C602AD
:1008A0001092E80202E006C03031E1F0383109F47C
:1008B00054C016C3011778F4F701E00FF11D6181F0
:1008C0006795662767958081680F8CE494E00E94A5
:1008D0004A0C0E5FEFCF0E94E50983E191E001979A
:1008E000F1F7FEC2D70113969C91139712966C9163
:1008F0001297979599279795163061F4690F159679
:100900009C91159797959927979514962C91492F17
:10091000420F03C0492F460F6FEF383021F470E0CB
:100920000E947903DDC2E0910001E7302CF08DEAEE
:1009300091E00E94AF09D4C2EF5FE09300010E2E58
:10094000000CFF0B9F01220F331FE20FF31FED5925
:10095000FD4F808361834283C3C23091000113162F
:1009600034F420E0632F032E000C770B10C08FEFC0
:1009700080930001B5C2FA01EE0FFF1F4E0F5F1FFB
:10098000FA01ED59FD4F9081891729F12F5F422F10
:1009900050E0641775077CF720E01DC02830D0F4C4
:1009A000DC011196AD01440F551FA40FB51FAD59C1
:1009B000BD4F4C91FC01EE0FFF1F8E0F9F1FFC01DE
:1009C000ED59FD4F408311968C91119781831296BA
:1009D0008C9182832F5F822F90E068177907F4F65D
:1009E0003150309300017CC2FA012181808190E076
:1009F000F0E82F9F800D911D1124009721F0909316
:100A00004F0280934E028091A104811169C210E0CF
:100A10008EEE810F823028F466E070E0812F0E9414
:100A200062021F5F1431A1F781E08093A10410924C
:100A3000C3041092C2041092C6021092E8021092EF
:100A4000C4028093C30210929E0261E082E10E9480
:100A5000890A61E083E10E94890A8091B9008E7F52
:100A60008093B9008091B9008D7F8093B90088E4AC
:100A70008093B80085E48093BC008FEE9BE0909358
:100A8000C5048093C40480EF9BE09093C7048093D7
:100A9000C60426C2653008F423C2DA011C918EEF29
:100AA000810F8C3008F01CC211964C911197129650
:100AB000AC91F70123815481612F70E0CB01029743
:100AC000FC01EE0FFF1F8E0F9F1F83589B4FFC01F1
:100AD0003081E32FF0E07F01EE0CFF1CEE0DFF1DD7
:100AE000E85AFB4F308136FF02C03F7B308330E055
:100AF000F0E85F9F200D311D112450E0B0E8AB9F5E
:100B0000400D511D11240E942E0F64E070E0812FD2
:100B10000E946202E5C1623008F4E2C1FA0121815B
:100B2000808190E0F0E82F9F800D911D11248A3084
:100B3000910514F48AE090E0909302018093010102
:100B4000CFC1623008F4CCC1DA0111966C911197D3
:100B500070E01230A1F012968C91B0E88B9FC0012A
:100B60001124682B792B133051F0FA01838190E026
:100B700090E4899F902D88271124682B792BD70129
:100B80008C910E943C01ACC180EF90E00E941D0955
:100B90008CE690E00E941D091EEF84EF810F8630E5
:100BA00048F482E090E00E941D098AE090E00E94F3
:100BB0001D090BC0113049F483E090E00E941D092B
:100BC00088E090E00E941D0908C08DEF810F8230FF
:100BD00098F389EF810F833078F31C3040F484E080
:100BE00090E00E941D098EE090E00E941D0980EFB8
:100BF000810F823040F486E090E00E941D0981E080
:100C000090E00E941D098FE790E00E941D091F5F80
:100C1000123191F1123108F660E08FEE92E00E94FD
:100C2000E70781E090E00E941D0961E08FEE92E00D
:100C30000E94E70781E090E00E941D0965E78FEEC2
:100C400092E00E94E70781E090E00E941D09A5CF95
:100C5000662309F445C1FA01008180EF90E00E940B
:100C60001D098EE690E00E941D09602F8FEE92E034
:100C70000E94E707043128F087EF90E00E941D09E9
:100C80002FC110E0F801E358FD4F60818FEE92E034
:100C90000E94E707000F111FF801EA5DFD4F008178
:100CA0001181C8018F7799270E941D09C80180789A
:100CB000892B49F0C801880F892F881F990B8F77DE
:100CC00099270E941D09C8018827907C892BA1F2D1
:100CD000C801990F880B990F982F881F8F77992734
:100CE0000E941D09C9CF80EF90E00E941D098AE68D
:100CF00090E00E941D0902EF1FEF063010F4C801BA
:100D000002C08FE790E00E941D090F5F1F4F063061
:100D1000110599F7B1CFDA0113969C9113971296AA
:100D20008C9190FB87F990E0A0E0B0E0782F6627E7
:100D300055274427F7018581948180FB97F9892FF6
:100D400090E0A0E0B0E0DC0199278827840F951F90
:100D5000A61FB71F3185208530FB27F9820F911D13
:100D6000A11DB11D2781868020FB87F8912CA12C25
:100D7000B12CBA2CA92C982C8824880E991EAA1E56
:100D8000BB1E818161E08130C1F480810E94D60A5E
:100D900060E0D7018C910E94890A83E090E001977E
:100DA000F1F761E0F70180810E94890AC4010E9485
:100DB000120B60E0D7018C9113C0F70180810E9473
:100DC000890A83E090E00197F1F760E0D7018C9108
:100DD0000E94890AC4010E94120B61E0F701808120
:100DE0000E94890AD7011B968C911B971A968C90AA
:100DF0001A9780FB87F8912CA12CB12CB82CAA242F
:100E0000992488241D968C911D971C969C9180FB9B
:100E100097F9892F90E0A0E0B0E0DC0199278827BE
:100E2000880E991EAA1EBB1EF7019189808990FB2E
:100E300087F9A5019401280F311D411D511DDA01CB
:100E4000C9012785868420FB87F8912CA12CB12C21
:100E5000BA2CA92C982C8824880E991EAA1EBB1E79
:100E600060E080810E94D60AD7018C9190E0FC015D
:100E7000E254FF4F6491FC01E655FF4FE491119657
:100E80008C91882311F0462F01C040E0F0E0EE0F76
:100E9000FF1FE457FF4F85919491950184013F70A6
:100EA0000E946F10611571058105910539F0DC0113
:100EB000CB010196A11DB11DBF7003C080E090E081
:100EC000DC01F70120812983BA83AB839C838D8366
:100ED000AE014F5F5F4F65E070E085E70E946209F9
:100EE0000F900F900F900F900F90DF91CF911F9167
:100EF0000F91FF90EF90BF90AF909F908F900895CB
:100F0000CF92DF92EF92FF920F931F93CF93DF93D5
:100F10006C017A018B01C0E0D0E0CE15DF0581F0D5
:100F2000D8016D918D01D601ED91FC910190F08178
:100F3000E02DC6010995892B11F02196EECF7E0197
:100F4000C701DF91CF911F910F91FF90EF90DF903C
:100F5000CF900895FC01538D448D252F30E0842FD0
:100F600090E0821B930B541710F0CF9608950197D1
:100F70000895FC01918D828D981761F0828DDF01BB
:100F8000A80FB11D5D968C91928D9F5F9F73928F7C
:100F900090E008958FEF9FEF0895FC01918D828D71
:100FA000981731F0828DE80FF11D858D90E008953E
:100FB0008FEF9FEF08950E946A178FEE92E00E94D4
:100FC000570B21E0892B09F420E0822F0895EF923E
:100FD000FF920F931F93CF93DF93EC0181E0888FF3
:100FE0009B8D8C8D981305C0E889F989808185FDDA
:100FF00026C0F62E0B8D10E00F5F1F4F0F731127C9
:10100000E02E8C8DE8120CC00FB607FCFACFE889F1
:10101000F989808185FFF5CFCE010E94B60CF1CF12
:101020008B8DFE01E80FF11DE35AFF4FF0829FB751
:10103000F8940B8FEA89FB89808180620AC09FB790
:10104000F894EE89FF896083E889F989808183704B
:10105000806480839FBF81E090E0DF91CF911F91FA
:101060000F91FF90EF900895CF93DF93EC01888D5F
:101070008823C9F0EA89FB89808185FD05C0A8899C
:10108000B9898C9186FD0FC00FB607FCF5CF808122
:1010900085FFF2CFA889B9898C9185FFEDCFCE016C
:1010A0000E94B60CE7CFDF91CF9108953FB7F89437
:1010B00080919A0290919B02A0919C02B0919D0216
:1010C00026B5A89B05C02F3F19F00196A11DB11DA3
:1010D0003FBFBA2FA92F982F8827820F911DA11DDE
:1010E000B11DBC01CD0142E0660F771F881F991F1B
:1010F0004A95D1F708951F920F920FB60F921124BF
:101100002F933F938F939F93AF93BF9380919602BA
:1011100090919702A0919802B09199023091950216
:1011200023E0230F2D3720F40196A11DB11D05C02A
:1011300026E8230F0296A11DB11D209395028093EE
:10114000960290939702A0939802B093990280918F
:101150009A0290919B02A0919C02B0919D020196EF
:10116000A11DB11D80939A0290939B02A0939C02B3
:10117000B0939D02BF91AF919F918F913F912F911D
:101180000F900FBE0F901F9018951F920F920FB6E1
:101190000F9211242F933F934F935F936F937F93FD
:1011A0008F939F93AF93BF93EF93FF938FEE92E054
:1011B0000E94B60CFF91EF91BF91AF919F918F91DB
:1011C0007F916F915F914F913F912F910F900FBE43
:1011D0000F901F9018951F920F920FB60F92112427
:1011E0002F938F939F93EF93FF93E091FF02F091E2
:1011F00000038081E0910503F091060382FD12C097
:101200009081809108038F5F8F732091090382176B
:1012100051F0E0910803F0E0E151FD4F958F80938C
:10122000080301C08081FF91EF919F918F912F91D1
:101230000F900FBE0F901F901895682F8FEE92E0C1
:101240000C94E707FF920F931F93CF93DF9300D087
:10125000CDB7DEB7082F10E0F801E451FD4F9081C3
:10126000F62EF92207511D4FF8019081F91611F160
:101270002F2D30E03A832983A091CC03B091CD0388
:101280001097B1F0682F6F706069ED91FC91119724
:101290000190F081E02DCD01099522E030E0AE0112
:1012A0004F5F5F4F62E070E08CEC93E00E94E20CD5
:1012B000F801F0820F900F90DF91CF911F910F9165
:1012C000FF900895EF92FF920F931F93CF93DF93B8
:1012D000C82F8091CC039091CD030097C9F17A017A
:1012E0008B01DC01ED91FC910190F081E02D60EF2C
:1012F00009958091CC039091CD03DC01ED91FC9197
:101300000190F081E02D6C2F0995E7010E0D1F1D56
:10131000C017D10759F020E030E0AE0161E070E085
:101320008CEC93E00E94E20C2196F2CF8091CC03EA
:101330009091CD03DC01ED91FC910190F081E02DC5
:1013400067EFDF91CF911F910F91FF90EF9009947C
:10135000DF91CF911F910F91FF90EF900895FC01C5
:1013600001900020E9F73197BF01681B790BAC01B0
:1013700081E70C946209CF93DF93FC01A081B181D6
:10138000109701F1EC01ED91FC9111970190F08122
:10139000E02D69EFCD01099588819981DC01ED91FE
:1013A000FC910190F081E02D62E00995888199819E
:1013B000DC01ED91FC910190F081E02D65E0DF9181
:1013C000CF910994DF91CF9108953091E8023132A5
:1013D00008F04BC08091C4028111FCCF9091E702CC
:1013E00022E02093C40221E02093C3022FEF209338
:1013F000C2021092C1023093C002E7ECF2E0A0EA10
:10140000B2E020E0321721F041914D932F5FFACFE7
:1014100010929F0220919F02990F922B90939F020E
:1014200090919E02913061F410929E0290919F02E1
:101430009093BB009091BC0093FDF8CF95EC01C058
:1014400095EE9093BC009091C4029230E1F390919C
:10145000C2029F3F79F08091C202803241F08091B8
:10146000C202803331F084E005C081E003C082E035
:1014700001C083E01092C6021092E8021092C502E9
:1014800008951F93CF93DF93182FEB018091D10321
:101490009091D20368177907A8F0E091FE03F091CC
:1014A000FF0381E03097C1F08093CE038091EA037F
:1014B0009091EB0309958091D1039091D203C817C5
:1014C000D90748F48091CF039091D003C80FD91F5A
:1014D000188380E001C081E0DF91CF911F910895D2
:1014E000AC01FB0180E090E09C01220F331F241728
:1014F000350770F4DB012C91208311963C913795D0
:1015000033273795232B219301966E5F7F4FECCFC6
:10151000089590E0FC01EE52FF4F2491FC01E2544B
:10152000FF4F3491FC01E655FF4FE491EE2309F49F
:101530003CC0222339F1233091F038F42130A9F056
:10154000223001F584B58F7D12C0273091F028300C
:10155000A1F02430B9F4809180008F7D03C0809188
:1015600080008F77809380000DC084B58F7784BD15
:1015700009C08091B0008F7703C08091B0008F7D4B
:101580008093B000F0E0EE0FFF1FE056FF4FA591F3
:10159000B4919FB7F894611104C08C9130953823B1
:1015A00002C0EC913E2B3C939FBF0895CF93DF93F5
:1015B00090E0FC01E254FF4F2491FC01E655FF4FFF
:1015C0008491882361F190E0880F991FFC01EA560D
:1015D000FF4FC591D491FC01E056FF4FA591B49106
:1015E000611109C09FB7F894888120958223888370
:1015F000EC912E230BC0623061F49FB7F894888180
:10160000322F309583238883EC912E2B2C939FBF10
:1016100006C08FB7F894E8812E2B28838FBFDF9107
:10162000CF9108958230910538F0880F991F880F67
:10163000991F05970197F1F708958F929F92AF92A6
:10164000BF92CF92DF92EF92FF926B017C010E94DA
:1016500056084B015C01C114D104E104F104F1F01E
:101660000E945608DC01CB0188199909AA09BB0917
:10167000883E9340A105B10570F321E0C21AD1085C
:10168000E108F10888EE880E83E0981EA11CB11CC9
:10169000C114D104E104F10419F7DDCFFF90EF90FC
:1016A000DF90CF90BF90AF909F908F900895FC01F6
:1016B000918D228D892F90E0805C9F4F821B910934
:1016C0008F739927089580E090E0892B29F00E947C
:1016D000DD0781110C9400000895E0915E02F09105
:1016E0005F02309709F009940895862F642FE091E6
:1016F0005C02F0915D02309711F0A9010994089500
:101700000895862FE0915402F0915502309711F020
:10171000BA0109940895862FE0915602F09157027C
:10172000309711F0BA0109940895862FE091500284
:10173000F0915102309711F0BA0109940895862F63
:10174000E0915202F0915302309711F0BA010994DE
:101750000895862FE0915802F0915902309711F0C8
:10176000BA0109940895862FE0915A02F0915B0224
:10177000309711F0BA010994089585ED8093BC006B
:101780008091BC0084FDFCCF1092C402089540916A
:10179000E904262F30E0240F311D21323105DCF41D
:1017A0002091C4022430C9F4FC0180E090E0861747
:1017B00058F43091E9042191DC01A753BB4FA30FEA
:1017C000B11D2C930196F3CF8091E904680F6093CB
:1017D000E90480E0089581E0089582E00895089585
:1017E00008950895E091C3048091C204E81730F48D
:1017F000F0E0EE55FB4F808190E008958FEF9FEF72
:1018000008959091C3048091C204981750F4E92F71
:10181000F0E0EE55FB4F208130E09F5F9093C304D2
:1018200002C02FEF3FEFC90108958091C20490E0FC
:101830002091C304821B91090895CF92DF92EF9209
:10184000FF920F931F93CF93DF937C01CB018A010B
:101850002091C502222389F0EB016B01C40ED51E35
:10186000CC15DD0569F06991D701ED91FC910190EE
:10187000F081E02DC7010995F3CF642F0E94C70BBB
:10188000C801DF91CF911F910F91FF90EF90DF90F2
:10189000CF900895CF93DF931F92CDB7DEB76983C2
:1018A0002091C5022223D1F02091E802203240F09D
:1018B00021E030E0FC013383228380E090E015C01A
:1018C0008091C602E82FF0E0E953FD4F99819083A3
:1018D0008F5F8093C6028093E80205C061E0CE016D
:1018E00001960E94C70B81E090E00F90DF91CF91AD
:1018F0000895089580E090E00895009721F0805CBD
:101900009F4F0C94BB090895CF938091A104882325
:1019100029F01092A1048FEF8093000110926002D1
:101920001092EC021092E902109261021092ED0204
:101930001092EA02109262021092EE021092EB02F2
:10194000C0E082EF8C0F863018F462E070E002C0D5
:1019500061E070E08C2F0E946202CF5FC43189F792
:1019600010927C0210927B02CF910895FC01848D2D
:10197000DF01A80FB11DA35ABF4F2C91848D90E0B9
:1019800001968F739927848FA689B7892C93A08994
:10199000B1898C91837080648C93938D848D98131E
:1019A00006C00288F389E02D80818F7D80830895B1
:1019B0001F920F920FB60F9211240F900FBE0F902F
:1019C0001F9018953F924F925F926F927F928F92E5
:1019D0009F92AF92BF92CF92DF92EF92FF920F93BE
:1019E0001F93CF93DF935C016901DA013C90232BB5
:1019F00019F4CC24CA94DC2C7A012A01460E571E15
:101A0000C0E0D0E000E010E087E0682E712CE41424
:101A1000F50409F443C00C151D0508F067C0470123
:101A2000F50180819181D7016D917D010C2E01C05E
:101A3000660F0A94EAF763296F77DC01ED91FC9158
:101A40000190F081E02D09950F5F1F4FF401608137
:101A500070E0C3018C1B9D0B02C0759567958A953C
:101A6000E2F7362E2196C730D10588F2C016D1068E
:101A700099F0D5018D919C91632D6F77DC01ED91EB
:101A8000FC910190F081E02D09950F5F1F4F331CF1
:101A90003324331C2797E7CF8601B9CF209731F144
:101AA0000C151D0518F5F5018081918161E070E04C
:101AB00001C0660FCA95EAF761506321DC01ED9120
:101AC000FC910190F081E02DDF91CF911F910F915A
:101AD000FF90EF90DF90CF90BF90AF909F908F904E
:101AE0007F906F905F904F903F900994DF91CF91DE
:101AF0001F910F91FF90EF90DF90CF90BF90AF902C
:101B00009F908F907F906F905F904F903F9008953F
:101B1000DF92EF92FF920F931F93CF93DF93FC011D
:101B2000E058FF4FD080DD2009F45DC0EC01C05CBF
:101B3000DF4FA881B981109709F455C0FC01EF5718
:101B4000FF4F00811181F801F180E080ED91FC915F
:101B500011970190F081E02D60EFCD01099588810A
:101B60009981DC01ED91FC910190F081E02D69E714
:101B7000099588819981DC01ED91FC910190F081BA
:101B8000E02D6E2D099588819981DC01ED91FC9104
:101B90000190F081E02D6F2D09957801B2E0EB0EF8
:101BA000F11C0D0D111DE016F10661F020E030E092
:101BB000A70161E070E0CE010E94E20CEFEFEE1AA7
:101BC000FE0AF1CF88819981DC01ED91FC910190B1
:101BD000F081E02D67EFDF91CF911F910F91FF9082
:101BE000EF90DF900994DF91CF911F910F91FF90BB
:101BF000EF90DF900895009711F00C94880D0895F0
:101C00001F920F920FB60F9211242F933F934F9371
:101C10005F936F937F938F939F93AF93BF93EF9354
:101C2000FF938091B900887F803609F49CC068F5E5
:101C3000883209F45BC090F4803109F454C038F460
:101C4000882309F4F6C0883009F44DC0F6C0883105
:101C500009F44CC0803209F45DC0EFC0803409F44F
:101C600068C048F4803309F455C0883309F0E5C0F2
:101C70008093C202D8C0803509F44FC0883509F47A
:101C80005DC0883409F0D9C0D6C0883909F4C7C00E
:101C9000A8F4883709F467C038F4883609F463C0BB
:101CA000803709F460C0C9C0883809F4B8C08039E9
:101CB00009F45FC0803809F0C0C05BC0803B09F404
:101CC00086C038F4803A09F466C0883A09F47FC0C7
:101CD000B4C0803C09F4A7C0883C09F4A4C0883B88
:101CE00009F48AC0AAC080919F0210C09091C102DD
:101CF0008091C002981770F5E091C10281E08E0FCB
:101D00008093C102F0E0E056FD4F80818093BB00DC
:101D100085EC86C08093C2028EC0E091C10281E052
:101D20008E0F8093C1028091BB00F0E0E056FD4F22
:101D300080839091C1028091C0026EC0E091C10287
:101D400081E08E0F8093C1028091BB00F0E0E056ED
:101D5000FD4F80838091C30281116DC081E080932B
:101D60009E0284EA61C083E08093C40210920B0556
:101D7000CFCF80910B05803208F051C0E0910B0568
:101D800081E08E0F80930B058091BB00F0E0E55160
:101D9000FB4F8083BDCF85EC8093BC001092C402C2
:101DA00080910B05803230F4E0910B05F0E0E551B5
:101DB000FB4F108260910B0570E0E091C604F0913A
:101DC000C7048BEE94E0099510920B0536C084E0B1
:101DD0008093C4021092EA041092E904E091C404D2
:101DE000F091C50409958091E904811105C081E055
:101DF0008093E9041092C904E091EA0481E08E0F17
:101E00008093EA04F0E0E753FB4F80818093BB00AE
:101E10009091EA048091E904981708F479CF85E855
:101E20008093BC000AC085EC8093BC001092C40271
:101E300004C01092C2020E94BD0BFF91EF91BF91AE
:101E4000AF919F918F917F916F915F914F913F9152
:101E50002F910F900FBE0F901F901895DF92EF9269
:101E6000FF920F931F93CF93DF93EC01D62E7A014D
:101E7000890188818C3008F068C061E08D2D0E9456
:101E8000D60A8881E82FF0E09F01220F331FE20F6E
:101E9000F31FE85AFB4F9D2D9F732081207CD22E8B
:101EA000D92AD08220E232E02E193F0937FF02C042
:101EB0002D5F3F4F3595279535952795298320E64A
:101EC00039E0201B310B37FF02C02D5F3F4F3595A6
:101ED0002795359527952A836CE00E9437169CE05C
:101EE000899FB001112440E050E09B01240F351F71
:101EF000F901EE0FFF1F2E0F3F1FF901E85AFB4FAC
:101F0000908196FD16C04F5F5F4F4C30510569F7C9
:101F100081110FC01092800082E0809381001092A6
:101F2000850010928400B19A80916F008260809346
:101F30006F00E881F0E0CF01880F991FE80FF91FCB
:101F4000E85AFB4F8081806480838881DF91CF9144
:101F50001F910F91FF90EF90DF9008951F920F92C5
:101F60000FB60F9211242F933F934F935F936F936C
:101F70007F938F939F93AF93BF93EF93FF93809142
:101F8000C80487FF05C010928500109284001BC012
:101F90002091C804022E000C330B80917C0490E049
:101FA0002817390784F48091C804082E000C990B77
:101FB000FC01EE0FFF1F8E0F9F1FFC01E85AFB4F25
:101FC000808186FD15C08091C8048F5F8093C8040E
:101FD0002091C804022E000C330B80917C0490E009
:101FE00028173907C4F48091C8048C3064F113C0F9
:101FF0008091C804082E000C990BFC01EE0FFF1F06
:102000008E0F9F1FFC01E85AFB4F808160E08F73A9
:102010000E94890AD8CF809184009091850004960F
:1020200080349C4918F480E49CE905C080918400C8
:1020300090918500049690938900809388008FEF9B
:102040008093C8043BC0209184003091850080912A
:10205000C804082E000C990BFC01EE0FFF1F8E0F19
:102060009F1FFC01E85AFB4F81819281820F931FD1
:1020700090938900809388008091C804082E000CFA
:10208000990BFC01EE0FFF1F8E0F9F1FFC01E85AFA
:10209000FB4F808186FF12C08091C804082E000C7F
:1020A000990BFC01EE0FFF1F8E0F9F1FFC01E85ADA
:1020B000FB4F808161E08F730E94890AFF91EF914D
:1020C000BF91AF919F918F917F916F915F914F9150
:1020D0003F912F910F900FBE0F901F901895CF92A8
:1020E000DF92EF92FF920F931F93E82FF92F05C015
:1020F000015011092109310961F19081962394174A
:10210000B9F305C0015011092109310911F190817C
:1021100096239413F7CFC12CD12CE12CF12C0AC0BB
:102120008FEFC81AD80AE80AF80A0C151D052E0503
:102130003F0579F080818623841791F36C2D7D2DE6
:102140008E2D9F2D1F910F91FF90EF90DF90CF90DC
:10215000089560E070E080E090E01F910F91FF90A3
:10216000EF90DF90CF900895CF93DF9300D0CDB75D
:10217000DEB7789484B5826084BD84B5816084BD07
:1021800085B5826085BD85B5816085BD80916E0015
:10219000816080936E001092810080918100826046
:1021A0008093810080918100816080938100809183
:1021B00080008160809380008091B1008460809372
:1021C000B1008091B00081608093B00080917A006E
:1021D000846080937A0080917A00826080937A0094
:1021E00080917A00816080937A0080917A00806883
:1021F00080937A001092C10083E180930C04809157
:102200000D0490910E040E94E11600910C0410E060
:10221000C80101960E94491690930E0480930D0404
:10222000FC01E00FF11F108262E0F62EDC01FC924F
:1022300025E011962C93A8014250510964EF71E0FA
:1022400002960E946F178CE391E090935B0280935B
:102250005A0289EC90E0909359028093580286EAE2
:1022600090E090935702809356028EE990E090930D
:1022700055028093540282E692E090935302809339
:1022800052028BE194E090935D0280935C0284E8BB
:102290009CE090935F0280935E02E091FF02F091D8
:1022A0000003F082E091FB02F091FC021082E091C9
:1022B000FD02F091FE0280E1808310920703E0911D
:1022C0000303F091040386E08083E0910103F09121
:1022D0000203808180618083E0910103F091020319
:1022E000808188608083E0910103F0910203808106
:1022F00080688083E0910103F091020380818F7DEB
:10230000808380914B04811140C061E08DE00E9488
:10231000D60A10E062ED70E080E090E00E941D0BB4
:1023200061E08DE00E94890A68E270E080E090E060
:102330000E941D0B60E08DE00E94890A1F5F123031
:1023400049F76AEF70E080E090E00E941D0B10E01A
:1023500062ED70E080E090E00E941D0B61E08DE096
:102360000E94890A68E270E080E090E00E941D0B04
:1023700060E08DE00E94890A1F5F153049F76DE724
:1023800070E080E090E00E941D0B8FEE92E0909351
:102390000B0480930A049093CD038093CC038CECC0
:1023A00093E00E94BB098CE893E00E94880D0E9494
:1023B000840CDD24D39442E0642E712CEE24E3944B
:1023C000F12C80916002882341F069B18091EC0288
:1023D00068236C7F80E00E9422098091610288233B
:1023E00079F083B196B1682F6F73B0E49B9FC00101
:1023F0001124862B6091ED02682381E00E9422095E
:1024000080916202882351F066B16C73669566957F
:102410008091EE02682382E00E94220980910A04E2
:1024200090910B04DC01ED91FC910084F185E02D8D
:102430000995892B09F4CEC180910A0490910B046F
:10244000DC01ED91FC910284F385E02D09959C015E
:102450008F3FBFEF9B0711F3982F8091D7038823FD
:1024600009F492C0973F09F07EC01092D703A09163
:10247000CF03B091D0036C916137C1F1693709F096
:102480005CC0E0910404F0910504309739F280912A
:10249000D8039091D9038330910538F420E030E0DF
:1024A00040E050E060E070E01BC0BD016D5F7F4F19
:1024B00003970E94700ABC016D5F7F4F80E00E940D
:1024C000410AE091CF03F091D0039F012D5F3F4F70
:1024D000428150E0618170E0E0910404F0910504D4
:1024E0008091E6039091E703099598CF80910004CD
:1024F00090910104892B09F491CFBD016F5F7F4F4B
:102500008091D8039091D90301970E94700ABC0171
:102510006F5F7F4F80E00E94410A6091CF0370910E
:10252000D0036F5F7F4FE0910004F0910104809130
:10253000EC039091ED03099571CFE0910204F091C5
:102540000304309709F46ACF9D012F5F3F4F4091FC
:10255000D8035091D903415051098091EE039091D5
:10256000EF0309955BCF6091D8037091D903822F57
:102570000E94410A8091D8039091D90301969093CB
:10258000D9038093D8034ACF6091D5037091D603C5
:102590006115710509F4AFC027FDADC06150710927
:1025A0007093D6036093D503822F0E94410A8091D5
:1025B000D5039091D603892B09F030CF8091D303B6
:1025C000882309F42BCF803D09F47FC030F4803993
:1025D00039F1803C09F466C08BC0843FE1F1853F4E
:1025E00009F44DC0803E09F083C0E091F203F09100
:1025F000F303309709F47CC0A091CF03B091D003CE
:102600008C9111964C9150E020E8829F400D511D15
:1026100011246091D4038091DA039091DB0367C0A9
:10262000E091F403F091F503309709F461C0A091B3
:10263000CF03B091D0038C9111964C9150E090E86B
:10264000899F400D511D11246091D4038091DC03BA
:102650009091DD034CC0E091FA03F091FB033097B9
:1026600009F446C0A091CF03B091D0034C9150E043
:1026700011966C918091E2039091E30338C0E09150
:10268000FC03F091FD03309799F1A091CF03B09135
:10269000D0034C9150E011966C918091E40390919D
:1026A000E50325C0E091F603F091F703309701F1BF
:1026B000A091CF03B091D0034C9150E06091D4032E
:1026C0008091DE039091DF0312C0E091F803F09156
:1026D000F903309769F0A091CF03B091D0034C91EA
:1026E00050E06091D4038091E0039091E10309955B
:1026F0001092D30393CE903F30F4822F8F7080934B
:10270000D403922F907F903F79F158F4903C29F1B7
:1027100018F49039E9F082CE903DF9F0903EC1F086
:102720007DCE993F09F449C028F48CE0890F8230AE
:1027300078F074CE9F3F09F071CE1092D6031092BC
:10274000D5031092D3031092D40380E090E013C01D
:102750007092D6036092D50304C0F092D603E09243
:10276000D5039093D3035ACED092D7031092D903B6
:102770001092D80353CE2091D1033091D203821707
:10278000930748F4E091CF03F091D003E80FF91FCD
:1027900010820196F0CF1092D7031092D9031092B5
:1027A000D803E0910804F0910904309709F436CE7B
:1027B0008091F0039091F1030BC0E0910604F09139
:1027C0000704309709F42ACE8091E8039091E90339
:1027D000099524CE8FB7F8944091960250919702B4
:1027E00060919802709199028FBF809091029090B1
:1027F0009202A0909302B090940220910101309136
:102800000201C901330FAA0BBB0B481959096A0908
:102810007B0984179507A607B70708F0AFC0880D96
:10282000991DAA1DBB1D8093910290939202A093C3
:102830009302B09394023DE7A32E32E0B32E12EF41
:10284000163008F076C0D5018C91823009F071C045
:1028500080917B0290917C02012E02C09595879514
:102860000A94E2F780FF65C0812F806480937C002A
:1028700080917A00806480937A0080917A0086FD4E
:10288000FCCF209178008091790030E0382B3A839A
:1028900029838091CC039091CD03009709F449C01E
:1028A000DC01ED91FC910190F081E02D2115304487
:1028B00078F4612F606E099522E030E0AE014F5F41
:1028C0005F4F62E070E08CEC93E00E94E20C31C05C
:1028D00060EF09958091CC039091CD03DC01ED91DF
:1028E000FC910190F081E02D6FE609958091CC0379
:1028F0009091CD03DC01ED91FC910190F081E02DF0
:10290000612F099522E030E0AE014F5F5F4F62E03A
:1029100070E08CEC93E00E94E20C8091CC039091EB
:10292000CD03DC01ED91FC910190F081E02D67EF8A
:1029300009951F5FBFEFAB1ABB0A163009F080CFB5
:102940008091000187FD1AC0C12CEC2DF0E0809130
:102950000001082E000C990B8E179F077CF0CF0109
:10296000880F991FE80FF91FED59FD4F618170E045
:10297000428180810E947903C394E7CF0E94630B58
:1029800020CD1092F2021092F10248EE53E060E086
:1029900070E04093F3025093F4026093F502709359
:1029A000F6028DE091E09093F0028093EF0285ECC7
:1029B00090E09093FC028093FB0284EC90E0909373
:1029C000FE028093FD0280EC90E0909300038093E0
:1029D000FF0281EC90E0909302038093010382EC6C
:1029E00090E0909304038093030386EC90E090932F
:1029F00006038093050310920803109209031092B6
:102A00000A0310920B038CE893E01092CD0310920E
:102A1000CC039093D0038093CF0320E430E0309335
:102A2000D2032093D1031092D3031092D4031092B7
:102A3000D6031092D5031092D7031092D9031092A7
:102A4000D8031092DB031092DA031092DD03109288
:102A5000DC031092DF031092DE031092E103109268
:102A6000E0031092E3031092E2031092E503109248
:102A7000E4031092EB031092EA031092ED0310921C
:102A8000EC031092EF031092EE031092F1031092F8
:102A9000F0031092FF031092FE031092CE031092E7
:102AA0000C0410920E0410920D0410924B0423EBB0
:102AB0003BE03093F3032093F20329EA3BE03093A9
:102AC000F5032093F4032BE83BE03093F7032093C6
:102AD000F60321E83BE03093F9032093F8032FE954
:102AE0003BE03093FB032093FA0325E93BE030936E
:102AF000FD032093FC0320E83BE030930104209386
:102B0000000425E73BE030930304209302042BEFFD
:102B10003DE030930504209304049093E7038093F1
:102B2000E6032DE73CE030930704209306049093DE
:102B3000E9038093E8038DE69BE09093090480937A
:102B4000080410924F0410924E0440935004509386
:102B5000510460935204709353048FE191E0909379
:102B60004D0480934C0480917C04ADE7B4E09FEF6A
:102B700048EB5BE08C3078F48C93282F30E0F9013F
:102B8000EE0FFF1F2E0F3F1FF901E85AFB4F528334
:102B900041838F5F01C09C93139624E0A13AB20752
:102BA00049F780937C040895052E97FB1EF400944A
:102BB0000E94EB1557FD07D00E94061607FC03D0B4
:102BC0004EF40C94EB1550954095309521953F4F60
:102BD0004F4F5F4F089590958095709561957F4F09
:102BE0008F4F9F4F08950E942816A59F900DB49F68
:102BF000900DA49F800D911D11240895B7FF0C9492
:102C0000F3150E94F315821B930B0895A1E21A2E6F
:102C1000AA1BBB1BFD010DC0AA1FBB1FEE1FFF1F80
:102C2000A217B307E407F50720F0A21BB30BE40BD0
:102C3000F50B661F771F881F991F1A9469F7609517
:102C40007095809590959B01AC01BD01CF010895D1
:102C5000A29FB001B39FC001A39F700D811D1124DD
:102C6000911DB29F700D811D1124911D0895991B16
:102C700079E004C0991F961708F0961B881F7A9573
:102C8000C9F780950895EE0FFF1F0590F491E02D90
:102C900009940F931F93CF93DF938230910510F423
:102CA00082E090E0E0911005F091110520E030E025
:102CB000A0E0B0E0309719F1408151810281138189
:102CC00048175907C8F08417950769F4109731F031
:102CD00012960C93129713961C9327C0009310051D
:102CE0001093110522C02115310519F04217530721
:102CF00018F49A01BD01EF01DF01F801DBCF2115C6
:102D00003105F9F0281B390B2430310580F48A8114
:102D10009B816115710521F0FB019383828304C0BF
:102D20009093110580931005FE01329644C0FE0178
:102D3000E20FF31F81939193225031093983288345
:102D40003AC020910E0530910F05232B41F42091BC
:102D500005013091060130930F0520930E05209157
:102D60000301309104012115310541F42DB73EB71F
:102D70004091070150910801241B350BE0910E058D
:102D8000F0910F05E217F307A0F42E1B3F0B281755
:102D9000390778F0AC014E5F5F4F2417350748F0D4
:102DA0004E0F5F1F50930F0540930E058193919333
:102DB00002C0E0E0F0E0CF01DF91CF911F910F91D1
:102DC0000895CF93DF93009709F481C0FC013297F7
:102DD00013821282A0911005B0911105109781F411
:102DE00020813181820F931F20910E0530910F05B4
:102DF0002817390751F5F0930F05E0930E0567C0CA
:102E0000ED0120E030E0CE17DF0740F44A815B811E
:102E10009E0141155105F1F0EA01F5CFD383C2833C
:102E200040815181840F951FC817D90759F48881B3
:102E30009981840F951F0296918380838A819B815B
:102E4000938382832115310529F4F0931105E093D2
:102E500010053DC0E901FB83EA8349915991C40FF4
:102E6000D51FEC17FD0761F480819181840F951FB8
:102E70000296E90199838883828193819B838A8367
:102E8000E0E0F0E012968D919C911397009719F075
:102E9000FD01DC01F7CF8D919C9111979D012E5F73
:102EA0003F4F820F931F20910E0530910F05281779
:102EB000390769F4309729F4109211051092100522
:102EC00002C013821282B0930F05A0930E05DF910A
:102ED000CF91089581E090E0F8940C947E17FB0167
:102EE000DC014150504048F001900D920020C9F79C
:102EF00001C01D9241505040E0F70895F894FFCF73
:102F0000FF130000001205800000000000E70780AA
:102F100007AA073408570BB907CD07000000004A7D
:102F20000C1D0C7A0CF10B150C010CF20B556E6B91
:102F30006E6F776E2070696E206D6F646500493228
:102F4000432052656164204572726F723A20546F5B
:102F50006F206D616E79206279746573207265638C
:102F60006569766564004932432052656164204595
:102F700072726F723A20546F6F20666577206279A3
:102F80007465732072656365697665640031302D00
:102F90006269742061646472657373696E67206E20
:102FA0006F7420737570706F7274656400746F6FE6
:102FB000206D616E79207175657269657300443AA0
:102FC0005C4B697474656E626C6F636B5C6578747E
:102FD000656E73696F6E735C73336578742D61729F
:102FE0006475696E6F5C6B626C6F636B6669726D42
:102FF0006174615C6B626C6F636B6669726D617446
:06300000612E696E6F00F5
:00000001FF
