:100000000C947B000C94A3000C94A3000C94C90DD9
:100010000C94C90D0C94C90D0C94A3000C94A3006E
:100020000C94A3000C94A3000C94A3000C949F10B8
:100030000C94A3000C94A3000C94A3000C94A300B4
:100040000C941B090C94A3000C948B090C94650967
:100050000C94A3000C94A3000C94A3000C94A30094
:100060000C94F10E0C94A300C703EC03B503050434
:10007000240456044B045604560456048104D60343
:10008000030819086A071908BA0719084807EE068D
:1000900019081908190819081908BC05190899063A
:1000A0001908340700000000240027002A0000007F
:1000B0000000250028002B000404040404040404A8
:1000C0000202020202020303030303030102040803
:1000D00010204080010204081020010204081020B2
:1000E00000000008000201000003040700000000F7
:1000F00000000000121511241FBECFEFD8E0DEBFB4
:10010000CDBF12E0A0E0B1E0E2EAFFE202C005905C
:100110000D92A431B107D9F725E0A4E1B2E001C006
:100120001D92A733B207E1F710E0CBE7D0E004C09F
:100130002197FE010E949416CA37D107C9F70E9481
:1001400060110C94CF170C940000A82FB0E0A255BA
:10015000BB4F9C91292F30E0F901EE0FFF1F2E0FAE
:100160003F1FF901E857FB4FE081F0E09F01220FAC
:10017000331FE20FF31FED59FB4F80818F7B80838C
:100180008091AC04981306C0992379F09150909314
:10019000AC040BC0882349F0E091AD04EF5FE0931D
:1001A000AD04F0E0ED5EFD4F90838FEF8C930895EA
:1001B0009EEF980F923180F4E82FF0E0DF01A65E09
:1001C000BB4F9C91913041F4EE0FFF1FE25DFB4F5E
:1001D000608371830C94550B0895CF93863080F51E
:1001E0004091A0025091A10221E030E0672B81F400
:1001F000B90102C0660F771F8A95E2F7CB0180959F
:100200009095842395239093A1028093A00218C017
:10021000082E02C0220F331F0A94E2F7242B352B3D
:100220003093A1022093A0029091C604911108C0BE
:10023000C82F0E94DE0BBC018C2FCF910C94BD09FE
:10024000CF9108958F929F92AF92BF92CF92DF92FB
:10025000EF92FF920F931F93CF93DF93833008F0B9
:1002600084C0982F990F990F990F58E0952E990EE9
:1002700094E1991510F444E1942E8B01D82FC82EE7
:10028000CC0CCC0CCC0CC0E0882483945B01BB2448
:10029000C91430F58EEF8C0D8231F8F44C2D50E0FE
:1002A000FA01E65EFB4F20812230B8F4882D90E001
:1002B0008A219B21DD24D394009709F4D12C7A0163
:1002C000EE0CFF1C213009F040C0C829F701E25DA7
:1002D000FB4F8D2D90E091838083880CC394D8CF01
:1002E000D11108C0F8946BB106270C7FC023C62734
:1002F000CBB929C0D130D1F40C23F89495B18C2F0F
:100300008F7380958923902F9F73892B85B998B11E
:10031000C295C695C695C370C0958C2F892302954A
:10032000069506950370C02FC82B0CC0CF70F894AB
:1003300088B16C2F660F660F60956823C023CC0FC1
:10034000CC0FC62BC8B9789410C0892B09F4BECF46
:10035000F701E25DFB4F80819181019709F4B6CFEF
:1003600062E08C2D0E94A20BB1CFDF91CF911F9143
:100370000F91FF90EF90DF90CF90BF90AF909F9044
:100380008F9008958F929F92AF92BF92CF92DF92FB
:10039000EF92FF920F931F93CF93DF93EB01843182
:1003A00008F00AC1082F10E0F801E65EFB4F9081CB
:1003B000933009F496C0943009F0FEC08250823127
:1003C00008F087C0F801E255FB4FE080F12C67018F
:1003D000CC0CDD1C603282E078070CF042C077FD67
:1003E00005C0653B710524F4DB0104C0A0E001C039
:1003F000A4EBB0E0F601EE0DFF1DE857FB4F818145
:1004000028E830E04901881A910887FD9394880C08
:10041000991C880C991C092C000CAA08BB08828125
:1004200028E532E0281B310987FD3395220F331F61
:10043000220F331FA901330F660B770B9A01AB0113
:10044000281939094A095B090E944F1624EB30E04C
:1004500040E050E00E942516820E931EA41EB51E99
:1004600001C04B01F601EE0DFF1DE857FB4F208147
:100470002C3078F5318188E890E0831B910937FDB5
:100480009395880F991F880F991F8816990684F0F5
:10049000828148E552E0481B510987FD5395440F7E
:1004A000551F440F551FC401481559050CF4CA01C6
:1004B0000297880F991F4FB7F89430E0F901EE0FBB
:1004C000FF1F2E0F3F1FF901ED59FB4F92838183D0
:1004D0004FBF000F111FF801E25DFB4FD183C083B6
:1004E0006BC07B01D82F833049F08BEF800F8230B7
:1004F00028F087EF800F833008F057C061E08D2F20
:100500000E94A20BE114F10411F460E005C08FEF2A
:10051000E816F10429F461E08D2F0E94550B45C0C7
:10052000F801E052FF4FE491E330F9F048F4E13094
:10053000B9F0E230A1F584B5806284BDE8BC35C075
:10054000E730E9F0E83019F1E43049F580918000B6
:10055000806280938000F0928B00E0928A0025C038
:1005600084B5806884BDE7BC20C08091800080682D
:1005700080938000F0928900E092880016C08091FC
:10058000B00080688093B000E092B3000EC080910C
:10059000B00080628093B000E092B40006C080E8B2
:1005A000E816F1040CF0B7CFB0CF000F111FF8011F
:1005B000E25DFB4FF182E082DF91CF911F910F91BD
:1005C000FF90EF90DF90CF90BF90AF909F908F9073
:1005D0000895DB019091AC049C30A8F53091AD04F6
:1005E000682F70E0332369F0E32FF0E0ED5EFD4FFC
:1005F0008081FB01E255FB4F808331503093AD0485
:1006000007C0FB01E255FB4F90839F5F9093AC04C2
:10061000FB01E255FB4F808190E09C01220F331FCC
:10062000820F931F1A161B0634F4141615061CF4B9
:100630009A01AD0104C020E639E040E252E088575B
:100640009B4F0C941F108DE291E00C946E0A8F92D8
:100650009F92BF92CF92DF92EF92FF920F931F93E0
:10066000CF93DF93C82ED12CE601C956DC4FFE0193
:10067000ED57FF4F90819F3709F443C1963041F405
:100680009091C504992321F06630710509F01DC1D0
:100690007B01182F0EEF080F0231F8F4643071055A
:1006A000E1F0F601E255FB4F80818C30B0F490E030
:1006B000FC01EE0FFF1F8E0F9F1FFC01E857FB4F41
:1006C000808190E0FC01EE0FFF1F8E0F9F1FFC0149
:1006D000ED59FB4F808186FDFEC052EFB52EB10E65
:1006E00085E08B1558F061E070E082E0E816F104D7
:1006F00011F060E070E08B2D0E94ED00023118F5E2
:10070000E12FE695E695E695212F2770F0E0EE586B
:10071000FD4FE114F10421F08BE0E816F10449F4F7
:1007200081E090E001C0880F2A95EAF79081892B3B
:1007300009C081E090E001C0880F2A95EAF7809512
:100740009081892380834601880C991CF401E25D25
:10075000FB4F118210828CE0E816F10408F0A6C06D
:10076000F701EC5CFF4F0C94941685E08B1508F4B0
:10077000C8C0023120F460E0812F0E94A20BCD5747
:10078000DF4F88818F3709F4BCC082E08DC0023111
:1007900008F0B7C060E0812F0E94A20BCD57DF4F59
:1007A00088818F3709F4ADC01882ABC0023108F0E0
:1007B000A8C062E0812F0E94A20BCD57DF4F888135
:1007C0008F3711F08BE08883F401E25DFB4F81E00D
:1007D00090E09183808395C0023108F092C0FE01C1
:1007E000ED57FF4F8081833021F460E0812F0E941C
:1007F000550B61E0812F0E94A20BCD57DF4F8881FE
:100800008F3709F47EC081E04FC0133049F08BEF81
:10081000810F823028F087EF810F833008F071C09C
:1008200061E0812F0E94A20B61E0812F0E94A20B48
:1008300060E0812F0E94550BCD57DF4F88818F37A5
:1008400009F45FC083E030C0023108F05AC0CD57D0
:10085000DF4F88818F3711F084E08883F601E255FD
:10086000FB4F80818F3FD9F190E0FC01EE0FFF1F1D
:100870008E0F9F1FFC01E857FB4F808190E0FC0129
:10088000EE0FFF1F8E0F9F1FFC01ED59FB4F808164
:1008900086FD37C024C01251123098F5CD57DF4F76
:1008A00088818F3771F186E088832BC081E491E0E5
:1008B000DF91CF911F910F91FF90EF90DF90CF903C
:1008C000BF909F908F900C946E0A1092C5049FEF7A
:1008D00090930001DDCE812F0E94A500FECE4FEF48
:1008E0005FEF6FEF7FEF812FDF91CF911F910F911E
:1008F000FF90EF90DF90CF90BF909F908F900C94DF
:10090000E902DF91CF911F910F91FF90EF90DF905F
:10091000CF90BF909F908F900895FF920F931F9359
:10092000CF93DF9300D0CDB7DEB7082F10E0F801EA
:10093000EE58FD4F9081F62EF9220E531B4F4111B8
:1009400004C0F8019081F91611F12F2D30E03A839F
:100950002983A091D703B091D8031097B1F0682FE5
:100960006F706069ED91FC9111970190F081E02D1D
:10097000CD01099522E030E0AE014F5F5F4F62E0AC
:1009800070E087ED93E00E94D30DF801F0820F90A4
:100990000F90DF91CF911F910F91FF9008958330B9
:1009A00020F5282F30E0F901EB58FD4F6083672BCD
:1009B000E1F0F901EE58FD4F9081811103C069B15A
:1009C0006C7F0FC0813049F463B136B16F7340E47E
:1009D000349F90011124622B04C066B16C7366953C
:1009E0006695692341E00C948D040895EF92FF927F
:1009F0000F931F93CF93DF93D82F8B01C42FF22E29
:100A00006F3F8FEF7807F9F081E08093D602D093A3
:100A1000F8021092D7021092F90287E594E00E9442
:100A2000220D8F2D0E94B10A809160029091610287
:100A30008230910550F0880F991F880F991F0597F4
:100A40000197F1F702C000E010E08091D50281111A
:100A5000FCCF9C2FC13208F090E281E08093D50258
:100A60008093D4022FEF2093D3021092D202290F49
:100A70002093D1028093B0028091B0022D2F220FDB
:100A8000822B8093B0028091AF02813061F410928A
:100A9000AF028091B0028093BB008091BC0083FDC7
:100AA000F8CF85EC01C085EE8093BC008091D50223
:100AB0008130E1F38091D202891710F49091D20233
:100AC000E1EBF2E0A7ECB4E080E0891721F021919E
:100AD0002D938F5FFACF1092E8048093E704EC2EF9
:100AE000F12C90E0E816F9061CF482E591E005C0CF
:100AF0008E159F0524F48FE691E00E946E0AD09334
:100B000020020093210200E212E0C80180529240CC
:100B10008E159F057CF40F5F1F4F9091E704809125
:100B2000E804981739F087E594E00E94D90CF801A1
:100B30008183EBCFCE5F6C2F70E040E252E087E71D
:100B4000DF91CF911F910F91FF90EF900C94210AAC
:100B5000EF92FF920F931F93CF93DF9390E0FC01EE
:100B6000E956F109E231F10508F063C2EA01162FF6
:100B7000E05CFF4F0C9494162981922F987125FF09
:100B800003C08BE891E059C0888131E026FB222721
:100B900020F92327983061F160F491114AC2309313
:100BA000D6028093F8021092D7021092F90202E066
:100BB00006C09031E1F1983109F46EC03AC20117D4
:100BC00078F4FE01E00FF11D618167956627679556
:100BD0008081680F87E594E00E94220D0E5FEFCFC1
:100BE00081E00E94B10A83E191E00197F1F721C20F
:100BF0004B816A81163069F470E030E8439F600DE4
:100C0000711D11244D814795442747959C81490FBB
:100C100006C0479544274795460F6FEF7FEFDF915A
:100C2000CF911F910F91FF90EF900C94F604E091FB
:100C30000001E73054F08BEA91E0DF91CF911F91F2
:100C40000F91FF90EF900C946E0A9B813A81663071
:100C500071F4632F70E0F0E89F9F600D711D112407
:100C60009D819795992797954C81940F06C09795EC
:100C700099279795930F6FEF7FEFEF5FE093000158
:100C800035E0E302F0011124E858FD4F80837283C0
:100C9000618393832483CDC12091000112163CF41B
:100CA00090E0622F022E000C770B35E00FC08FEF23
:100CB00080930001BEC1349FF001359FF00D1124D7
:100CC000E858FD4F4081841739F09F5F492F50E06D
:100CD0006417750784F790E085E022C09830F8F437
:100CE000FA0131968E9FD0018F9FB00D1124A85824
:100CF000BD4F3C91849FF001859FF00D1124E85871
:100D0000FD4F308311964D915C9112975283418330
:100D100013963C911397338314963C9134839F5FD1
:100D2000492F50E064177507CCF62150209300013D
:100D300080C12981888190E0E0E82E9F800D911D7F
:100D40001124009721F090936102809360028091BA
:100D5000C50481116EC1C0E08EEE8C0F823028F484
:100D600066E070E08C2F0E942703CF5FC431A1F7AB
:100D700081E08093C5041092E8041092E704109279
:100D8000D7021092F9021092D5028093D4021092E9
:100D9000AF0261E082E10E94550B61E083E10E94B5
:100DA000550B8091B9008E7F8093B9008091B90076
:100DB0008D7F8093B90088E48093B80085E48093A8
:100DC000BC0087EC9CE09093EA048093E90488ECF3
:100DD0009CE09093EC048093EB042BC1653008F405
:100DE00028C118818EEF810F823108F022C109815C
:100DF000EA80FB80CC81E12FF0E0E255FB4F80815F
:100E00008C30B0F490E0FC01EE0FFF1F8E0F9F1F9F
:100E1000FC01E857FB4F808190E0FC01EE0FFF1FC3
:100E20008E0F9F1FFC01ED59FB4F808186FDFDC099
:100E30004F2D50E0F0E8CF9F400D511D1124602F41
:100E400070E020E8E29E600D711D1124812F0E9448
:100E5000E90264E070E0812FDF91CF911F910F9143
:100E6000FF90EF900C942703623008F4E2C02981D0
:100E7000888190E030E8239F800D911D1124009718
:100E800011F481E090E09093020180930101D1C0C0
:100E9000623008F4CEC0698170E0123091F08A812E
:100EA000E0E88E9FC0011124682B792B133049F0A4
:100EB0008B8190E090E4899F902D88271124682BE6
:100EC000792B8881DF91CF911F910F91FF90EF9047
:100ED0000C94C20180EF0E94A40A8CE60E94A40A2E
:100EE000CEEF84EF8C0F863038F482E00E94A40AA3
:100EF0008AE00E94A40A09C0C13039F483E00E944C
:100F0000A40A88E00E94A40A08C08DEF8C0F8230EA
:100F1000A8F389EF8C0F833088F3C23130F484E07A
:100F20000E94A40A8EE00E94A40A80EF8C0F8230F7
:100F300030F486E00E94A40A81E00E94A40A8FE7B0
:100F40000E94A40ACF5FC23121F1C23150F680E085
:100F50000E94A40A81E00E94A40A8BE00E94A40AD5
:100F600081E00E94A40A81E00E94A40A81E00E941C
:100F7000A40AB7CF662309F45CC0C88180EF0E9441
:100F8000A40A8EE60E94A40A8C2F0E94A40AC431EF
:100F900048F087EFDF91CF911F910F91FF90EF9075
:100FA0000C94A40AD0E0FE01E65EFB4F80810E9413
:100FB000A40ACC0FDD1F8E01025D1B4FF80180815A
:100FC0008F770E94A40AF801808191819C0120788A
:100FD000232B39F0880F892F881F990B8F770E9458
:100FE000A40AC25DDB4F888199819C012227307C55
:100FF000232B79F2990F880B990F982F881F8F77E1
:101000000E94A40AC6CF80EF0E94A40A8AE60E942A
:10101000A40AC2EFC63010F48C2F01C08FE70E94E3
:10102000A40ACF5FC630B1F7B4CF812F0E94A500CC
:10103000FFCEDF91CF911F910F91FF90EF90089518
:10104000CF92DF92EF92FF920F931F93CF93DF9394
:101050006C017A018B01C0E0D0E0CE15DF0581F094
:10106000D8016D918D01D601ED91FC910190F08137
:10107000E02DC6010995892B11F02196EECF7E0156
:10108000C701DF91CF911F910F91FF90EF90DF90FB
:10109000CF900895FC01538D448D252F30E0842F8F
:1010A00090E0821B930B541710F0CF960895019790
:1010B0000895FC01918D828D981761F0828DDF017A
:1010C000A80FB11D5D968C91928D9F5F9F73928F3B
:1010D00090E008958FEF9FEF0895FC01918D828D30
:1010E000981731F0828DE80FF11D858D90E00895FD
:1010F0008FEF9FEF08950E94BB178AEF92E00E9446
:101100002F0C21E0892B09F420E0822F0895EF9223
:10111000FF920F931F93CF93DF93EC0181E0888FB1
:101120009B8D8C8D981305C0E889F989808185FD98
:1011300026C0F62E0B8D10E00F5F1F4F0F73112787
:10114000E02E8C8DE8120CC00FB607FCFACFE889B0
:10115000F989808185FFF5CFCE010E94A70DF1CFDF
:101160008B8DFE01E80FF11DE35AFF4FF0829FB710
:10117000F8940B8FEA89FB89808180620AC09FB74F
:10118000F894EE89FF896083E889F989808183700A
:10119000806480839FBF81E090E0DF91CF911F91B9
:1011A0000F91FF90EF900895CF93DF93EC01888D1E
:1011B0008823C9F0EA89FB89808185FD05C0A8895B
:1011C000B9898C9186FD0FC00FB607FCF5CF8081E1
:1011D00085FFF2CFA889B9898C9185FFEDCFCE012B
:1011E0000E94A70DE7CFDF91CF9108953FB7F89404
:1011F0008091AB029091AC02A091AD02B091AE0291
:1012000026B5A89B05C02F3F19F00196A11DB11D61
:101210003FBFBA2FA92F982F8827820F911DA11D9C
:10122000B11DBC01CD0142E0660F771F881F991FD9
:101230004A95D1F708951F920F920FB60F9211247D
:101240002F933F938F939F93AF93BF938091A70268
:101250009091A802A091A902B091AA023091A60291
:1012600023E0230F2D3720F40196A11DB11D05C0E9
:1012700026E8230F0296A11DB11D2093A60280939C
:10128000A7029093A802A093A902B093AA0280910A
:10129000AB029091AC02A091AD02B091AE0201966A
:1012A000A11DB11D8093AB029093AC02A093AD023F
:1012B000B093AE02BF91AF919F918F913F912F91CB
:1012C0000F900FBE0F901F9018951F920F920FB6A0
:1012D0000F9211242F933F934F935F936F937F93BC
:1012E0008F939F93AF93BF93EF93FF938AEF92E017
:1012F0000E94A70DFF91EF91BF91AF919F918F91A8
:101300007F916F915F914F913F912F910F900FBE01
:101310000F901F9018951F920F920FB60F921124E5
:101320002F938F939F93EF93FF93E0910A03F09194
:101330000B038081E0911003F091110382FD12C034
:101340009081809113038F5F8F7320911403821714
:1013500051F0E0911303F0E0E650FD4F958F80933C
:10136000130301C08081FF91EF919F918F912F9185
:101370000F900FBE0F901F9018951F93CF93DF9380
:1013800000D0CDB7DEB7182F7A8369838091D70359
:101390009091D803009709F44EC0DC01ED91FC91C7
:1013A0001031A8F46115704490F4612F606E0190C3
:1013B000F081E02D099522E030E0AE014F5F5F4FF4
:1013C00062E070E087ED93E00E94D30D34C001909D
:1013D000F081E02D60EF09958091D7039091D803BB
:1013E000DC01ED91FC910190F081E02D6FE6099513
:1013F0008091D7039091D803DC01ED91FC9101908D
:10140000F081E02D612F099522E030E0AE014F5FC1
:101410005F4F62E070E087ED93E00E94D30D809112
:10142000D7039091D803DC01ED91FC910190F081FC
:10143000E02D67EF09950F900F90DF91CF911F91ED
:101440000895EF92FF920F931F93CF93DF93C82FCE
:101450008091D7039091D8030097C9F17A018B014D
:10146000DC01ED91FC910190F081E02D60EF099598
:101470008091D7039091D803DC01ED91FC9101900C
:10148000F081E02D6C2F0995E7010E0D1F1DC0178F
:10149000D10759F020E030E0AE0161E070E087ED67
:1014A00093E00E94D30D2196F2CF8091D7039091C3
:1014B000D803DC01ED91FC910190F081E02D67EF04
:1014C000DF91CF911F910F91FF90EF900994DF91E1
:1014D000CF911F910F91FF90EF900895FC01019023
:1014E0000020E9F73197BF01681B790BAC0181E758
:1014F0000C94210ACF93DF93FC01A081B181109756
:1015000001F1EC01ED91FC9111970190F081E02D3A
:1015100069EFCD01099588819981DC01ED91FC91FC
:101520000190F081E02D62E0099588819981DC01CC
:10153000ED91FC910190F081E02D65E0DF91CF917C
:101540000994DF91CF910895A0911504B0911604EC
:10155000ED91FC9111970190F081E02D682FCD0164
:101560000994282F3091F902313208F04AC0809155
:10157000D5028111FCCF9091F80242E04093D50250
:101580002093D4022FEF2093D3021092D2023093F3
:10159000D102E8EDF2E0A1EBB2E020E0321721F059
:1015A00041914D932F5FFACF1092B0022091B0027B
:1015B000990F922B9093B0029091AF02913061F409
:1015C0001092AF029091B0029093BB009091BC003A
:1015D00093FDF8CF95EC01C095EE9093BC009091EF
:1015E000D5029230E1F39091D3029F3F79F0809140
:1015F000D302803241F08091D302803331F084E015
:1016000005C081E003C082E001C083E01092D702F0
:101610001092F9021092D60208951F93CF93DF9390
:10162000182FEB018091DC039091DD036817790797
:10163000A8F0E0910904F0910A0481E03097C1F02C
:101640008093D9038091F5039091F60309958091D9
:10165000DC039091DD03C817D90748F48091DA03C1
:101660009091DB03C80FD91F188380E001C081E08F
:10167000DF91CF911F910895AC01FB0180E090E0D4
:101680009C01220F331F2417350770F4DB012C91C6
:10169000208311963C91379533273795232B21933F
:1016A00001966E5F7F4FECCF089590E0FC01E05211
:1016B000FF4F2491FC01E453FF4F3491FC01E854A7
:1016C000FF4FE491EE2309F43CC0222339F123308B
:1016D00091F038F42130A9F0223001F584B58F7DE6
:1016E00012C0273091F02830A1F02430B9F4809155
:1016F00080008F7D03C0809180008F778093800071
:101700000DC084B58F7784BD09C08091B0008F77FC
:1017100003C08091B0008F7D8093B000F0E0EE0FA9
:10172000FF1FE255FF4FA591B4919FB7F894611147
:1017300004C08C913095382302C0EC913E2B3C9331
:101740009FBF0895CF93DF9390E0FC01E453FF4FD8
:101750002491FC01E854FF4F8491882361F190E0CB
:10176000880F991FFC01EC55FF4FC591D491FC01E6
:10177000E255FF4FA591B491611109C09FB7F8944C
:101780008881209582238883EC912E230BC06230C0
:1017900061F49FB7F8948881322F30958323888332
:1017A000EC912E2B2C939FBF06C08FB7F894E88145
:1017B0002E2B28838FBFDF91CF9108958E3008F0B4
:1017C0008E508770806480937C0080917A00806462
:1017D00080937A0080917A0086FDFCCF809178001A
:1017E0002091790090E0922B08958F929F92AF9272
:1017F000BF92CF92DF92EF92FF926B017C010E9429
:10180000F6084B015C01C114D104E104F104F1F0CC
:101810000E94F608DC01CB0188199909AA09BB09C5
:10182000883E9340A105B10570F321E0C21AD108AA
:10183000E108F10888EE880E83E0981EA11CB11C17
:10184000C114D104E104F10419F7DDCFFF90EF904A
:10185000DF90CF90BF90AF909F908F900895FC0144
:10186000918D228D892F90E0805C9F4F821B910982
:101870008F739927089580E090E0892B29F00E94CA
:101880007D0881110C9400000895E0917002F091A0
:101890007102309709F009940895862F642FE09122
:1018A0006E02F0916F02309711F0A901099408952A
:1018B0000895862FE0916602F0916702309711F04B
:1018C000BA0109940895862FE0916802F0916902A7
:1018D000309711F0BA0109940895862FE0916202C1
:1018E000F0916302309711F0BA0109940895862FA0
:1018F000E0916402F0916502309711F0BA01099409
:101900000895862FE0916A02F0916B02309711F0F2
:10191000BA0109940895862FE0916C02F0916D024E
:10192000309711F0BA010994089585ED8093BC00B9
:101930008091BC0084FDFCCF1092D50208954091A7
:101940000E05262F30E0240F311D21323105DCF445
:101950002091D5022430C9F4FC0180E090E0861784
:1019600058F430910E052191DC01A251BB4FA30F19
:10197000B11D2C930196F3CF80910E05680F6093F3
:101980000E0580E0089581E0089582E008950895AD
:1019900008950895E091E8048091E704E81730F491
:1019A000F0E0E953FB4F808190E008958FEF9FEFC7
:1019B00008959091E8048091E704981750F4E92F76
:1019C000F0E0E953FB4F208130E09F5F9093E80403
:1019D00002C02FEF3FEFC90108958091E70490E026
:1019E0002091E804821B91090895CF92DF92EF9233
:1019F000FF920F931F93CF93DF937C01CB018A015A
:101A00002091D602222389F0EB016B01C40ED51E72
:101A1000CC15DD0569F06991D701ED91FC9101903C
:101A2000F081E02DC7010995F3CF642F0E949F0C30
:101A3000C801DF91CF911F910F91FF90EF90DF9040
:101A4000CF900895CF93DF931F92CDB7DEB7698310
:101A50002091D6022223D1F02091F902203240F0C9
:101A600021E030E0FC013383228380E090E015C068
:101A70008091D702E82FF0E0E852FD4F99819083E2
:101A80008F5F8093D7028093F90205C061E0CE0199
:101A900001960E949F0C81E090E00F90DF91CF9122
:101AA0000895089580E090E00895009721F0805C0B
:101AB0009F4F0C947A0A08950F931F93CF93DF934F
:101AC00081E08093C6048091C504882329F0109298
:101AD000C5048FEF8093000110927502109272027C
:101AE0001092C20410927602109273021092C304F4
:101AF00010927702109274021092C4040EEA14E05D
:101B0000C0E0DFEF82EF8C0F863018F462E070E007
:101B100006C08EEF8C0F823128F461E070E08C2FCC
:101B20000E942703F801D1938F01CF5FC43151F791
:101B30001092A1021092A0021092AD041092AC0477
:101B40001092C604DF91CF911F910F910895FC016F
:101B5000848DDF01A80FB11DA35ABF4F2C91848D36
:101B600090E001968F739927848FA689B7892C936B
:101B7000A089B1898C91837080648C93938D848DBE
:101B8000981306C00288F389E02D80818F7D8083C1
:101B900008951F920F920FB60F9211240F900FBE4F
:101BA0000F901F9018953F924F925F926F927F9285
:101BB0008F929F92AF92BF92CF92DF92EF92FF925D
:101BC0000F931F93CF93DF935C016901DA013C907F
:101BD000232B19F4CC24CA94DC2C7A012A01460E5A
:101BE000571EC0E0D0E000E010E087E0682E712CC6
:101BF000E414F50409F443C00C151D0508F067C092
:101C00004701F50180819181D7016D917D010C2EF5
:101C100001C0660F0A94EAF763296F77DC01ED9142
:101C2000FC910190F081E02D09950F5F1F4FF401A9
:101C3000608170E0C3018C1B9D0B02C07595679598
:101C40008A95E2F7362E2196C730D10588F2C01664
:101C5000D10699F0D5018D919C91632D6F77DC01B0
:101C6000ED91FC910190F081E02D09950F5F1F4FE0
:101C7000331C3324331C2797E7CF8601B9CF209735
:101C800031F10C151D0518F5F5018081918161E098
:101C900070E001C0660FCA95EAF761506321DC016C
:101CA000ED91FC910190F081E02DDF91CF911F919A
:101CB0000F91FF90EF90DF90CF90BF90AF909F90EB
:101CC0008F907F906F905F904F903F900994DF913D
:101CD000CF911F910F91FF90EF90DF90CF90BF9029
:101CE000AF909F908F907F906F905F904F903F90BC
:101CF0000895DF92EF92FF920F931F93CF93DF939C
:101D0000FC01E058FF4FD080DD2009F45DC0EC01FC
:101D1000C05CDF4FA881B981109709F455C0FC0160
:101D2000EF57FF4F00811181F801F180E080ED91C4
:101D3000FC9111970190F081E02D60EFCD010995A4
:101D400088819981DC01ED91FC910190F081E02D79
:101D500069E7099588819981DC01ED91FC910190F9
:101D6000F081E02D6E2D099588819981DC01ED913E
:101D7000FC910190F081E02D6F2D09957801B2E082
:101D8000EB0EF11C0D0D111DE016F10661F020E0C7
:101D900030E0A70161E070E0CE010E94D30DEFEFCB
:101DA000EE1AFE0AF1CF88819981DC01ED91FC9158
:101DB0000190F081E02D67EFDF91CF911F910F919E
:101DC000FF90EF90DF900994DF91CF911F910F91D9
:101DD000FF90EF90DF900895009711F00C94790E2A
:101DE00008951F920F920FB60F9211242F933F93D5
:101DF0004F935F936F937F938F939F93AF93BF9313
:101E0000EF93FF938091B900887F803609F49CC0DE
:101E100068F5883209F45BC090F4803109F454C04D
:101E200038F4882309F4F6C0883009F44DC0F6C0B0
:101E3000883109F44CC0803209F45DC0EFC08034B1
:101E400009F468C048F4803309F455C0883309F0B8
:101E5000E5C08093D302D8C0803509F44FC08835DF
:101E600009F45DC0883409F0D9C0D6C0883909F4B6
:101E7000C7C0A8F4883709F467C038F4883609F475
:101E800063C0803709F460C0C9C0883809F4B8C09D
:101E9000803909F45FC0803809F0C0C05BC0803B66
:101EA00009F486C038F4803A09F466C0883A09F427
:101EB0007FC0B4C0803C09F4A7C0883C09F4A4C02A
:101EC000883B09F48AC0AAC08091B00210C09091EA
:101ED000D2028091D102981770F5E091D20281E090
:101EE0008E0F8093D202F0E0EF54FD4F80818093FB
:101EF000BB0085EC86C08093D3028EC0E091D202F5
:101F000081E08E0F8093D2028091BB00F0E0EF540D
:101F1000FD4F80839091D2028091D1026EC0E091FA
:101F2000D20281E08E0F8093D2028091BB00F0E05C
:101F3000EF54FD4F80838091D40281116DC081E008
:101F40008093AF0284EA61C083E08093D50210924F
:101F50003005CFCF80913005803208F051C0E0913C
:101F6000300581E08E0F809330058091BB00F0E05A
:101F7000E05FFA4F8083BDCF85EC8093BC00109268
:101F8000D50280913005803230F4E0913005F0E0E8
:101F9000E05FFA4F10826091300570E0E091EB0451
:101FA000F091EC0480E195E009951092300536C07F
:101FB00084E08093D50210920F0510920E05E091F7
:101FC000E904F091EA04099580910E05811105C09C
:101FD00081E080930E051092EE04E0910F0581E000
:101FE0008E0F80930F05F0E0E251FB4F80818093CC
:101FF000BB0090910F0580910E05981708F479CFDA
:1020000085E88093BC000AC085EC8093BC001092E8
:10201000D50204C01092D3020E94950CFF91EF915B
:10202000BF91AF919F918F917F916F915F914F91F0
:102030003F912F910F900FBE0F901F901895DF9238
:10204000EF92FF920F931F93CF93DF93EC01D62E65
:102050007A01890188818C3008F068C061E08D2D9B
:102060000E94A20B8881E82FF0E09F01220F331F0E
:10207000E20FF31FED59FB4F9D2D9F732081207CB4
:10208000D22ED92AD08220E232E02E193F0937FF22
:1020900002C02D5F3F4F35952795359527952983AC
:1020A00020E639E0201B310B37FF02C02D5F3F4F88
:1020B00035952795359527952A836CE00E948816DB
:1020C0009CE0899FB001112440E050E09B01240F67
:1020D000351FF901EE0FFF1F2E0F3F1FF901ED59BC
:1020E000FB4F908196FD16C04F5F5F4F4C305105FE
:1020F00069F781110FC01092800082E08093810007
:102100001092850010928400B19A80916F008260D5
:1021100080936F00E881F0E0CF01880F991FE80FEE
:10212000F91FED59FB4F8081806480838881DF91A6
:10213000CF911F910F91FF90EF90DF9008951F9224
:102140000F920FB60F9211242F933F934F935F93EB
:102150006F937F938F939F93AF93BF93EF93FF936F
:102160008091ED0487FF05C01092850010928400D5
:102170001BC02091ED04022E000C330B80918704CC
:1021800090E02817390784F48091ED04082E000CA4
:10219000990BFC01EE0FFF1F8E0F9F1FFC01ED59E5
:1021A000FB4F808186FD15C08091ED048F5F809389
:1021B000ED042091ED04022E000C330B8091870476
:1021C00090E028173907C4F48091ED048C3064F155
:1021D00013C08091ED04082E000C990BFC01EE0F4A
:1021E000FF1F8E0F9F1FFC01ED59FB4F808160E0A8
:1021F0008F730E94550BD8CF8091840090918500F9
:10220000049680349C4918F480E49CE905C08091D0
:1022100084009091850004969093890080938800B3
:102220008FEF8093ED043BC02091840030918500B6
:102230008091ED04082E000C990BFC01EE0FFF1F9E
:102240008E0F9F1FFC01ED59FB4F81819281820F00
:10225000931F90938900809388008091ED04082E4D
:10226000000C990BFC01EE0FFF1F8E0F9F1FFC014E
:10227000ED59FB4F808186FF12C08091ED04082E3E
:10228000000C990BFC01EE0FFF1F8E0F9F1FFC012E
:10229000ED59FB4F808161E08F730E94550BFF91D8
:1022A000EF91BF91AF919F918F917F916F915F91CE
:1022B0004F913F912F910F900FBE0F901F90189547
:1022C000789484B5826084BD84B5816084BD85B511
:1022D000826085BD85B5816085BD80916E0081601D
:1022E00080936E00109281008091810082608093C3
:1022F00081008091810081608093810080918000C5
:102300008160809380008091B10084608093B100EF
:102310008091B00081608093B00080917A008460E9
:1023200080937A0080917A00826080937A00809115
:102330007A00816080937A0080917A00806880932F
:102340007A001092C10085E18093170480911804EF
:10235000909119040E943217C0911704D0E0CE0169
:1023600001960E949A169093190480931804FC0118
:10237000EC0FFD1F108212E0DC011C9325E011968A
:102380002C93AE014250510960E072E002960E9427
:10239000C01782EC91E090936D0280936C0282E210
:1023A00091E090936B0280936A028DEE90E090939F
:1023B0006902809368028FEC94E0909367028093A7
:1023C000660287E293E0909365028093640288ED51
:1023D00090E0909363028093620288EA95E0909384
:1023E0006F0280936E028CE59DE090937102809362
:1023F0007002E0910A03F0910B031083E091060351
:10240000F09107031082E0910803F091090380E145
:10241000808310921203E0910E03F0910F0386E087
:102420008083E0910C03F0910D03808180618083B3
:10243000E0910C03F0910D03808188608083E0912E
:102440000C03F0910D03808180688083E0910C0380
:10245000F0910D0380818F7D8083809156048111DE
:1024600040C061E08DE00E94A20BC0E062ED70E030
:1024700080E090E00E94F50B61E08DE00E94550B3A
:1024800068E270E080E090E00E94F50B60E08DE093
:102490000E94550BCF5FC23049F76AEF70E080E0D1
:1024A00090E00E94F50BC0E062ED70E080E090E00B
:1024B0000E94F50B61E08DE00E94550B68E270E030
:1024C00080E090E00E94F50B60E08DE00E94550BEB
:1024D000CF5FC53049F76DE770E080E090E00E9483
:1024E000F50B8AEF92E09093160480931504909375
:1024F000D8038093D70387ED93E00E947A0A87E997
:1025000093E00E94790E0E945C0DEE24E394C2E0F9
:10251000D0E001E010E025E0D22E80917502882302
:1025200049F069B18091720268236C7F40E080E0DD
:102530000E948D0480917602882381F083B196B148
:10254000682F6F73B0E49B9FC0011124862B6091AC
:102550007302682340E081E00E948D04809177023D
:10256000882359F066B16C73669566958091740204
:10257000682340E082E00E948D04809115049091D0
:102580001604DC01ED91FC910084F185E02D0995A4
:10259000892B09F4CEC18091150490911604DC01B9
:1025A000ED91FC910284F385E02D09959C018F3F0C
:1025B000BFEF9B0711F3982F8091E203882309F462
:1025C00092C0973F09F07EC01092E203A091DA0317
:1025D000B091DB036C916137C1F1693709F05CC0E0
:1025E000E0910F04F0911004309739F28091E303E9
:1025F0009091E4038330910538F420E030E040E02E
:1026000050E060E070E01BC0BD016D5F7F4F03973D
:102610000E943C0BBC016D5F7F4F80E00E940D0B60
:10262000E091DA03F091DB039F012D5F3F4F428180
:1026300050E0618170E0E0910F04F091100480910E
:10264000F1039091F203099598CF80910B0490913A
:102650000C04892B09F491CFBD016F5F7F4F8091EE
:10266000E3039091E40301970E943C0BBC016F5F70
:102670007F4F80E00E940D0B6091DA037091DB03C5
:102680006F5F7F4FE0910B04F0910C048091F70392
:102690009091F803099571CFE0910D04F0910E042B
:1026A000309709F46ACF9D012F5F3F4F4091E303BC
:1026B0005091E403415051098091F9039091FA033C
:1026C00009955BCF6091E3037091E403822F0E9430
:1026D0000D0B8091E3039091E40301969093E40342
:1026E0008093E3034ACF6091E0037091E1036115A9
:1026F000710509F4AFC027FDADC061507109709339
:10270000E1036093E003822F0E940D0B8091E003B0
:102710009091E103892B09F030CF8091DE0388236B
:1027200009F42BCF803D09F47FC030F4803939F1B2
:10273000803C09F466C08BC0843FE1F1853F09F419
:102740004DC0803E09F083C0E091FD03F091FE038F
:10275000309709F47CC0A091DA03B091DB038C912F
:1027600011964C9150E020E8829F400D511D11249C
:102770006091DF038091E5039091E60367C0E091EB
:10278000FF03F0910004309709F461C0A091DA03CF
:10279000B091DB038C9111964C9150E090E8899FA9
:1027A000400D511D11246091DF038091E70390914A
:1027B000E8034CC0E0910504F0910604309709F459
:1027C00046C0A091DA03B091DB034C9150E0119622
:1027D0006C918091ED039091EE0338C0E091070475
:1027E000F0910804309799F1A091DA03B091DB03DE
:1027F0004C9150E011966C918091EF039091F00311
:1028000025C0E0910104F0910204309701F1A091FC
:10281000DA03B091DB034C9150E06091DF038091CB
:10282000E9039091EA0312C0E0910304F0910404DB
:10283000309769F0A091DA03B091DB034C9150E03E
:102840006091DF038091EB039091EC030995109266
:10285000DE0393CE903F30F4822F8F708093DF039E
:10286000922F907F903F79F158F4903C29F118F421
:102870009039E9F082CE903DF9F0903EC1F07DCEE6
:10288000993F09F449C028F48CE0890F823078F030
:1028900074CE9F3F09F071CE1092E1031092E003D5
:1028A0001092DE031092DF0380E090E013C0D0931B
:1028B000E103C093E00304C01093E1030093E0033D
:1028C0009093DE035ACEE092E2031092E40310925A
:1028D000E30353CE2091DC033091DD03821793078D
:1028E00048F4E091DA03F091DB03E80FF91F10825E
:1028F0000196F0CF1092E2031092E4031092E303EA
:10290000E0911304F0911404309709F436CE8091CD
:10291000FB039091FC030BC0E0911104F0911204B1
:10292000309709F42ACE8091F3039091F40309952E
:1029300024CE8FB7F8944091A7025091A8026091DD
:10294000A9027091AA028FBF8090A2029090A30268
:10295000A090A402B090A502209101013091020143
:10296000C901A0E0B0E0481959096A097B09841738
:102970009507A607B70708F052C0880D991DAA1D34
:10298000BB1D8093A2029093A302A093A402B093D4
:10299000A5028AE1A82E84E0B82E92EFF92EA5E0D8
:1029A000AF15B8F0F5018081823099F48091A002D2
:1029B0009091A1020F2C02C0959587950A94E2F799
:1029C00080FF07C08F2D0E94DE0BBC018F2D0E945F
:1029D000BD09F394FFEFAF1ABF0A26E0F212DFCF72
:1029E0008091000187FD1BC0F12C2F2D30E08091DC
:1029F0000001082E000C990B8217930784F0D29ED9
:102A0000F001D39EF00D1124E858FD4F61817281D1
:102A10002481438180810E94F604F394E6CF0E94D2
:102A20003B0C7BCD1092FD021092FC0248EE53E06D
:102A300060E070E04093FE025093FF026093000359
:102A4000709301038DE091E09093FB028093FA0272
:102A500085EC90E0909307038093060384EC90E06C
:102A6000909309038093080380EC90E090930B030C
:102A700080930A0381EC90E090930D0380930C0304
:102A800082EC90E090930F0380930E0386EC90E02D
:102A90009093110380931003109213031092140368
:102AA000109215031092160387E993E01092D80351
:102AB0001092D7039093DB038093DA0320E430E095
:102AC0003093DD032093DC031092DE031092DF03CA
:102AD0001092E1031092E0031092E2031092E403DB
:102AE0001092E3031092E6031092E5031092E803BC
:102AF0001092E7031092EA031092E9031092EC039C
:102B00001092EB031092EE031092ED031092F0037B
:102B10001092EF031092F6031092F5031092F8034F
:102B20001092F7031092FA031092F9031092FC032B
:102B30001092FB0310920A04109209041092D90318
:102B4000109217041092190410921804109256044F
:102B50002BE83CE03093FE032093FD0321E83CE0AA
:102B6000309300042093FF0323E63CE030930204FB
:102B70002093010429E53CE03093040420930304EE
:102B800027E73CE030930604209305042DE63CE063
:102B9000309308042093070428E53CE030930C04AC
:102BA00020930B042DE43CE030930E0420930D049D
:102BB0002CEE3EE03093100420930F049093F20328
:102BC0008093F10325E53DE0309312042093110436
:102BD0009093F4038093F30385E49CE090931404B2
:102BE0008093130410925A041092590440935B048A
:102BF00050935C0460935D0470935E048FE191E0F8
:102C0000909358048093570480918704A8E8B4E017
:102C10009FEF48EB5BE08C3078F48C93282F30E00A
:102C2000F901EE0FFF1F2E0F3F1FF901ED59FB4F6A
:102C3000528341838F5F01C09C93139624E0AC3A8A
:102C4000B20749F7809387040895052E97FB1EF479
:102C500000940E943C1657FD07D00E94571607FCAF
:102C600003D04EF40C943C16509540953095219528
:102C70003F4F4F4F5F4F08959095809570956195A8
:102C80007F4F8F4F9F4F08950E947916A59F900DFB
:102C9000B49F900DA49F800D911D11240895B7FF3E
:102CA0000C9444160E944416821B930B0895A1E2D3
:102CB0001A2EAA1BBB1BFD010DC0AA1FBB1FEE1FB6
:102CC000FF1FA217B307E407F50720F0A21BB30B01
:102CD000E40BF50B661F771F881F991F1A9469F77D
:102CE00060957095809590959B01AC01BD01CF01D9
:102CF0000895A29FB001B39FC001A39F700D811DD5
:102D00001124911DB29F700D811D1124911D0895F4
:102D1000991B79E004C0991F961708F0961B881F2D
:102D20007A95C9F780950895EE0FFF1F0590F491ED
:102D3000E02D09940F931F93CF93DF938230910579
:102D400010F482E090E0E0913505F091360520E046
:102D500030E0A0E0B0E0309719F14081518102816C
:102D6000138148175907C8F08417950769F410971D
:102D700031F012960C93129713961C9327C0009370
:102D800035051093360522C02115310519F042177B
:102D9000530718F49A01BD01EF01DF01F801DBCF01
:102DA00021153105F9F0281B390B2430310580F449
:102DB0008A819B816115710521F0FB0193838283D8
:102DC00004C09093360580933505FE01329644C0C9
:102DD000FE01E20FF31F8193919322503109398351
:102DE00028833AC02091330530913405232B41F4D8
:102DF000209105013091060130933405209333056D
:102E000020910301309104012115310541F42DB7C2
:102E10003EB74091070150910801241B350BE0910A
:102E20003305F0913405E217F307A0F42E1B3F0B96
:102E30002817390778F0AC014E5F5F4F241735072C
:102E400048F04E0F5F1F5093340540933305819334
:102E5000919302C0E0E0F0E0CF01DF91CF911F91AC
:102E60000F910895CF93DF93009709F481C0FC017F
:102E7000329713821282A0913505B09136051097D2
:102E800081F420813181820F931F2091330530918D
:102E900034052817390751F5F0933405E0933305CD
:102EA00067C0ED0120E030E0CE17DF0740F44A8133
:102EB0005B819E0141155105F1F0EA01F5CFD38305
:102EC000C28340815181840F951FC817D90759F4D7
:102ED00088819981840F951F0296918380838A81CE
:102EE0009B81938382832115310529F4F093360564
:102EF000E09335053DC0E901FB83EA83499159918F
:102F0000C40FD51FEC17FD0761F480819181840FF8
:102F1000951F0296E90199838883828193819B831F
:102F20008A83E0E0F0E012968D919C9113970097D0
:102F300019F0FD01DC01F7CF8D919C9111979D0156
:102F40002E5F3F4F820F931F209133053091340540
:102F50002817390769F4309729F410923605109232
:102F6000350502C013821282B0933405A093330555
:102F7000DF91CF91089581E090E0F8940C94CF1701
:102F8000FB01DC014150504048F001900D920020BF
:102F9000C9F701C01D9241505040E0F70895F894E0
:022FA000FFCF61
:102FA200FF130000003705800000000000870820A2
:102FB200084A08D4082F0C59086D080000000022A6
:102FC2000DF50C520DC90CED0CD90CCA0C4D6178E3
:102FD20020736572766F73206174746163686564CF
:102FE20000556E6B6E6F776E2070696E206D6F6428
:102FF20065004932433A20546F6F206D616E79202B
:1030020062797465732072656365697665640049E7
:1030120032433A20546F6F20666577206279746577
:10302200732072656365697665640031302D62696B
:10303200742061646472657373696E67206E6F7465
:1030420020737570706F7274656400746F6F206D99
:10305200616E79207175657269657300433A5C55DA
:10306200736572735C41444D494E497E315C4170D7
:1030720070446174615C4C6F63616C5C54656D702B
:103082005C61726475696E6F5F6D6F6469666965B4
:10309200645F736B657463685F3633303537395CF0
:1030A2005374616E646172644669726D6174612EFB
:0430B200696E6F00D4
:00000001FF
