:1000000044C1000073C1000071C100006FC1000055
:100010006DC100006BC1000069C1000067C1000034
:1000200065C100000C9418110C9418110C9418114F
:100030005DC100005BC1000059C1000057C1000054
:1000400055C100000C94A41451C100004FC1000020
:100050004DC100004BC1000049C100000C94F714D1
:1000600045C100000C94EF100C94C6103FC1000075
:100070003DC100003BC1000039C1000037C1000094
:100080000C94761433C1000031C100002FC1000070
:100090000C949D100C94741029C100000C943E1215
:1000A00025C1000023C100000C9448141FC10000AA
:1000B0001DC100001BC1000019C100000C941A14DE
:1000C00015C1000013C1000011C100000C944B10B9
:1000D0000C9422100BC100000C94F90F0C94D00F5B
:1000E00005C100007F038403890393039D03160465
:1000F000A703AF03B703C103CB03D503E403EE03A8
:100100001604F80302040C040C052F05FB04460535
:100110005E0590058505900590059005B8051A05C2
:10012000700A830AF509830A2F0A830AD4097C0915
:10013000830A830A830A830A830A5108830A2A09E5
:10014000830AC009A50AA80A970A9B0AA10ADF0A1E
:10015000AC0AB00AB60ABA0ABE0AC40AC80ACC0A6D
:10016000DF0AD20AD60ADA0A00002100240027009A
:100170002A002D00300033000101000004010701B6
:100180000A0100002200250028002B002E0031006B
:10019000340002010000050108010B0100002000ED
:1001A0002300260029002C002F003200000100004F
:1001B00003010601090105050505070508080808EA
:1001C000020202020A0A08080404040401010101EF
:1001D00001010101030303030303030304070707EA
:1001E0000C0C0C0C0C0C0C0C02020202060606068F
:1001F000060606060B0B0B0B0B0B0B0B010210205C
:10020000200808102040102040800201020108044C
:1002100002010102040810204080804020100804E0
:100220000201800402018040201008040201080439
:10023000020101020408102040800102040810207D
:10024000408000000A0B02090C0D0E080703040190
:10025000000000000000000000000000000000009E
:10026000000000000000000000000000000012116B
:10027000100000000000000000000000000000006E
:100280000000000000000000071C11241FBECFEF7B
:10029000D1E2DEBFCDBF00E00CBF13E0A0E0B2E0D2
:1002A000EAEEFEE300E00BBF02C007900D92A4311E
:1002B000B107D9F729E0A4E1B3E001C01D92A73E40
:1002C000B207E1F711E0C5E4D1E000E006C02197F4
:1002D0000109802FFE010E94371EC434D10780E03F
:1002E0000807A9F70E9441150C94731F89CEA82F07
:1002F000B0E0A857BC4F9C91292F30E0F901EE0FD8
:10030000FF1F2E0F3F1FF901E152F74FE081F0E090
:100310009F01220F331FE20FF31FE25BF74F808133
:100320008F7B808380918603981306C0992379F090
:100330009150909386030BC0882349F0E091870386
:10034000EF5FE0938703F0E0ED5EFC4F90838FEF6B
:100350008C9308959EEF980F943480F4E82FF0E08A
:10036000DF01A159B84F9C91913041F4EE0FFF1F6E
:10037000EB54F84F608371830C94B60C0895CF93BF
:10038000803180F5409127045091280421E030E02D
:10039000672B81F4B90102C0660F771F8A95E2F7D7
:1003A000CB01809590958423952390932804809386
:1003B000270418C0082E02C0220F331F0A94E2F748
:1003C000242B352B30932804209327049091D803B5
:1003D000911108C0C82F0E94200DBC018C2FCF9115
:1003E0000C94E00ACF9108958F929F92AF92BF92A2
:1003F000CF92DF92EF92FF920F931F93CF93DF93F1
:10040000893008F09AC0982F990F990F990F58E0EA
:10041000C52EC90E96E49C1510F446E4C42E8B013B
:10042000C82FCC0FCC0FCC0FDC2ED0E099249394A6
:100430005B01BB24DC1430F58EEF8D0D8434F8F4B1
:100440004D2D50E0FA01E159F84F20812230B8F4E7
:10045000892D90E08A219B2188248394009709F4B8
:10046000812C7A01EE0CFF1C213009F056C0D929ED
:10047000F701EB54F84F882D90E091838083990C1D
:10048000D394D8CFD0FF05C0602F61708C2F0E940D
:10049000B60CD1FF06C0602F627081E08C0F0E9405
:1004A000B60CD2FF06C0602F647082E08C0F0E94F1
:1004B000B60CD3FF06C0602F687083E08C0F0E94DB
:1004C000B60CD4FF06C0602F607184E08C0F0E94D0
:1004D000B60CD5FF06C0602F607285E08C0F0E94BD
:1004E000B60CD6FF06C0602F607486E08C0F0E94A9
:1004F000B60CD7FF22C0602F607887E08C0FDF91A9
:10050000CF911F910F91FF90EF90DF90CF90BF9010
:10051000AF909F908F900C94B60C892B09F4A8CFC4
:10052000F701EB54F84F80819181019709F4A0CF36
:1005300062E08D2D0E94E40C9BCFDF91CF911F9143
:100540000F91FF90EF90DF90CF90BF90AF909F9072
:100550008F9008958F929F92AF92BF92CF92DF9229
:10056000EF92FF920F931F93CF93DF93EB018634AB
:1005700008F068C1082F10E0F801E159F84F9081A8
:10058000933009F490C0943009F05CC182508434F7
:1005900008F051C1F801E857FC4FE080F12C6701E9
:1005A000CC0CDD1C603282E078070CF042C077FD95
:1005B00005C0653B710524F4DB0104C0A0E001C067
:1005C000A4EBB0E0F601EE0DFF1DE152F74F818183
:1005D00028E830E04901881A910887FD9394880C37
:1005E000991C880C991C092C000CAA08BB08828154
:1005F00028E532E0281B310987FD3395220F331F90
:10060000220F331FA901330F660B770B9A01AB0141
:10061000281939094A095B090E94F41D24EB30E0CE
:1006200040E050E00E94CE1D820E931EA41EB51E17
:1006300001C04B01F601EE0DFF1DE152F74F208185
:10064000203308F0F8C0318188E890E0831B9109DD
:1006500037FD9395880F991F880F991F8816990663
:1006600084F0828148E552E0481B510987FD53958B
:10067000440F551F440F551FC401481559050CF46C
:10068000CA010297880F991F4FB7F89430E0F9011B
:10069000EE0FFF1F2E0F3F1FF901E25BF74F928312
:1006A00081834FBFC8C0F82E8EEF800F8C3028F0AA
:1006B00084ED800F833008F0BEC061E08F2D0E9472
:1006C000E40C209711F460E004C0CF3FD10529F479
:1006D00061E08F2D0E94B60CAEC0F801EE5BFD4FBD
:1006E000E4918E2F90E0FC013197E231F10508F0A2
:1006F0009DC08827EE58FF4F8F4F0C94371E84B54E
:10070000806884BDC7BD97C084B5806284BDC8BD04
:1007100092C080918000806880938000D09389008F
:10072000C093880088C080918000806280938000A0
:10073000D0938B00C0938A007EC080918000886037
:1007400080938000D0938D00C0938C0074C0809102
:10075000B00080688093B000C093B3006CC08091FB
:10076000B00080628093B000C093B40064C08091F8
:100770009000806880939000D0939900C093980077
:100780005AC080919000806280939000D0939B002B
:10079000C0939A0050C08091900088608093900030
:1007A000D0939D00C0939C0046C08091A0008068BB
:1007B0008093A0008091A0008F7B8093A000D093B5
:1007C000A900C093A80037C08091A00080628093E8
:1007D000A000D093AB00C093AA002DC08091A000D0
:1007E00088608093A000D093AD00C093AC0023C07C
:1007F00080912001806880932001D0932901C093CB
:10080000280119C080912001806280932001D0933B
:100810002B01C0932A010FC0809120018860809332
:100820002001D0932D01C0932C0105C0C038D10503
:100830000CF04ECF48CF000F111FF801EB54F84FCA
:10084000D183C083DF91CF911F910F91FF90EF90E3
:10085000DF90CF90BF90AF909F908F900895DB0175
:10086000909186039033A8F530918703682F70E04C
:10087000332369F0E32FF0E0ED5EFC4F8081FB0154
:10088000E857FC4F808331503093870307C0FB014A
:10089000E857FC4F90839F5F90938603FB01E857D6
:1008A000FC4F808190E09C01220F331F820F931F29
:1008B0001A161B0634F4141615061CF49A01AD0121
:1008C00004C020E639E040E252E08152974F0C9498
:1008D0006F138DE292E023C78F929F92BF92CF92C7
:1008E000DF92EF92FF920F931F93CF93DF93C82E67
:1008F000D12CE601C451D94FFE01ED57FF4F908135
:100900009F3709F435C1963041F49091D70399236C
:1009100021F06630710509F011C17B01182F0EEF2F
:10092000080F0434F8F464307105E1F0F601E8577B
:10093000FC4F80818033B0F490E0FC01EE0FFF1F8C
:100940008E0F9F1FFC01E152F74F808190E0FC0168
:10095000EE0FFF1F8E0F9F1FFC01E25BF74F8081A0
:1009600086FDF2C05AECB52EB10E8FE08B1550F01B
:1009700061E070E082E0E816F10411F060E070E000
:100980008B2DFDDC043418F5E12FE695E695E69510
:10099000212F2770F0E0E351FC4FE114F10421F026
:1009A0008BE0E816F10449F481E090E001C0880F83
:1009B0002A95EAF79081892B09C081E090E001C077
:1009C000880F2A95EAF780959081892380834601D4
:1009D000880C991CF401EB54F84F118210828CE0C2
:1009E000E816F10408F09CC0F7018827EC57FF4F88
:1009F0008F4F0C94371E8FE08B1508F4B9C0043468
:100A000018F460E0812FE0D7CD57DF4F88818F3712
:100A100009F4AEC082E082C0043408F0A9C060E0EE
:100A2000812FD2D7CD57DF4F88818F3709F4A0C0EF
:100A300018829EC0043408F09BC062E0812FC4D7A6
:100A4000CD57DF4F88818F3711F08BE08883F40119
:100A5000EB54F84F81E090E09183808389C00434A7
:100A600008F086C0FE01ED57FF4F8081833019F4F6
:100A700060E0812F7BD761E0812FA6D7CD57DF4F74
:100A800088818F3709F474C081E048C00C3028F0A9
:100A900084ED810F833008F06BC061E0812F94D723
:100AA00061E0812F91D760E0812F60D7CD57DF4F74
:100AB00088818F3709F45CC083E030C0043408F0CB
:100AC00057C0CD57DF4F88818F3711F084E088837E
:100AD000F601E857FC4F80818F3FC9F190E0FC019F
:100AE000EE0FFF1F8E0F9F1FFC01E152F74F808119
:100AF00090E0FC01EE0FFF1F8E0F9F1FFC01E25BD9
:100B0000F74F808186FD34C022C01451123080F529
:100B1000CD57DF4F88818F3759F186E0888328C011
:100B200081E492E0DF91CF911F910F91FF90EF90C0
:100B3000DF90CF90BF909F908F90F1C51092D70318
:100B40009FEF90930002E9CE812FD1DB0BCF4FEFC7
:100B50005FEF6FEF7FEF812FDF91CF911F910F91AB
:100B6000FF90EF90DF90CF90BF909F908F9077CEC7
:100B7000DF91CF911F910F91FF90EF90DF90CF9079
:100B8000BF909F908F9008950F931F93CF93DF9303
:100B900081E08093D8038091D703882329F01092B5
:100BA000D7038FEF80930002E6EFF3E0CDEED3E0C2
:100BB000AEECB3E0119219921D9283E0EF3FF8077B
:100BC000C9F708E813E0C0E0DFEF8AEC8C0F803152
:100BD00018F462E070E006C08EEF8C0F843420F4CD
:100BE00061E070E08C2F78DEF801D1938F01CF5F48
:100BF000C63459F7109228041092270410928703E4
:100C0000109286031092D803DF91CF911F910F911C
:100C10000895CF92DF92EF92FF920F931F93CF939D
:100C2000DF936C018B017A01EC01C752DC4F8881A4
:100C300087FF04C0FB011182108224C02CE02C9D90
:100C4000C0012D9D900D11242881AC01420F511D32
:100C500027FD5A952091DE0830E04217530794F49F
:100C60002881AC01420F511D27FD5A959A01FA01C6
:100C7000EE0FFF1F2E0F3F1FF901E25BF74F2081A0
:100C800026FD19C088818F5F88832CE02C9DC001D0
:100C90002D9D900D11242881AC01420F511D27FD7F
:100CA0005A952091DE0830E042175307B4F42881AA
:100CB0002C303CF112C02881820F911D27FD9A959E
:100CC000FC01EE0FFF1F8E0F9F1FFC01E25BF74F31
:100CD000808160E08F734AD6D5CFF8018081918101
:100CE000049680349C4918F480E49CE904C0F8011F
:100CF000808191810496F701918380838FEF8883AF
:100D000044C0F801408151812881BC01620F711DEE
:100D100027FD7A959B01FB01EE0FFF1F2E0F3F1F52
:100D2000F901E25BF74F21813281240F351FF70172
:100D3000318320832881AC01420F511D27FD5A9534
:100D40009A01FA01EE0FFF1F2E0F3F1FF901E25B20
:100D5000F74F208126FF19C02881820F911D27FDA2
:100D60009A95FC01EE0FFF1F8E0F9F1FFC01E25BA7
:100D7000F74F808161E08F73DF91CF911F910F91C9
:100D8000FF90EF90DF90CF90F1C5DF91CF911F9151
:100D90000F91FF90EF90DF90CF900895FF920F9307
:100DA0001F93CF93DF931F921F92CDB7DEB7082F0B
:100DB00010E0F801E351FC4F9081F62EF922025326
:100DC0001C4F411104C0F8019081F91611F12F2D2B
:100DD00030E03A832983A0912C07B0912D0710971A
:100DE000B1F0682F6F706069ED91FC9111970190DF
:100DF000F081E02DCD01199522E030E0AE014F5F8A
:100E00005F4F62E070E08CE297E00E942211F801EF
:100E1000F0820F900F90DF91CF911F910F91FF9073
:100E200008950F931F93CF93DF93893008F071C01B
:100E3000282F30E0F901EA50FC4F6083672B09F45A
:100E400068C0082FF901E351FC4F1081D22FDD0F4C
:100E5000DD0FDD0F8EEF8D0F843408F04AC010FFD8
:100E600048C08D2F5BD5892B09F443C0C1E08FEFBB
:100E70008D0F843440F411FF06C081E08D0F4ED5F4
:100E8000892B09F038C012FF05C082E08D0F46D5CE
:100E9000892B99F513FF05C083E08D0F3FD5892B72
:100EA00071F514FF05C084E08D0F38D5892B49F505
:100EB00015FF05C085E08D0F31D5892B21F5D03484
:100EC00081F016FF05C086E08D0F28D5892BE9F447
:100ED000DF3339F017FF05C087E08D0F1FD5892B51
:100EE000B1F441E06C2F802FDF91CF911F910F91D2
:100EF00055CFC0E0BCCFC260C6CFC460CBCFC86006
:100F0000D0CFC061D5CFC062DACFC064E1CFC068B6
:100F1000E8CFDF91CF911F910F910895EF92FF924B
:100F20000F931F93CF93DF93D82F8B01C42FF22EF3
:100F30006F3F8FEF7807E9F081E080935404D093FE
:100F40007604109255041092770482E498E0EED76C
:100F50008F2D27D480918403909185038230910551
:100F600050F0880F991F880F991F05970197F1F787
:100F700002C000E010E0809153048111FCCF9C2F4F
:100F8000C13208F090E281E08093530480935204D0
:100F90002FEF2093510410925004290F20934F04F7
:100FA00080932E0480912E042D2F220F822B80936C
:100FB0002E0480912D04813061F410922D048091D3
:100FC0002E048093BB008091BC0083FDF8CF85EC9C
:100FD00001C085EE8093BC00809153048130E1F321
:100FE00080915004891710F490915004EFE2F4E0DE
:100FF000AFE6B9E080E0891721F021912D938F5F52
:10100000FACF1092900980938F09EC2EF12C90E08A
:10101000E816F9061CF482E592E005C08E159F05DE
:101020001CF48FE692E07BD3D093440300934503F6
:1010300004E413E0C801845493408E159F0574F4B2
:101040000F5F1F4F90918F0980919009981731F091
:1010500082E498E023D7F8018183ECCFCE5F6C2F38
:1010600070E044E453E087E7DF91CF911F910F9147
:10107000FF90EF9008C3EF92FF920F931F93CF93CF
:10108000DF9390E0FC01E956F109E231F10508F047
:101090003AC2EA01162F8827E057FF4F8F4F0C9472
:1010A000371E2981922F987125FF03C08BE892E0AB
:1010B00056C0888131E026FB222720F9232798306B
:1010C00051F160F491111FC230935404809376045F
:1010D000109255041092770402E006C09031C9F1D5
:1010E000983109F46AC00FC2011770F4FE01E00FD5
:1010F000F11D61816795662767958081680F82E49D
:1011000098E014D70E5FF0CF81E04BD383E191E0FC
:101110000197F1F7F8C14B816A81163069F470E0EC
:1011200030E8439F600D711D11244D814795442780
:1011300047959C81490F06C0479544274795460F20
:101140006FEF7FEFDF91CF911F910F91FF90EF90A5
:10115000E5CEE0910002E7304CF08BEA92E0DF91BF
:10116000CF911F910F91FF90EF90D9C29B813A814F
:10117000663071F4632F70E0F0E89F9F600D711D81
:1011800011249D819795992797954C81940F06C0BE
:10119000979599279795930F6FEF7FEFEF5FE09308
:1011A000000235E0E302F0011124E150FC4F80839E
:1011B0007283618393832483A6C120910002121657
:1011C0003CF490E0622F022E000C770B35E00FC04C
:1011D0008FEF8093000297C1349FF001359FF00D8F
:1011E0001124E150FC4F4081841739F09F5F492F53
:1011F00050E06417750784F790E085E022C09830CE
:10120000F8F4FA0131968E9FD0018F9FB00D112412
:10121000A150BC4F3C91849FF001859FF00D11249B
:10122000E150FC4F308311964D915C91129752839F
:10123000418313963C911397338314963C913483E6
:101240009F5F492F50E064177507CCF6215020931B
:10125000000259C12981888190E0E0E82E9F800D2D
:10126000911D1124009721F09093850380938403AE
:101270008091D703811147C1C0E08CEE8C0F823082
:1012800020F466E070E08C2F27DBCF5FC634A9F72F
:1012900081E08093D7031092900910928F091092E9
:1012A00055041092770410925304809352041092C4
:1012B0002D0461E084E15AD361E085E157D3809148
:1012C000B9008E7F8093B9008091B9008D7F8093A3
:1012D000B90088E48093B80085E48093BC008CE377
:1012E0009FE090939209809391098DE39FE0909302
:1012F00094098093930907C1653008F404C11881EB
:101300008EEF810F843408F0FEC00981EA80FB80F3
:10131000CC81E12FF0E0E857FC4F80818033B0F4BE
:1013200090E0FC01EE0FFF1F8E0F9F1FFC01E152AA
:10133000F74F808190E0FC01EE0FFF1F8E0F9F1F83
:10134000FC01E25BF74F808186FDD9C04F2D50E054
:10135000F0E8CF9F400D511D1124602F70E020E870
:10136000E29E600D711D1124812F79DA64E070E036
:10137000812FDF91CF911F910F91FF90EF90ACCA19
:10138000623008F4C0C02981888190E030E8239F52
:10139000800D911D1124009711F481E090E090934D
:1013A000020280930102AFC0623008F4ACC06981D0
:1013B00070E0123091F08A81E0E88E9FC001112424
:1013C000682B792B133049F08B8190E090E4899F52
:1013D000902D88271124682B792B8881DF91CF915C
:1013E0001F910F91FF90EF90B5C880EFCDD18CE6A3
:1013F000CBD1CEEF8CEC8C0F803128F482E0C4D1BD
:101400008AE0C2D102C0CC3020F086ED8C0F833050
:1014100020F483E0B9D188E0B7D1C43420F484E06B
:10142000B3D18EE0B1D18EEE8C0F823020F486E005
:10143000ABD181E0A9D18FE7A7D1CF5FC434D9F078
:10144000C434C0F680E0A0D181E09ED18BE09CD175
:1014500081E09AD181E098D181E096D1CBCF66230B
:1014600009F451C0C88180EF8FD18EE68DD18C2FC9
:101470008BD1C63440F087EFDF91CF911F910F9150
:10148000FF90EF9081C1D0E0FE01E159F84F8081DB
:101490007BD1CC0FDD1F8E010B54184FF8018081DA
:1014A0008F7772D1F801808191819C012078232B64
:1014B00031F0880F892F881F990B8F7765D1CB5416
:1014C000D84F888199819C012227307C232B99F267
:1014D000990F880B990F982F881F8F7755D1CBCFF5
:1014E00080EF52D18AE650D1CAECC03110F48C2F73
:1014F00001C08FE749D1CF5FC031B9F7BCCF812F91
:101500000E94770123CFDF91CF911F910F91FF9020
:10151000EF90089590E0FC013197E231F10508F079
:101520004EC08827EE55FF4F8F4F0C94371E809189
:1015300080008F7703C0809180008F7D8093800032
:10154000089580918000877FF9CF84B58F7702C09E
:1015500084B58F7D84BD08958091B0008F7703C0DE
:101560008091B0008F7D8093B000089580919000AD
:101570008F7707C0809190008F7D03C0809190008D
:10158000877F8093900008958091A0008F7707C097
:101590008091A0008F7D03C08091A000877F809301
:1015A000A0000895809120018F7707C080912001CD
:1015B0008F7D03C080912001877F80932001089553
:1015C0001F93CF93DF931F921F92CDB7DEB7182FD3
:1015D0007A83698380912C0790912D07009709F4F5
:1015E0004CC0DC01ED91FC911031A0F46115704408
:1015F00088F4612F606E0190F081E02D199522E052
:1016000030E0AE014F5F5F4F62E070E08CE297E048
:1016100019D633C00190F081E02D60EF19958091CB
:101620002C0790912D07DC01ED91FC910190F08148
:10163000E02D6FE6199580912C0790912D07DC0124
:10164000ED91FC910190F081E02D612F199522E040
:1016500030E0AE014F5F5F4F62E070E08CE297E0F8
:10166000F1D580912C0790912D07DC01ED91FC9133
:101670000190F081E02D67EF19950F900F90DF91A9
:10168000CF911F910895EF92FF920F931F93CF93E5
:10169000DF93C82F80912C0790912D070097C1F1FF
:1016A0007A018B01DC01ED91FC910190F081E02D3C
:1016B00060EF199580912C0790912D07DC01ED9139
:1016C000FC910190F081E02D6C2F1995E7010E0D32
:1016D0001F1DC017D10751F020E030E0AE0161E0DE
:1016E00070E08CE297E0AED52196F3CF80912C0785
:1016F00090912D07DC01ED91FC910190F081E02D9E
:1017000067EFDF91CF911F910F91FF90EF901994A8
:10171000DF91CF911F910F91FF90EF900895FC0101
:1017200001900020E9F73197BF01681B790BAC01EC
:1017300081E7A9CFCF93DF93FC01A081B1811097FE
:1017400001F1EC01ED91FC9111970190F081E02DF8
:1017500069EFCD01199588819981DC01ED91FC91AA
:101760000190F081E02D62E0199588819981DC017A
:10177000ED91FC910190F081E02D65E0DF91CF913A
:101780001994DF91CF910895A0916A07B0916B07EA
:10179000ED91FC9111970190F081E02D682FCD0122
:1017A0001994282F30917704313208F04AC0809183
:1017B00053048111FCCF9091760442E0409353048E
:1017C000209352042FEF2093510410925004309331
:1017D0004F04E6E5F4E0AFE2B4E020E0321721F098
:1017E00041914D932F5FFACF10922E0420912E0439
:1017F000990F922B90932E0490912D04913061F4C7
:1018000010922D0490912E049093BB009091BC00F7
:1018100093FDF8CF95EC01C095EE9093BC009091AC
:1018200053049230E1F3909151049F3F79F08091FD
:101830005104803241F080915104803331F084E0D2
:1018400005C081E003C082E001C083E0109255042E
:10185000109277041092540408951F93CF93DF934E
:10186000182FEB01809131079091320768177907A3
:10187000A8F0E0915E07F0915F0781E03097C1F03A
:1018800080932E0780914A0790914B07199580917C
:10189000310790913207C817D90748F480912F0774
:1018A00090913007C80FD91F188380E001C081E0F4
:1018B000DF91CF911F910895AC01FB0180E090E092
:1018C0009C01220F331F2417350770F4DB012C9184
:1018D000208311963C91379533273795232B2193FD
:1018E00001966E5F7F4FECCF0895FC01A089B1890E
:1018F0008C91A689B78982FD0FC09C91818D8F5FE5
:101900008F73228D821749F0218DDF01A20FB11D47
:101910005D969C93818F08958C910895CF93DF936A
:10192000282F30E0F901EE5BFD4F8491F901E4507E
:10193000FE4FD491F901EA54FE4FC491CC2389F0B3
:101940008111E8DDEC2FF0E0EE0FFF1FE456FE4FB3
:10195000A591B491EC91ED2381E090E021F480E039
:1019600002C080E090E0DF91CF9108951F93CF9364
:10197000DF93282F30E0F901EE5BFD4F8491F901F0
:10198000E450FE4FD491F901EA54FE4FC491CC23A8
:10199000B9F0162F8111BEDDEC2FF0E0EE0FFF1F26
:1019A000EE57FE4FA591B4919FB7F894111104C062
:1019B0008C91D095D82302C0EC91DE2BDC939FBF95
:1019C000DF91CF911F910895CF93DF9390E0FC01B9
:1019D000E450FE4F2491FC01EA54FE4F8491882389
:1019E00061F190E0880F991FFC01E859FE4FC59105
:1019F000D491FC01EE57FE4FA591B491611109C03D
:101A00009FB7F8948881209582238883EC912E23B8
:101A10000BC0623061F49FB7F8948881322F309503
:101A200083238883EC912E2B2C939FBF06C08FB706
:101A3000F894E8812E2B28838FBFDF91CF910895F2
:101A4000863308F0865390917B00282F2870977F6B
:101A5000922B90937B008770806480937C008091B0
:101A60007A00806480937A0080917A0086FDFCCFB2
:101A7000809178002091790090E0922B08958F92C8
:101A80009F92AF92BF92CF92DF92EF92FF926B0143
:101A90007C0188D74B015C01C114D104E104F1043D
:101AA000E9F080D7DC01CB0188199909AA09BB09A3
:101AB000883E9340A105B10578F321E0C21AD10810
:101AC000E108F10888EE880E83E0981EA11CB11C85
:101AD000C114D104E104F10421F7DECFFF90EF90AF
:101AE000DF90CF90BF90AF909F908F900895CF924E
:101AF000DF92EF92FF920F931F93CF93DF936C01CE
:101B00007A018B01C0E0D0E0CE15DF0581F0D8016D
:101B10006D918D01D601ED91FC910190F081E02D48
:101B2000C6011995892B11F02196EECF7E01C701D0
:101B3000DF91CF911F910F91FF90EF90DF90CF90A9
:101B40000895FC01538D448D252F30E0842F90E0C3
:101B5000821B930B541710F0CF96089501970895A8
:101B6000FC01918D828D981761F0828DDF01A80FA5
:101B7000B11D5D968C91928D9F5F9F73928F90E0C7
:101B800008958FEF9FEF0895FC01918D828D981736
:101B900031F0828DE80FF11D858D90E008958FEF73
:101BA0009FEF0895FC01918D228D892F90E0805C3C
:101BB0009F4F821B91098F739927089588E794E0BE
:101BC000F1DF21E0892B09F420E0822F089585E1DF
:101BD00095E0E8DF21E0892B09F420E0822F0895C9
:101BE00082EB95E0DFDF21E0892B09F420E0822FF2
:101BF00008958FE496E0D6DF21E0892B09F420E0F8
:101C0000822F0895FC01848DDF01A80FB11DA35A16
:101C1000BF4F2C91848D90E001968F739927848F0C
:101C2000A689B7892C93A089B1898C91837080642F
:101C30008C93938D848D981306C00288F389E02DD0
:101C400080818F7D80830895EF92FF920F931F9381
:101C5000CF93DF93EC0181E0888F9B8D8C8D98135F
:101C600005C0E889F989808185FD25C0F62E0B8D98
:101C700010E00F5F1F4F0F731127E02E8C8DE812BD
:101C80000BC00FB607FCFACFE889F989808185FF80
:101C9000F5CFCE01B7DFF2CF8B8DFE01E80FF11D3E
:101CA000E35AFF4FF0829FB7F8940B8FEA89FB89C4
:101CB000808180620AC09FB7F894EE89FF896083B3
:101CC000E889F98980818370806480839FBF81E087
:101CD00090E0DF91CF911F910F91FF90EF900895C9
:101CE000CF93DF93EC01888D8823C1F0EA89FB89CB
:101CF000808185FD05C0A889B9898C9186FD0EC0BB
:101D00000FB607FCF5CF808185FFF2CFA889B9898E
:101D10008C9185FFEDCFCE0175DFE8CFDF91CF91BC
:101D2000089580E090E0892B19F063DF811116C0DF
:101D300080E090E0892B19F053DF811112C080E020
:101D400090E0892B19F043DF81110EC080E090E014
:101D5000892B79F033DF81110AC008950E940000B9
:101D6000E7CF0E940000EBCF0E940000EFCF0C9461
:101D700000000895E091EB03F091EC03309709F037
:101D800019940895862F642FE091E903F091EA03F6
:101D9000309711F0A901199408950895862FE091C4
:101DA000E103F091E203309711F0BA01199408951C
:101DB000862FE091E303F091E403309711F0BA012C
:101DC00019940895862FE091DD03F091DE0330979A
:101DD00011F0BA0119940895862FE091DF03F09174
:101DE000E003309711F0BA0119940895862FE0911D
:101DF000E503F091E603309711F0BA0119940895C4
:101E0000862FE091E703F091E803309711F0BA01D3
:101E10001994089585ED8093BC008091BC0084FDE9
:101E2000FCCF1092530408954091B509262F30E05D
:101E3000240F311D21323105DCF42091530424306C
:101E4000C9F4FC0180E090E0861758F43091B509A0
:101E50002191DC01AB56B64FA30FB11D2C93019617
:101E6000F3CF8091B509680F6093B50980E00895BC
:101E700081E0089582E00895089508950895E0911D
:101E8000900980918F09E81730F4F0E0E159F64F9E
:101E9000808190E008958FEF9FEF089590919009D1
:101EA00080918F09981750F4E92FF0E0E159F64F2F
:101EB000208130E09F5F9093900902C02FEF3FEFA9
:101EC000C901089580918F0990E020919009821BAB
:101ED00091090895CF92DF92EF92FF920F931F9393
:101EE000CF93DF937C01CB018A01209154042223FC
:101EF00089F0EB016B01C40ED51ECC15DD0561F038
:101F00006991D701ED91FC910190F081E02DC7011D
:101F10001995F3CF642F88DFC801DF91CF911F910E
:101F20000F91FF90EF90DF90CF900895CF93DF93C4
:101F30001F92CDB7DEB76983209154042223D1F0DC
:101F400020917704203240F021E030E0FC0133831F
:101F5000228380E090E014C080915504E82FF0E0E7
:101F6000EA5AFB4F998190838F5F80935504809349
:101F7000770404C061E0CE01019656DF81E090E075
:101F80000F90DF91CF910895089580E090E008953B
:101F90000E94601F009719F0805C9F4FCBCB089583
:101FA0001F920F920FB60F9211240BB60F922F9320
:101FB0003F934F935F936F937F938F939F93AF93D1
:101FC000BF93EF93FF9388E794E01CDEFF91EF91BE
:101FD000BF91AF919F918F917F916F915F914F9141
:101FE0003F912F910F900BBE0F900FBE0F901F903F
:101FF00018951F920F920FB60F9211240BB60F92E5
:102000002F933F934F935F936F937F938F939F9300
:10201000AF93BF93EF93FF9388E794E066DCFF9163
:10202000EF91BF91AF919F918F917F916F915F9150
:102030004F913F912F910F900BBE0F900FBE0F90BD
:102040001F9018951F920F920FB60F9211240BB686
:102050000F922F933F934F935F936F937F938F9341
:102060009F93AF93BF93EF93FF9385E195E0CADD14
:10207000FF91EF91BF91AF919F918F917F916F9160
:102080005F914F913F912F910F900BBE0F900FBE1C
:102090000F901F9018951F920F920FB60F92112458
:1020A0000BB60F922F933F934F935F936F937F9352
:1020B0008F939F93AF93BF93EF93FF9385E195E049
:1020C00014DCFF91EF91BF91AF919F918F917F9120
:1020D0006F915F914F913F912F910F900BBE0F9099
:1020E0000FBE0F901F9018951F920F920FB60F9270
:1020F00011240BB60F922F933F934F935F936F93DF
:102100007F938F939F93AF93BF93EF93FF9382EB54
:1021100095E078DDFF91EF91BF91AF919F918F9105
:102120007F916F915F914F913F912F910F900BBED7
:102130000F900FBE0F901F9018951F920F920FB621
:102140000F9211240BB60F922F933F934F935F93EF
:102150006F937F938F939F93AF93BF93EF93FF936F
:1021600082EB95E0C2DBFF91EF91BF91AF919F9120
:102170008F917F916F915F914F913F912F910F9030
:102180000BBE0F900FBE0F901F9018951F920F92CD
:102190000FB60F9211240BB60F922F933F934F93CC
:1021A0005F936F937F938F939F93AF93BF93EF93BF
:1021B000FF938FE496E026DDFF91EF91BF91AF9101
:1021C0009F918F917F916F915F914F913F912F914F
:1021D0000F900BBE0F900FBE0F901F9018951F927F
:1021E0000F920FB60F9211240BB60F922F933F93BD
:1021F0004F935F936F937F938F939F93AF93BF930F
:10220000EF93FF938FE496E070DBFF91EF91BF9126
:10221000AF919F918F917F916F915F914F913F917E
:102220002F910F900BBE0F900FBE0F901F9018951F
:102230001F920F920FB60F9211240F900FBE0F90A6
:102240001F9018953F924F925F926F927F928F925C
:102250009F92AF92BF92CF92DF92EF92FF920F9335
:102260001F93CF93DF935C016901DA013C90232B2C
:1022700019F4CC24CA94DC2C7A012A01460E571E8C
:10228000C0E0D0E000E010E087E0682E712CE4149C
:10229000F50409F443C00C151D0508F067C047019B
:1022A000F50180819181D7016D917D010C2E01C0D6
:1022B000660F0A94EAF763296F77DC01ED91FC91D0
:1022C0000190F081E02D19950F5F1F4FF40160819F
:1022D00070E0C3018C1B9D0B02C0759567958A95B4
:1022E000E2F7362E2196C730D10588F2C016D10606
:1022F00099F0D5018D919C91632D6F77DC01ED9163
:10230000FC910190F081E02D19950F5F1F4F331C58
:102310003324331C2797E7CF8601B9CF209731F1BB
:102320000C151D0518F5F5018081918161E070E0C3
:1023300001C0660FCA95EAF761506321DC01ED9197
:10234000FC910190F081E02DDF91CF911F910F91D1
:10235000FF90EF90DF90CF90BF90AF909F908F90C5
:102360007F906F905F904F903F901994DF91CF9145
:102370001F910F91FF90EF90DF90CF90BF90AF90A3
:102380009F908F907F906F905F904F903F900895B7
:10239000DF92EF92FF920F931F93CF93DF93FC0195
:1023A000E058FF4FD080DD2009F45CC0EC01C05C38
:1023B000DF4FA881B981109709F454C0FC01EF5791
:1023C000FF4F00811181F801F180E080ED91FC91D7
:1023D00011970190F081E02D60EFCD011995888172
:1023E0009981DC01ED91FC910190F081E02D69E78C
:1023F000199588819981DC01ED91FC910190F08122
:10240000E02D6E2D199588819981DC01ED91FC916B
:102410000190F081E02D6F2D19957801B2E0EB0E5F
:10242000F11C0D0D111DE016F10659F020E030E011
:10243000A70161E070E0CE0105DFEFEFEE1AFE0AC2
:10244000F2CF88819981DC01ED91FC910190F081BE
:10245000E02D67EFDF91CF911F910F91FF90EF90EB
:10246000DF901994DF91CF911F910F91FF90EF9022
:10247000DF900895009709F08BCF08951F920F9277
:102480000FB60F9211240BB60F922F933F934F93D9
:102490005F936F937F938F939F93AF93BF93EF93CC
:1024A000FF938091B900887F803609F49CC068F55D
:1024B000883209F45BC090F4803109F454C038F4D8
:1024C000882309F4F6C0883009F44DC0F5C088317E
:1024D00009F44CC0803209F45DC0EEC0803409F4C8
:1024E00068C048F4803309F455C0883309F0E4C06B
:1024F00080935104D8C0803509F44FC0883509F461
:102500005DC0883409F0D8C0D6C0883909F4C7C086
:10251000A8F4883709F467C038F4883609F463C032
:10252000803709F460C0C8C0883809F4B8C0803961
:1025300009F45FC0803809F0BFC05BC0803B09F47C
:1025400086C038F4803A09F466C0883A09F47FC03E
:10255000B3C0803C09F4A7C0883C09F4A4C0883B00
:1025600009F48AC0A9C080912E0410C09091500433
:1025700080914F04981770F5E091500481E08E0F20
:1025800080935004F0E0E15DFB4F80818093BB00BD
:1025900085EC86C0809351048EC0E091500481E0A8
:1025A0008E0F809350048091BB00F0E0E15DFB4F03
:1025B00080839091500480914F046EC0E09150044C
:1025C00081E08E0F809350048091BB00F0E0E15DCC
:1025D000FB4F80838091520481116DC081E0809314
:1025E0002D0484EA61C083E0809353041092D709DC
:1025F000CFCF8091D709803208F051C0E091D70940
:1026000081E08E0F8093D7098091BB00F0E0E95400
:10261000F64F8083BDCF85EC8093BC0010925304AD
:102620008091D709803230F4E091D709F0E0E95485
:10263000F64F10826091D70970E0E0919309F09114
:10264000940987EB99E019951092D70935C084E079
:10265000809353041092B6091092B509E091910944
:10266000F091920919958091B509811105C081E019
:102670008093B50910929509E091B60981E08E0F1B
:102680008093B609F0E0EB56F64F80818093BB0053
:102690009091B6098091B509981708F479CF85E82B
:1026A0008093BC0009C085EC8093BC001092530459
:1026B00003C010925104AEDBFF91EF91BF91AF9137
:1026C0009F918F917F916F915F914F913F912F914A
:1026D0000F900BBE0F900FBE0F901F901895DF92BA
:1026E000EF92FF920F931F93CF93DF93EC01D62EBF
:1026F0007A0189018881803308F067C061E08D2DFF
:1027000063D98881E82FF0E09F01220F331FE20F89
:10271000F31FE25BF74F9D2D9F732081207CD22E0B
:10272000D92AD08220E232E02E193F0937FF02C0B9
:102730002D5F3F4F3595279535952795298320E6C1
:1027400039E0201B310B37FF02C02D5F3F4F35951D
:102750002795359527952A836CE00E942B1E9CE0D7
:10276000899FB001112440E050E09B01240F351FE8
:10277000F901EE0FFF1F2E0F3F1FF901E25BF74F2C
:10278000908196FD16C04F5F5F4F4C30510569F741
:10279000813021F51092800082E0809381001092B8
:1027A000850010928400B19A80916F0082608093BE
:1027B0006F00E881F0E0CF01880F991FE80FF91F43
:1027C000E25BF74F8081806480838881DF91CF91C5
:1027D0001F910F91FF90EF90DF900895823061F488
:1027E00010929000809391001092950010929400A6
:1027F00088BB80937100DDCF833069F41092A00014
:1028000082E08093A1001092A5001092A40089BBE1
:1028100080937200CECF8111CCCF1092200182E044
:102820008093210110922501109224018ABB80938C
:102830007300BFCF1F920F920FB60F9211240BB6E9
:102840000F922F933F934F935F936F937F938F9349
:102850009F93AF93BF93EF93FF9348E251E064E2FD
:1028600071E080E090E00E940906FF91EF91BF9136
:10287000AF919F918F917F916F915F914F913F9118
:102880002F910F900BBE0F900FBE0F901F901895B9
:102890001F920F920FB60F9211240BB60F922F9327
:1028A0003F934F935F936F937F938F939F93AF93D8
:1028B000BF93EF93FF9348EA50E064EA70E083E04F
:1028C00090E00E940906FF91EF91BF91AF919F9117
:1028D0008F917F916F915F914F913F912F910F90C9
:1028E0000BBE0F900FBE0F901F9018951F920F9266
:1028F0000FB60F9211240BB60F922F933F934F9365
:102900005F936F937F938F939F93AF93BF93EF9357
:10291000FF9348E950E064E970E082E090E00E94B3
:102920000906FF91EF91BF91AF919F918F917F9198
:102930006F915F914F913F912F910F900BBE0F9030
:102940000FBE0F901F9018951F920F920FB60F9207
:1029500011240BB60F922F933F934F935F936F9376
:102960007F938F939F93AF93BF93EF93FF9348E829
:1029700050E064E870E081E090E00E940906FF9179
:10298000EF91BF91AF919F918F917F916F915F91E7
:102990004F913F912F910F900BBE0F900FBE0F9054
:1029A0001F9018953FB7F8948091DF099091E00946
:1029B000A091E109B091E20926B5A89B05C02F3F7F
:1029C00019F00196A11DB11D3FBFBA2FA92F982F55
:1029D0008827820F911DA11DB11DBC01CD0142E0D0
:1029E000660F771F881F991F4A95D1F708951F9288
:1029F0000F920FB60F9211242F933F938F939F93B3
:102A0000AF93BF938091DA099091DB09A091DC0923
:102A1000B091DD093091DE0923E0230F2D3720F43A
:102A20000196A11DB11D05C026E8230F0296A11D28
:102A3000B11D2093DE098093DA099093DB09A093FE
:102A4000DC09B093DD098091DF099091E009A09144
:102A5000E109B091E2090196A11DB11D8093DF0942
:102A60009093E009A093E109B093E209BF91AF917F
:102A70009F918F913F912F910F900FBE0F901F90BC
:102A80001895789484B5826084BD84B5816084BDD6
:102A900085B5826085BD85B5816085BD80916E00FC
:102AA000816080936E00109281008091810082602D
:102AB000809381008091810081608093810080916A
:102AC00080008160809380008091B1008460809359
:102AD000B1008091B00081608093B000809191003E
:102AE0008260809391008091910081608093910039
:102AF000809190008160809390008091A10082601D
:102B00008093A1008091A10081608093A1008091B9
:102B1000A00081608093A000809121018260809359
:102B20002101809121018160809321018091200108
:102B300081608093200180917A00846080937A0084
:102B400080917A00826080937A0080917A0081601F
:102B500080937A0080917A00806880937A00109246
:102B6000C10085E180936C0780916D0790916E079D
:102B70000E94D71EC0916C07D0E0CE0101960E9442
:102B80003F1E90936E0780936D07FC01EC0FFD1FB5
:102B9000108212E0DC011C9325E011962C93AE010B
:102BA0004250510960E073E002960E94641F8AEA75
:102BB00092E09093E8038093E70384EF91E0909391
:102BC000E6038093E5038FEB91E09093E403809319
:102BD000E30381E197E09093E2038093E1038CE6C5
:102BE00094E09093E0038093DF038AEA91E090936E
:102BF000DE038093DD038BE398E09093EA038093F8
:102C0000E90384EC95E09093EC038093EB03E0916F
:102C10005F06F09160061083E0915B06F0915C0620
:102C20001082E0915D06F0915E0680E18083109253
:102C30006706E0916306F091640686E08083E09188
:102C40006106F0916206808180618083E091610677
:102C5000F0916206808188608083E0916106F09146
:102C60006206808180688083E0916106F09162064F
:102C700080818F7D808380914108811140C061E017
:102C80008DE00E94E40CC0E062ED70E080E090E036
:102C90000E943F0D61E08DE00E94B60C68E270E09A
:102CA00080E090E00E943F0D60E08DE00E94B60C55
:102CB000CF5FC23049F76AEF70E080E090E00E9499
:102CC0003F0DC0E062ED70E080E090E00E943F0DBB
:102CD00061E08DE00E94B60C68E270E080E090E078
:102CE0000E943F0D60E08DE00E94B60CCF5FC530C2
:102CF00049F76DE770E080E090E00E943F0D8FE4BF
:102D000096E090936B0780936A0790932D078093CA
:102D10002C078CE297E00E949A0B8CEE96E038DB51
:102D20000E94C405D5E0DD24D39402E010E0EE2437
:102D3000E394F12C8091F6038823C1F1C090ED0358
:102D4000C2FEDDC482E00E948E0C892B09F4D7C438
:102D5000C4E0C3FE06C083E00E948E0C892B09F0FC
:102D6000D0C4C4FE06C084E00E948E0C892B09F0FA
:102D7000CAC4C5FE06C085E00E948E0C892B09F0EE
:102D8000C4C4C6FE06C086E00E948E0C892B09F0E2
:102D9000BEC4C7FE06C087E00E948E0C892B09F0D6
:102DA000B8C440E06C2F80E00E94CE068091F7030B
:102DB000882309F448C0C090EE03C0FEACC488E08C
:102DC0000E948E0C892B09F4A6C4C1E0C1FE06C086
:102DD00089E00E948E0C892B09F09FC4C2FE06C0B8
:102DE0008AE00E948E0C892B09F099C4C3FE06C0AC
:102DF0008BE00E948E0C892B09F093C4C4FE06C0A0
:102E00008CE00E948E0C892B09F08DC4C5FE06C093
:102E10008DE00E948E0C892B09F087C4C6FE06C087
:102E20008EE00E948E0C892B09F081C4C7FE06C07B
:102E30008FE00E948E0C892B09F07BC440E06C2F40
:102E400081E00E94CE068091F803882309F448C0EF
:102E5000C090EF03C0FE6FC480E10E948E0C892BEE
:102E600009F469C4C1E0C1FE06C081E10E948E0C74
:102E7000892B09F062C4C2FE06C082E10E948E0C5A
:102E8000892B09F05CC4C3FE06C083E10E948E0C4E
:102E9000892B09F056C4C4FE06C084E10E948E0C42
:102EA000892B09F050C4C5FE06C085E10E948E0C36
:102EB000892B09F04AC4C6FE06C086E10E948E0C2A
:102EC000892B09F044C4C7FE06C087E10E948E0C1E
:102ED000892B09F03EC440E06C2F82E00E94CE06B0
:102EE0008091F903882309F448C0C090F003C0FE24
:102EF00032C488E10E948E0C892B09F42CC4C1E0F5
:102F0000C1FE06C089E10E948E0C892B09F025C400
:102F1000C2FE06C08AE10E948E0C892B09F01FC4F4
:102F2000C3FE06C08BE10E948E0C892B09F019C4E8
:102F3000C4FE06C08CE10E948E0C892B09F013C4DC
:102F4000C5FE06C08DE10E948E0C892B09F00DC4D0
:102F5000C6FE06C08EE10E948E0C892B09F007C4C4
:102F6000C7FE06C08FE10E948E0C892B09F001C4B8
:102F700040E06C2F83E00E94CE068091FA03882304
:102F800009F448C0C090F103C0FEF5C380E20E947E
:102F90008E0C892B09F4EFC3C1E0C1FE06C081E2AB
:102FA0000E948E0C892B09F0E8C3C2FE06C082E2A3
:102FB0000E948E0C892B09F0E2C3C3FE06C083E297
:102FC0000E948E0C892B09F0DCC3C4FE06C084E28B
:102FD0000E948E0C892B09F0D6C3C5FE06C085E27F
:102FE0000E948E0C892B09F0D0C3C6FE06C086E273
:102FF0000E948E0C892B09F0CAC3C7FE06C087E267
:103000000E948E0C892B09F0C4C340E06C2F84E031
:103010000E94CE068091FB03882309F448C0C0902B
:10302000F203C0FEB8C388E20E948E0C892B09F41B
:10303000B2C3C1E0C1FE06C089E20E948E0C892B9A
:1030400009F0ABC3C2FE06C08AE20E948E0C892B37
:1030500009F0A5C3C3FE06C08BE20E948E0C892B2B
:1030600009F09FC3C4FE06C08CE20E948E0C892B1F
:1030700009F099C3C5FE06C08DE20E948E0C892B13
:1030800009F093C3C6FE06C08EE20E948E0C892B07
:1030900009F08DC3C7FE06C08FE20E948E0C892BFB
:1030A00009F087C340E06C2F85E00E94CE06809136
:1030B000FC03882309F448C0C090F303C0FE7BC31F
:1030C00080E30E948E0C892B09F475C3C1E0C1FE18
:1030D00006C081E30E948E0C892B09F06EC3C2FEEC
:1030E00006C082E30E948E0C892B09F068C3C3FEE0
:1030F00006C083E30E948E0C892B09F062C3C4FED4
:1031000006C084E30E948E0C892B09F05CC3C5FEC7
:1031100006C085E30E948E0C892B09F056C3C6FEBB
:1031200006C086E30E948E0C892B09F050C3C7FEAF
:1031300006C087E30E948E0C892B09F04AC340E049
:103140006C2F86E00E94CE068091FD03882309F44F
:1031500048C0C090F403C0FE3EC388E30E948E0CBA
:10316000892B09F438C3C1E0C1FE06C089E30E947F
:103170008E0C892B09F031C3C2FE06C08AE30E947F
:103180008E0C892B09F02BC3C3FE06C08BE30E9473
:103190008E0C892B09F025C3C4FE06C08CE30E9467
:1031A0008E0C892B09F01FC3C5FE06C08DE30E945B
:1031B0008E0C892B09F019C3C6FE06C08EE30E944F
:1031C0008E0C892B09F013C3C7FE06C08FE30E9443
:1031D0008E0C892B09F00DC340E06C2F87E00E9414
:1031E000CE068091FE038823C1F1C090F503C0FE96
:1031F00002C380E40E948E0C892B09F4FCC2C1E05A
:10320000C1FE06C081E40E948E0C892B09F0F5C234
:10321000C2FE06C082E40E948E0C892B09F0EFC228
:10322000C3FE06C083E40E948E0C892B09F0E9C21C
:10323000C4FE06C084E40E948E0C892B09F0E3C210
:10324000C5FE06C085E40E948E0C892B09F0DDC204
:1032500040E06C2F88E00E94CE0680916A07909132
:103260006B07DC01ED91FC910084F185E02D19954F
:10327000892B09F4CEC180916A0790916B07DC011C
:10328000ED91FC910284F385E02D19959C018F3F0F
:10329000BFEF9B0711F3982F80913707882309F41C
:1032A00092C0973F09F07EC010923707A0912F0778
:1032B000B09130076C916137C1F1693709F05CC09A
:1032C000E0916407F0916507309739F280913807F3
:1032D000909139078330910538F420E030E040E0E8
:1032E00050E060E070E01BC0BD016D5F7F4F039751
:1032F0000E945C0CBC016D5F7F4F80E00E942D0C32
:10330000E0912F07F09130079F012D5F3F4F4281E1
:1033100050E0618170E0E0916407F0916507809171
:10332000460790914707199598CF80916007909133
:103330006107892B09F491CFBD016F5F7F4F8091A9
:1033400038079091390701970E945C0CBC016F5FB0
:103350007F4F80E00E942D0C60912F077091300705
:103360006F5F7F4FE0916007F091610780914C079C
:1033700090914D07199571CFE0916207F091630725
:10338000309709F46ACF9D012F5F3F4F4091380776
:10339000509139074150510980914E0790914F0744
:1033A00019955BCF6091380770913907822F0E9481
:1033B0002D0C809138079091390701969093390729
:1033C000809338074ACF60913507709136076115B1
:1033D000710509F4AFC027FDADC06150710970934C
:1033E000360760933507822F0E942D0C8091350798
:1033F00090913607892B09F030CF809133078823CD
:1034000009F42BCF803D09F47FC030F4803939F1C5
:10341000803C09F466C08BC0843FE1F1853F09F42C
:103420004DC0803E09F083C0E0915207F0915307F0
:10343000309709F47CC0A0912F07B09130078C9190
:1034400011964C9150E090E8899F400D511D112438
:103450006091340780913A0790913B0767C0E091F3
:103460005407F0915507309709F461C0A0912F07D8
:10347000B09130078C9111964C9150E0A0E88A9F52
:10348000400D511D11246091340780913C079091AB
:103490003D074CC0E0915A07F0915B07309709F463
:1034A00046C0A0912F07B09130074C9150E0119683
:1034B0006C91809142079091430738C0E0915C077E
:1034C000F0915D07309799F1A0912F07B0913007E7
:1034D0004C9150E011966C91809144079091450772
:1034E00025C0E0915607F0915707309701F1A09160
:1034F0002F07B09130074C9150E0609134078091D4
:103500003E0790913F0712C0E0915807F09159078C
:10351000309769F0A0912F07B09130074C9150E09F
:10352000609134078091400790914107199510925E
:10353000330793CE903F30F4822F8F7080933407FF
:10354000922F907F903F79F158F4903C29F118F434
:103550009039E9F082CE903DF9F0903EC1F07DCEF9
:10356000993F09F449C028F48CE0890F823078F043
:1035700074CE9F3F09F071CE109236071092350736
:10358000109233071092340780E090E013C010933C
:1035900036070093350704C0F0923607E0923507EE
:1035A000909333075ACED092370710923907109272
:1035B000380753CE20913107309132078217930795
:1035C00048F4E0912F07F0913007E80FF91F1082BF
:1035D0000196F0CF109237071092390710923807F2
:1035E000E0916807F0916907309709F436CE809131
:1035F0005007909151070BC0E0916607F091670763
:10360000309709F42ACE809148079091490719957F
:1036100024CE8FB7F8944091DA095091DB0960917C
:10362000DC097091DD098FBF8090290490902A04F5
:10363000A0902B04B0902C04209101023091020242
:10364000C901A0E0B0E0481959096A097B0984174B
:103650009507A607B70708F04FC0880D991DAA1D4A
:10366000BB1D8093290490932A04A0932B04B0934C
:103670002C048FE6A82E87E0B82ECAECC031B8F42F
:10368000F5018081823099F480912704909128047B
:103690000C2E02C0959587950A94E2F780FF07C02B
:1036A0008C2F0E94200DBC018C2F0E94E00ACF5F5E
:1036B000FFEFAF1ABF0AC03109F78091000287FD02
:1036C0001BC0C0E02C2F30E080910002082E000CBF
:1036D000990B8217930784F0D29FF001D39FF00DCE
:1036E0001124E150FC4F61817281248143818081EA
:1036F0000E948E07CF5FE6CF0E94910E1BCBC0E0E9
:1037000028CBC8602ECBC06134CBC0623ACBC0643A
:1037100040CBC06846CBC0E059CBC2605FCBC46031
:1037200065CBC8606BCBC06171CBC06277CBC06426
:103730007DCBC06883CBC0E096CBC2609CCBC4601D
:10374000A2CBC860A8CBC061AECBC062B4CBC06412
:10375000BACBC068C0CBC0E0D3CBC260D9CBC46009
:10376000DFCBC860E5CBC061EBCBC062F1CBC064FE
:10377000F7CBC068FDCBC0E010CCC26016CCC460F3
:103780001CCCC86022CCC06128CCC0622ECCC064E6
:1037900034CCC0683ACCC0E04DCCC26053CCC460DD
:1037A00059CCC8605FCCC06165CCC0626BCCC064D2
:1037B00071CCC06877CCC0E08ACCC26090CCC460C9
:1037C00096CCC8609CCCC061A2CCC062A8CCC064BE
:1037D000AECCC068B4CCC0E0C7CCC260CDCCC460B5
:1037E000D3CCC860D9CCC061DFCCC062E5CCC064AA
:1037F000EBCCC068F1CCC0E003CDC26009CDC460A1
:103800000FCDC86015CDC0611BCDC06221CD109217
:103810007B0410927A0488EE93E0A0E0B0E08093FD
:103820007C0490937D04A0937E04B0937F042DE0EC
:1038300032E0309379042093780445E351E05093CB
:1038400085044093840444E351E0509387044093FB
:10385000860440E351E0509389044093880441E397
:1038600051E050938B0440938A0442E351E050931B
:103870008D0440938C0446E351E050938F044093B1
:103880008E0410929104109292041092930410925C
:1038900094041092180510921705809319059093BF
:1038A0001A05A0931B05B0931C05309316052093B1
:1038B000150545ED50E0509322054093210544ED58
:1038C00050E0509324054093230540ED50E0509381
:1038D00026054093250541ED50E05093280540937F
:1038E000270542ED50E050932A054093290546ED07
:1038F00050E050932C0540932B0510922E0510920A
:103900002F0510923005109231051092B5051092D6
:10391000B4058093B6059093B705A093B805B0930E
:10392000B9053093B3052093B2054DEC50E05093A8
:10393000BF054093BE054CEC50E05093C105409349
:10394000C00548EC50E05093C3054093C20549ECD4
:1039500050E05093C5054093C4054AEC50E05093A5
:10396000C7054093C6054EEC50E05093C9054093FF
:10397000C8051092CB051092CC051092CD0510927F
:10398000CE051092520610925106809353069093E2
:103990005406A0935506B0935606309350062093D4
:1039A0004F0625EC30E030935C0620935B0624EC58
:1039B00030E030935E0620935D0620EC30E03093DB
:1039C000600620935F0621EC30E03093620620937E
:1039D000610622EC30E0309364062093630626EC07
:1039E00030E03093660620936506109268061092C8
:1039F000690610926A0610926B062CEE36E0109261
:103A00002D0710922C073093300720932F0740E4A6
:103A100050E05093320740933107109233071092D1
:103A2000340710923607109235071092370710921C
:103A300039071092380710923B0710923A071092FC
:103A40003D0710923C0710923F0710923E071092DC
:103A500041071092400710924307109242071092BC
:103A600045071092440710924B0710924A07109294
:103A70004D0710924C0710924F0710924E0710926C
:103A800051071092500710925F0710925E07109234
:103A90002E0710926C0710926E0710926D0710920D
:103AA000410840E05FE0509353074093520746EFD0
:103AB0005EE0509355074093540748ED5EE0509305
:103AC0005707409356074EEC5EE0509359074093DA
:103AD00058074CEE5EE050935B0740935A0742EE66
:103AE0005EE050935D0740935C074DEC5EE05093C1
:103AF00061074093600742EC5EE050936307409398
:103B000062074AE352E1509365074093640730939C
:103B10004707209346074AEC5FE0509367074093BE
:103B2000660730934907209348072AEB3EE030931D
:103B30006907209368071092450810924408809303
:103B4000460890934708A0934808B09349088FE12E
:103B500092E090934308809342088091DE08AFED95
:103B6000B8E09FEF48EB5BE0803378F48C93282F2C
:103B700030E0F901EE0FFF1F2E0F3F1FF901E25B4E
:103B8000F74F528341838F5F01C09C93139629E0C6
:103B9000AF36B20749F78093DE080895052E97FBEC
:103BA00016F400940FD057FD05D024D007FC02D0A6
:103BB00046F408C050954095309521953F4F4F4FA2
:103BC0005F4F089590958095709561957F4F8F4FC9
:103BD0009F4F089531D0A59F900DB49F900DA49F45
:103BE000800D911D11240895B7FFF4CFF3DF821BE0
:103BF000930B0895A1E21A2EAA1BBB1BFD010DC059
:103C0000AA1FBB1FEE1FFF1FA217B307E407F5078C
:103C100020F0A21BB30BE40BF50B661F771F881F68
:103C2000991F1A9469F760957095809590959B01FE
:103C3000AC01BD01CF010895A29FB001B39FC001A7
:103C4000A39F700D811D1124911DB29F700D811DC8
:103C50001124911D0895991B79E004C0991F9617AE
:103C600008F0961B881F7A95C9F780950895EE0F86
:103C7000FF1F881F8BBF0790F691E02D19940F93BB
:103C80001F93CF93DF938230910510F482E090E090
:103C9000E091E509F091E60920E030E0A0E0B0E035
:103CA000309719F1408151810281138148175907DA
:103CB000C8F08417950769F4109731F012960C93A9
:103CC000129713961C9327C00093E5091093E609F9
:103CD00022C02115310519F04217530718F49A0133
:103CE000BD01EF01DF01F801DBCF21153105F9F04E
:103CF000281B390B2430310580F48A819B816115A2
:103D0000710521F0FB019383828304C09093E6093F
:103D10008093E509FE01329644C0FE01E20FF31FD5
:103D20008193919322503109398328833AC020919D
:103D3000E3093091E409232B41F4209105023091ED
:103D400006023093E4092093E309209103023091A5
:103D500004022115310541F42DB73EB74091070209
:103D600050910802241B350BE091E309F091E4091E
:103D7000E217F307A0F42E1B3F0B2817390778F042
:103D8000AC014E5F5F4F2417350748F04E0F5F1FA1
:103D90005093E4094093E3098193919302C0E0E0DA
:103DA000F0E0CF01DF91CF911F910F910895CF9354
:103DB000DF93009709F481C0FC01329713821282CD
:103DC000A091E509B091E609109781F42081318135
:103DD000820F931F2091E3093091E40928173907D6
:103DE00051F5F093E409E093E30967C0ED0120E0A9
:103DF00030E0CE17DF0740F44A815B819E01411518
:103E00005105F1F0EA01F5CFD383C283408151819E
:103E1000840F951FC817D90759F488819981840F99
:103E2000951F0296918380838A819B8193838283ED
:103E30002115310529F4F093E609E093E5093DC029
:103E4000E901FB83EA8349915991C40FD51FEC170F
:103E5000FD0761F480819181840F951F0296E9012D
:103E600099838883828193819B838A83E0E0F0E059
:103E700012968D919C911397009719F0FD01DC012A
:103E8000F7CF8D919C9111979D012E5F3F4F820F2F
:103E9000931F2091E3093091E4092817390769F449
:103EA000309729F41092E6091092E50902C01382B6
:103EB0001282B093E409A093E309DF91CF910895B2
:103EC00081E090E0F8940FC0FB01DC0141505040CC
:103ED00048F001900D920020C9F701C01D92415099
:0A3EE0005040E0F70895F894FFCF7A
:103EEA00FF13000000E709800000000000240E779D
:103EFA000DA10D700ED20DB00DC40D00000000967C
:103F0A000F6A0FC50F3E0F620F4E0F3F0F4D6178BC
:103F1A0020736572766F7320617474616368656477
:103F2A0000556E6B6E6F776E2070696E206D6F64D0
:103F3A0065004932433A20546F6F206D616E7920D3
:103F4A006279746573207265636569766564004990
:103F5A0032433A20546F6F20666577206279746520
:103F6A00732072656365697665640031302D626914
:103F7A00742061646472657373696E67206E6F740E
:103F8A0020737570706F7274656400746F6F206D42
:103F9A00616E79207175657269657300433A5C5583
:103FAA00736572735C41444D494E497E315C417080
:103FBA0070446174615C4C6F63616C5C54656D70D4
:103FCA005C61726475696E6F5F6D6F64696669655D
:103FDA00645F736B657463685F3838343733315C98
:103FEA005374616E646172644669726D6174612EA4
:043FFA00696E6F007D
:00000001FF
